{
  "_format": "hh-sol-artifact-1",
  "contractName": "NFTMarketplace",
  "sourceName": "contracts/Marketplace.sol",
  "abi": [
    {
      "inputs": [],
      "stateMutability": "nonpayable",
      "type": "constructor"
    },
    {
      "anonymous": false,
      "inputs": [
        {
          "indexed": true,
          "internalType": "address",
          "name": "owner",
          "type": "address"
        },
        {
          "indexed": true,
          "internalType": "address",
          "name": "approved",
          "type": "address"
        },
        {
          "indexed": true,
          "internalType": "uint256",
          "name": "tokenId",
          "type": "uint256"
        }
      ],
      "name": "Approval",
      "type": "event"
    },
    {
      "anonymous": false,
      "inputs": [
        {
          "indexed": true,
          "internalType": "address",
          "name": "owner",
          "type": "address"
        },
        {
          "indexed": true,
          "internalType": "address",
          "name": "operator",
          "type": "address"
        },
        {
          "indexed": false,
          "internalType": "bool",
          "name": "approved",
          "type": "bool"
        }
      ],
      "name": "ApprovalForAll",
      "type": "event"
    },
    {
      "anonymous": false,
      "inputs": [
        {
          "indexed": false,
          "internalType": "uint256",
          "name": "_fromTokenId",
          "type": "uint256"
        },
        {
          "indexed": false,
          "internalType": "uint256",
          "name": "_toTokenId",
          "type": "uint256"
        }
      ],
      "name": "BatchMetadataUpdate",
      "type": "event"
    },
    {
      "anonymous": false,
      "inputs": [
        {
          "indexed": false,
          "internalType": "uint256",
          "name": "_tokenId",
          "type": "uint256"
        }
      ],
      "name": "MetadataUpdate",
      "type": "event"
    },
    {
      "anonymous": false,
      "inputs": [
        {
          "indexed": true,
          "internalType": "uint256",
          "name": "tokenId",
          "type": "uint256"
        },
        {
          "indexed": false,
          "internalType": "address",
          "name": "owner",
          "type": "address"
        },
        {
          "indexed": false,
          "internalType": "address",
          "name": "seller",
          "type": "address"
        },
        {
          "indexed": false,
          "internalType": "uint256",
          "name": "price",
          "type": "uint256"
        },
        {
          "indexed": false,
          "internalType": "bool",
          "name": "currentlyListed",
          "type": "bool"
        }
      ],
      "name": "TokenListedSuccess",
      "type": "event"
    },
    {
      "anonymous": false,
      "inputs": [
        {
          "indexed": true,
          "internalType": "address",
          "name": "from",
          "type": "address"
        },
        {
          "indexed": true,
          "internalType": "address",
          "name": "to",
          "type": "address"
        },
        {
          "indexed": true,
          "internalType": "uint256",
          "name": "tokenId",
          "type": "uint256"
        }
      ],
      "name": "Transfer",
      "type": "event"
    },
    {
      "stateMutability": "payable",
      "type": "fallback"
    },
    {
      "inputs": [
        {
          "internalType": "address",
          "name": "to",
          "type": "address"
        },
        {
          "internalType": "uint256",
          "name": "tokenId",
          "type": "uint256"
        }
      ],
      "name": "approve",
      "outputs": [],
      "stateMutability": "nonpayable",
      "type": "function"
    },
    {
      "inputs": [
        {
          "internalType": "address",
          "name": "owner",
          "type": "address"
        }
      ],
      "name": "balanceOf",
      "outputs": [
        {
          "internalType": "uint256",
          "name": "",
          "type": "uint256"
        }
      ],
      "stateMutability": "view",
      "type": "function"
    },
    {
      "inputs": [
        {
          "internalType": "string",
          "name": "tokenURI",
          "type": "string"
        }
      ],
      "name": "createToken",
      "outputs": [
        {
          "internalType": "uint256",
          "name": "",
          "type": "uint256"
        }
      ],
      "stateMutability": "nonpayable",
      "type": "function"
    },
    {
      "inputs": [
        {
          "internalType": "uint256",
          "name": "tokenId",
          "type": "uint256"
        }
      ],
      "name": "executeSale",
      "outputs": [],
      "stateMutability": "payable",
      "type": "function"
    },
    {
      "inputs": [],
      "name": "getAllNFTs",
      "outputs": [
        {
          "components": [
            {
              "internalType": "uint256",
              "name": "tokenId",
              "type": "uint256"
            },
            {
              "internalType": "address payable",
              "name": "owner",
              "type": "address"
            },
            {
              "internalType": "address payable",
              "name": "seller",
              "type": "address"
            },
            {
              "internalType": "uint256",
              "name": "price",
              "type": "uint256"
            },
            {
              "internalType": "bool",
              "name": "currentlyListed",
              "type": "bool"
            },
            {
              "internalType": "uint256",
              "name": "endSaleTime",
              "type": "uint256"
            }
          ],
          "internalType": "struct NFTMarketplace.ListedToken[]",
          "name": "",
          "type": "tuple[]"
        }
      ],
      "stateMutability": "view",
      "type": "function"
    },
    {
      "inputs": [
        {
          "internalType": "uint256",
          "name": "tokenId",
          "type": "uint256"
        }
      ],
      "name": "getApproved",
      "outputs": [
        {
          "internalType": "address",
          "name": "",
          "type": "address"
        }
      ],
      "stateMutability": "view",
      "type": "function"
    },
    {
      "inputs": [
        {
          "internalType": "uint256",
          "name": "tokenId",
          "type": "uint256"
        }
      ],
      "name": "getListedTokenForId",
      "outputs": [
        {
          "components": [
            {
              "internalType": "uint256",
              "name": "tokenId",
              "type": "uint256"
            },
            {
              "internalType": "address payable",
              "name": "owner",
              "type": "address"
            },
            {
              "internalType": "address payable",
              "name": "seller",
              "type": "address"
            },
            {
              "internalType": "uint256",
              "name": "price",
              "type": "uint256"
            },
            {
              "internalType": "bool",
              "name": "currentlyListed",
              "type": "bool"
            },
            {
              "internalType": "uint256",
              "name": "endSaleTime",
              "type": "uint256"
            }
          ],
          "internalType": "struct NFTMarketplace.ListedToken",
          "name": "",
          "type": "tuple"
        }
      ],
      "stateMutability": "view",
      "type": "function"
    },
    {
      "inputs": [],
      "name": "getMyNFTs",
      "outputs": [
        {
          "components": [
            {
              "internalType": "uint256",
              "name": "tokenId",
              "type": "uint256"
            },
            {
              "internalType": "address payable",
              "name": "owner",
              "type": "address"
            },
            {
              "internalType": "address payable",
              "name": "seller",
              "type": "address"
            },
            {
              "internalType": "uint256",
              "name": "price",
              "type": "uint256"
            },
            {
              "internalType": "bool",
              "name": "currentlyListed",
              "type": "bool"
            },
            {
              "internalType": "uint256",
              "name": "endSaleTime",
              "type": "uint256"
            }
          ],
          "internalType": "struct NFTMarketplace.ListedToken[]",
          "name": "",
          "type": "tuple[]"
        }
      ],
      "stateMutability": "view",
      "type": "function"
    },
    {
      "inputs": [
        {
          "internalType": "address",
          "name": "owner",
          "type": "address"
        },
        {
          "internalType": "address",
          "name": "operator",
          "type": "address"
        }
      ],
      "name": "isApprovedForAll",
      "outputs": [
        {
          "internalType": "bool",
          "name": "",
          "type": "bool"
        }
      ],
      "stateMutability": "view",
      "type": "function"
    },
    {
      "inputs": [
        {
          "internalType": "uint256",
          "name": "tokenId",
          "type": "uint256"
        },
        {
          "internalType": "uint256",
          "name": "price",
          "type": "uint256"
        },
        {
          "internalType": "uint256",
          "name": "endSaleTime",
          "type": "uint256"
        }
      ],
      "name": "listToken",
      "outputs": [],
      "stateMutability": "payable",
      "type": "function"
    },
    {
      "inputs": [],
      "name": "name",
      "outputs": [
        {
          "internalType": "string",
          "name": "",
          "type": "string"
        }
      ],
      "stateMutability": "view",
      "type": "function"
    },
    {
      "inputs": [
        {
          "internalType": "uint256",
          "name": "tokenId",
          "type": "uint256"
        }
      ],
      "name": "ownerOf",
      "outputs": [
        {
          "internalType": "address",
          "name": "",
          "type": "address"
        }
      ],
      "stateMutability": "view",
      "type": "function"
    },
    {
      "inputs": [
        {
          "internalType": "address",
          "name": "from",
          "type": "address"
        },
        {
          "internalType": "address",
          "name": "to",
          "type": "address"
        },
        {
          "internalType": "uint256",
          "name": "tokenId",
          "type": "uint256"
        }
      ],
      "name": "safeTransferFrom",
      "outputs": [],
      "stateMutability": "nonpayable",
      "type": "function"
    },
    {
      "inputs": [
        {
          "internalType": "address",
          "name": "from",
          "type": "address"
        },
        {
          "internalType": "address",
          "name": "to",
          "type": "address"
        },
        {
          "internalType": "uint256",
          "name": "tokenId",
          "type": "uint256"
        },
        {
          "internalType": "bytes",
          "name": "data",
          "type": "bytes"
        }
      ],
      "name": "safeTransferFrom",
      "outputs": [],
      "stateMutability": "nonpayable",
      "type": "function"
    },
    {
      "inputs": [
        {
          "internalType": "address",
          "name": "operator",
          "type": "address"
        },
        {
          "internalType": "bool",
          "name": "approved",
          "type": "bool"
        }
      ],
      "name": "setApprovalForAll",
      "outputs": [],
      "stateMutability": "nonpayable",
      "type": "function"
    },
    {
      "inputs": [
        {
          "internalType": "bytes4",
          "name": "interfaceId",
          "type": "bytes4"
        }
      ],
      "name": "supportsInterface",
      "outputs": [
        {
          "internalType": "bool",
          "name": "",
          "type": "bool"
        }
      ],
      "stateMutability": "view",
      "type": "function"
    },
    {
      "inputs": [],
      "name": "symbol",
      "outputs": [
        {
          "internalType": "string",
          "name": "",
          "type": "string"
        }
      ],
      "stateMutability": "view",
      "type": "function"
    },
    {
      "inputs": [
        {
          "internalType": "uint256",
          "name": "tokenId",
          "type": "uint256"
        }
      ],
      "name": "tokenURI",
      "outputs": [
        {
          "internalType": "string",
          "name": "",
          "type": "string"
        }
      ],
      "stateMutability": "view",
      "type": "function"
    },
    {
      "inputs": [
        {
          "internalType": "address",
          "name": "from",
          "type": "address"
        },
        {
          "internalType": "address",
          "name": "to",
          "type": "address"
        },
        {
          "internalType": "uint256",
          "name": "tokenId",
          "type": "uint256"
        }
      ],
      "name": "transferFrom",
      "outputs": [],
      "stateMutability": "nonpayable",
      "type": "function"
    },
    {
      "inputs": [
        {
          "internalType": "uint256",
          "name": "tokenId",
          "type": "uint256"
        }
      ],
      "name": "unListToken",
      "outputs": [],
      "stateMutability": "nonpayable",
      "type": "function"
    },
    {
      "stateMutability": "payable",
      "type": "receive"
    }
  ],
  "bytecode": "0x6080604052662386f26fc10000600a553480156200001c57600080fd5b506040518060400160405280601281526020017f4b69636b6574204d61726b6574706c61636500000000000000000000000000008152506040518060400160405280600581526020017f4b45544d4b00000000000000000000000000000000000000000000000000000081525081600090816200009a919062000370565b508060019081620000ac919062000370565b50505033600960006101000a81548173ffffffffffffffffffffffffffffffffffffffff021916908373ffffffffffffffffffffffffffffffffffffffff16021790555062000457565b600081519050919050565b7f4e487b7100000000000000000000000000000000000000000000000000000000600052604160045260246000fd5b7f4e487b7100000000000000000000000000000000000000000000000000000000600052602260045260246000fd5b600060028204905060018216806200017857607f821691505b6020821081036200018e576200018d62000130565b5b50919050565b60008190508160005260206000209050919050565b60006020601f8301049050919050565b600082821b905092915050565b600060088302620001f87fffffffffffffffffffffffffffffffffffffffffffffffffffffffffffffffff82620001b9565b620002048683620001b9565b95508019841693508086168417925050509392505050565b6000819050919050565b6000819050919050565b6000620002516200024b62000245846200021c565b62000226565b6200021c565b9050919050565b6000819050919050565b6200026d8362000230565b620002856200027c8262000258565b848454620001c6565b825550505050565b600090565b6200029c6200028d565b620002a981848462000262565b505050565b5b81811015620002d157620002c560008262000292565b600181019050620002af565b5050565b601f8211156200032057620002ea8162000194565b620002f584620001a9565b8101602085101562000305578190505b6200031d6200031485620001a9565b830182620002ae565b50505b505050565b600082821c905092915050565b6000620003456000198460080262000325565b1980831691505092915050565b600062000360838362000332565b9150826002028217905092915050565b6200037b82620000f6565b67ffffffffffffffff81111562000397576200039662000101565b5b620003a382546200015f565b620003b0828285620002d5565b600060209050601f831160018114620003e85760008415620003d3578287015190505b620003df858262000352565b8655506200044f565b601f198416620003f88662000194565b60005b828110156200042257848901518255600182019150602085019450602081019050620003fb565b868310156200044257848901516200043e601f89168262000332565b8355505b6001600288020188555050505b505050505050565b6140c480620004676000396000f3fe6080604052600436106101235760003560e01c80638e264590116100a0578063bce64a7d11610064578063bce64a7d14610404578063c87b56dd14610420578063e0391b091461045d578063e985e9c514610488578063f9a61784146104c55761012a565b80638e2645901461032e57806395d89b411461036b5780639b1225c414610396578063a22cb465146103b2578063b88d4fde146103db5761012a565b806342842e0e116100e757806342842e0e1461022357806345576f941461024c578063629cb2e4146102895780636352211e146102b457806370a08231146102f15761012a565b806301ffc9a71461012c57806306fdde0314610169578063081812fc14610194578063095ea7b3146101d157806323b872dd146101fa5761012a565b3661012a57005b005b34801561013857600080fd5b50610153600480360381019061014e9190612925565b6104ee565b604051610160919061296d565b60405180910390f35b34801561017557600080fd5b5061017e61054f565b60405161018b9190612a18565b60405180910390f35b3480156101a057600080fd5b506101bb60048036038101906101b69190612a70565b6105e1565b6040516101c89190612ade565b60405180910390f35b3480156101dd57600080fd5b506101f860048036038101906101f39190612b25565b610627565b005b34801561020657600080fd5b50610221600480360381019061021c9190612b65565b61073e565b005b34801561022f57600080fd5b5061024a60048036038101906102459190612b65565b61079e565b005b34801561025857600080fd5b50610273600480360381019061026e9190612ced565b6107be565b6040516102809190612d45565b60405180910390f35b34801561029557600080fd5b5061029e61097c565b6040516102ab9190612ec9565b60405180910390f35b3480156102c057600080fd5b506102db60048036038101906102d69190612a70565b610d5d565b6040516102e89190612ade565b60405180910390f35b3480156102fd57600080fd5b5061031860048036038101906103139190612eeb565b610de3565b6040516103259190612d45565b60405180910390f35b34801561033a57600080fd5b5061035560048036038101906103509190612a70565b610e9a565b6040516103629190612f93565b60405180910390f35b34801561037757600080fd5b50610380610fac565b60405161038d9190612a18565b60405180910390f35b6103b060048036038101906103ab9190612a70565b61103e565b005b3480156103be57600080fd5b506103d960048036038101906103d49190612fda565b611298565b005b3480156103e757600080fd5b5061040260048036038101906103fd91906130bb565b6112ae565b005b61041e6004803603810190610419919061313e565b611310565b005b34801561042c57600080fd5b5061044760048036038101906104429190612a70565b611320565b6040516104549190612a18565b60405180910390f35b34801561046957600080fd5b50610472611432565b60405161047f9190612ec9565b60405180910390f35b34801561049457600080fd5b506104af60048036038101906104aa9190613191565b61162e565b6040516104bc919061296d565b60405180910390f35b3480156104d157600080fd5b506104ec60048036038101906104e79190612a70565b6116c2565b005b6000634906490660e01b7bffffffffffffffffffffffffffffffffffffffffffffffffffffffff1916827bffffffffffffffffffffffffffffffffffffffffffffffffffffffff191614806105485750610547826116f4565b5b9050919050565b60606000805461055e90613200565b80601f016020809104026020016040519081016040528092919081815260200182805461058a90613200565b80156105d75780601f106105ac576101008083540402835291602001916105d7565b820191906000526020600020905b8154815290600101906020018083116105ba57829003601f168201915b5050505050905090565b60006105ec826117d6565b6004600083815260200190815260200160002060009054906101000a900473ffffffffffffffffffffffffffffffffffffffff169050919050565b600061063282610d5d565b90508073ffffffffffffffffffffffffffffffffffffffff168373ffffffffffffffffffffffffffffffffffffffff16036106a2576040517f08c379a0000000000000000000000000000000000000000000000000000000008152600401610699906132a3565b60405180910390fd5b8073ffffffffffffffffffffffffffffffffffffffff166106c1611821565b73ffffffffffffffffffffffffffffffffffffffff1614806106f057506106ef816106ea611821565b61162e565b5b61072f576040517f08c379a000000000000000000000000000000000000000000000000000000000815260040161072690613335565b60405180910390fd5b6107398383611829565b505050565b61074f610749611821565b826118e2565b61078e576040517f08c379a0000000000000000000000000000000000000000000000000000000008152600401610785906133c7565b60405180910390fd5b610799838383611977565b505050565b6107b9838383604051806020016040528060008152506112ae565b505050565b60006001600760008282546107d39190613416565b92505081905550600060075490506107eb3382611c70565b6107f58184611c8e565b6040518060c001604052808281526020013073ffffffffffffffffffffffffffffffffffffffff1681526020013373ffffffffffffffffffffffffffffffffffffffff1681526020016000815260200160001515815260200142815250600b60008381526020019081526020016000206000820151816000015560208201518160010160006101000a81548173ffffffffffffffffffffffffffffffffffffffff021916908373ffffffffffffffffffffffffffffffffffffffff16021790555060408201518160020160006101000a81548173ffffffffffffffffffffffffffffffffffffffff021916908373ffffffffffffffffffffffffffffffffffffffff1602179055506060820151816003015560808201518160040160006101000a81548160ff02191690831515021790555060a08201518160050155905050807f9339409317fd01fabff48b703019016f49159bacc801ae872d2ca637d226e4c0303360008060405161096b949392919061348f565b60405180910390a280915050919050565b60606000600754905060008060005b83811015610aa4573373ffffffffffffffffffffffffffffffffffffffff16600b60006001846109bb9190613416565b815260200190815260200160002060010160009054906101000a900473ffffffffffffffffffffffffffffffffffffffff1673ffffffffffffffffffffffffffffffffffffffff161480610a7c57503373ffffffffffffffffffffffffffffffffffffffff16600b6000600184610a329190613416565b815260200190815260200160002060020160009054906101000a900473ffffffffffffffffffffffffffffffffffffffff1673ffffffffffffffffffffffffffffffffffffffff16145b15610a9157600183610a8e9190613416565b92505b8080610a9c906134d4565b91505061098b565b5060008267ffffffffffffffff811115610ac157610ac0612bc2565b5b604051908082528060200260200182016040528015610afa57816020015b610ae7612855565b815260200190600190039081610adf5790505b50905060005b84811015610d52573373ffffffffffffffffffffffffffffffffffffffff16600b6000600184610b309190613416565b815260200190815260200160002060010160009054906101000a900473ffffffffffffffffffffffffffffffffffffffff1673ffffffffffffffffffffffffffffffffffffffff161480610bf157503373ffffffffffffffffffffffffffffffffffffffff16600b6000600184610ba79190613416565b815260200190815260200160002060020160009054906101000a900473ffffffffffffffffffffffffffffffffffffffff1673ffffffffffffffffffffffffffffffffffffffff16145b15610d3f576000600182610c059190613416565b90506000600b60008381526020019081526020016000209050806040518060c0016040529081600082015481526020016001820160009054906101000a900473ffffffffffffffffffffffffffffffffffffffff1673ffffffffffffffffffffffffffffffffffffffff1673ffffffffffffffffffffffffffffffffffffffff1681526020016002820160009054906101000a900473ffffffffffffffffffffffffffffffffffffffff1673ffffffffffffffffffffffffffffffffffffffff1673ffffffffffffffffffffffffffffffffffffffff168152602001600382015481526020016004820160009054906101000a900460ff16151515158152602001600582015481525050848681518110610d2257610d2161351c565b5b6020026020010181905250600185610d3a9190613416565b945050505b8080610d4a906134d4565b915050610b00565b508094505050505090565b600080610d6983611d32565b9050600073ffffffffffffffffffffffffffffffffffffffff168173ffffffffffffffffffffffffffffffffffffffff1603610dda576040517f08c379a0000000000000000000000000000000000000000000000000000000008152600401610dd190613597565b60405180910390fd5b80915050919050565b60008073ffffffffffffffffffffffffffffffffffffffff168273ffffffffffffffffffffffffffffffffffffffff1603610e53576040517f08c379a0000000000000000000000000000000000000000000000000000000008152600401610e4a90613629565b60405180910390fd5b600360008373ffffffffffffffffffffffffffffffffffffffff1673ffffffffffffffffffffffffffffffffffffffff168152602001908152602001600020549050919050565b610ea2612855565b600b60008381526020019081526020016000206040518060c0016040529081600082015481526020016001820160009054906101000a900473ffffffffffffffffffffffffffffffffffffffff1673ffffffffffffffffffffffffffffffffffffffff1673ffffffffffffffffffffffffffffffffffffffff1681526020016002820160009054906101000a900473ffffffffffffffffffffffffffffffffffffffff1673ffffffffffffffffffffffffffffffffffffffff1673ffffffffffffffffffffffffffffffffffffffff168152602001600382015481526020016004820160009054906101000a900460ff161515151581526020016005820154815250509050919050565b606060018054610fbb90613200565b80601f0160208091040260200160405190810160405280929190818152602001828054610fe790613200565b80156110345780601f1061100957610100808354040283529160200191611034565b820191906000526020600020905b81548152906001019060200180831161101757829003601f168201915b5050505050905090565b6000600b60008381526020019081526020016000206003015490506000600b600084815260200190815260200160002060020160009054906101000a900473ffffffffffffffffffffffffffffffffffffffff169050600b60008481526020019081526020016000206005015442116110ec576040517f08c379a00000000000000000000000000000000000000000000000000000000081526004016110e390613695565b60405180910390fd5b81341461112e576040517f08c379a000000000000000000000000000000000000000000000000000000000815260040161112590613727565b60405180910390fd5b6001600b600085815260200190815260200160002060040160006101000a81548160ff02191690831515021790555033600b600085815260200190815260200160002060020160006101000a81548173ffffffffffffffffffffffffffffffffffffffff021916908373ffffffffffffffffffffffffffffffffffffffff1602179055506001600860008282546111c59190613416565b925050819055506111d7303385611977565b6111e13084610627565b600960009054906101000a900473ffffffffffffffffffffffffffffffffffffffff1673ffffffffffffffffffffffffffffffffffffffff166108fc600a549081150290604051600060405180830381858888f1935050505015801561124b573d6000803e3d6000fd5b508073ffffffffffffffffffffffffffffffffffffffff166108fc349081150290604051600060405180830381858888f19350505050158015611292573d6000803e3d6000fd5b50505050565b6112aa6112a3611821565b8383611d6f565b5050565b6112bf6112b9611821565b836118e2565b6112fe576040517f08c379a00000000000000000000000000000000000000000000000000000000081526004016112f5906133c7565b60405180910390fd5b61130a84848484611edb565b50505050565b61131b838383611f37565b505050565b606061132b826117d6565b600060066000848152602001908152602001600020805461134b90613200565b80601f016020809104026020016040519081016040528092919081815260200182805461137790613200565b80156113c45780601f10611399576101008083540402835291602001916113c4565b820191906000526020600020905b8154815290600101906020018083116113a757829003601f168201915b5050505050905060006113d56120dc565b905060008151036113ea57819250505061142d565b60008251111561141f578082604051602001611407929190613783565b6040516020818303038152906040529250505061142d565b611428846120f3565b925050505b919050565b60606000600754905060008167ffffffffffffffff81111561145757611456612bc2565b5b60405190808252806020026020018201604052801561149057816020015b61147d612855565b8152602001906001900390816114755790505b5090506000805b838110156116245760006001826114ae9190613416565b9050600b600082815260200190815260200160002060040160009054906101000a900460ff1615611610576000600b60008381526020019081526020016000209050806040518060c0016040529081600082015481526020016001820160009054906101000a900473ffffffffffffffffffffffffffffffffffffffff1673ffffffffffffffffffffffffffffffffffffffff1673ffffffffffffffffffffffffffffffffffffffff1681526020016002820160009054906101000a900473ffffffffffffffffffffffffffffffffffffffff1673ffffffffffffffffffffffffffffffffffffffff1673ffffffffffffffffffffffffffffffffffffffff168152602001600382015481526020016004820160009054906101000a900460ff161515151581526020016005820154815250508585815181106115f4576115f361351c565b5b602002602001018190525060018461160c9190613416565b9350505b50808061161c906134d4565b915050611497565b5081935050505090565b6000600560008473ffffffffffffffffffffffffffffffffffffffff1673ffffffffffffffffffffffffffffffffffffffff16815260200190815260200160002060008373ffffffffffffffffffffffffffffffffffffffff1673ffffffffffffffffffffffffffffffffffffffff16815260200190815260200160002060009054906101000a900460ff16905092915050565b6000600b600083815260200190815260200160002060040160006101000a81548160ff02191690831515021790555050565b60007f80ac58cd000000000000000000000000000000000000000000000000000000007bffffffffffffffffffffffffffffffffffffffffffffffffffffffff1916827bffffffffffffffffffffffffffffffffffffffffffffffffffffffff191614806117bf57507f5b5e139f000000000000000000000000000000000000000000000000000000007bffffffffffffffffffffffffffffffffffffffffffffffffffffffff1916827bffffffffffffffffffffffffffffffffffffffffffffffffffffffff1916145b806117cf57506117ce8261215b565b5b9050919050565b6117df816121c5565b61181e576040517f08c379a000000000000000000000000000000000000000000000000000000000815260040161181590613597565b60405180910390fd5b50565b600033905090565b816004600083815260200190815260200160002060006101000a81548173ffffffffffffffffffffffffffffffffffffffff021916908373ffffffffffffffffffffffffffffffffffffffff160217905550808273ffffffffffffffffffffffffffffffffffffffff1661189c83610d5d565b73ffffffffffffffffffffffffffffffffffffffff167f8c5be1e5ebec7d5bd14f71427d1e84f3dd0314c0f7b2291e5b200ac8c7c3b92560405160405180910390a45050565b6000806118ee83610d5d565b90508073ffffffffffffffffffffffffffffffffffffffff168473ffffffffffffffffffffffffffffffffffffffff161480611930575061192f818561162e565b5b8061196e57508373ffffffffffffffffffffffffffffffffffffffff16611956846105e1565b73ffffffffffffffffffffffffffffffffffffffff16145b91505092915050565b8273ffffffffffffffffffffffffffffffffffffffff1661199782610d5d565b73ffffffffffffffffffffffffffffffffffffffff16146119ed576040517f08c379a00000000000000000000000000000000000000000000000000000000081526004016119e490613819565b60405180910390fd5b600073ffffffffffffffffffffffffffffffffffffffff168273ffffffffffffffffffffffffffffffffffffffff1603611a5c576040517f08c379a0000000000000000000000000000000000000000000000000000000008152600401611a53906138ab565b60405180910390fd5b611a698383836001612206565b8273ffffffffffffffffffffffffffffffffffffffff16611a8982610d5d565b73ffffffffffffffffffffffffffffffffffffffff1614611adf576040517f08c379a0000000000000000000000000000000000000000000000000000000008152600401611ad690613819565b60405180910390fd5b6004600082815260200190815260200160002060006101000a81549073ffffffffffffffffffffffffffffffffffffffff02191690556001600360008573ffffffffffffffffffffffffffffffffffffffff1673ffffffffffffffffffffffffffffffffffffffff168152602001908152602001600020600082825403925050819055506001600360008473ffffffffffffffffffffffffffffffffffffffff1673ffffffffffffffffffffffffffffffffffffffff16815260200190815260200160002060008282540192505081905550816002600083815260200190815260200160002060006101000a81548173ffffffffffffffffffffffffffffffffffffffff021916908373ffffffffffffffffffffffffffffffffffffffff160217905550808273ffffffffffffffffffffffffffffffffffffffff168473ffffffffffffffffffffffffffffffffffffffff167fddf252ad1be2c89b69c2b068fc378daa952ba7f163c4a11628f55a4df523b3ef60405160405180910390a4611c6b838383600161220c565b505050565b611c8a828260405180602001604052806000815250612212565b5050565b611c97826121c5565b611cd6576040517f08c379a0000000000000000000000000000000000000000000000000000000008152600401611ccd9061393d565b60405180910390fd5b80600660008481526020019081526020016000209081611cf69190613aff565b507ff8e1a15aba9398e019f0b49df1a4fde98ee17ae345cb5f6b5e2c27f5033e8ce782604051611d269190612d45565b60405180910390a15050565b60006002600083815260200190815260200160002060009054906101000a900473ffffffffffffffffffffffffffffffffffffffff169050919050565b8173ffffffffffffffffffffffffffffffffffffffff168373ffffffffffffffffffffffffffffffffffffffff1603611ddd576040517f08c379a0000000000000000000000000000000000000000000000000000000008152600401611dd490613c1d565b60405180910390fd5b80600560008573ffffffffffffffffffffffffffffffffffffffff1673ffffffffffffffffffffffffffffffffffffffff16815260200190815260200160002060008473ffffffffffffffffffffffffffffffffffffffff1673ffffffffffffffffffffffffffffffffffffffff16815260200190815260200160002060006101000a81548160ff0219169083151502179055508173ffffffffffffffffffffffffffffffffffffffff168373ffffffffffffffffffffffffffffffffffffffff167f17307eab39ab6107e8899845ad3d59bd9653f200f220920489ca2b5937696c3183604051611ece919061296d565b60405180910390a3505050565b611ee6848484611977565b611ef28484848461226d565b611f31576040517f08c379a0000000000000000000000000000000000000000000000000000000008152600401611f2890613caf565b60405180910390fd5b50505050565b600a543414611f7b576040517f08c379a0000000000000000000000000000000000000000000000000000000008152600401611f7290613d41565b60405180910390fd5b60008211611fbe576040517f08c379a0000000000000000000000000000000000000000000000000000000008152600401611fb590613dd3565b60405180910390fd5b60001515600b600085815260200190815260200160002060040160009054906101000a900460ff16151514612028576040517f08c379a000000000000000000000000000000000000000000000000000000000815260040161201f90613e3f565b60405180910390fd5b6001600b600085815260200190815260200160002060040160006101000a81548160ff02191690831515021790555081600b60008581526020019081526020016000206003018190555080600b600085815260200190815260200160002060050181905550612098333085611977565b827f9339409317fd01fabff48b703019016f49159bacc801ae872d2ca637d226e4c030338560016040516120cf9493929190613e5f565b60405180910390a2505050565b606060405180602001604052806000815250905090565b60606120fe826117d6565b60006121086120dc565b905060008151116121285760405180602001604052806000815250612153565b80612132846123f4565b604051602001612143929190613783565b6040516020818303038152906040525b915050919050565b60007f01ffc9a7000000000000000000000000000000000000000000000000000000007bffffffffffffffffffffffffffffffffffffffffffffffffffffffff1916827bffffffffffffffffffffffffffffffffffffffffffffffffffffffff1916149050919050565b60008073ffffffffffffffffffffffffffffffffffffffff166121e783611d32565b73ffffffffffffffffffffffffffffffffffffffff1614159050919050565b50505050565b50505050565b61221c83836124c2565b612229600084848461226d565b612268576040517f08c379a000000000000000000000000000000000000000000000000000000000815260040161225f90613caf565b60405180910390fd5b505050565b600061228e8473ffffffffffffffffffffffffffffffffffffffff166126df565b156123e7578373ffffffffffffffffffffffffffffffffffffffff1663150b7a026122b7611821565b8786866040518563ffffffff1660e01b81526004016122d99493929190613ef9565b6020604051808303816000875af192505050801561231557506040513d601f19601f820116820180604052508101906123129190613f5a565b60015b612397573d8060008114612345576040519150601f19603f3d011682016040523d82523d6000602084013e61234a565b606091505b50600081510361238f576040517f08c379a000000000000000000000000000000000000000000000000000000000815260040161238690613caf565b60405180910390fd5b805181602001fd5b63150b7a0260e01b7bffffffffffffffffffffffffffffffffffffffffffffffffffffffff1916817bffffffffffffffffffffffffffffffffffffffffffffffffffffffff1916149150506123ec565b600190505b949350505050565b60606000600161240384612702565b01905060008167ffffffffffffffff81111561242257612421612bc2565b5b6040519080825280601f01601f1916602001820160405280156124545781602001600182028036833780820191505090505b509050600082602001820190505b6001156124b7578080600190039150507f3031323334353637383961626364656600000000000000000000000000000000600a86061a8153600a85816124ab576124aa613f87565b5b04945060008503612462575b819350505050919050565b600073ffffffffffffffffffffffffffffffffffffffff168273ffffffffffffffffffffffffffffffffffffffff1603612531576040517f08c379a000000000000000000000000000000000000000000000000000000000815260040161252890614002565b60405180910390fd5b61253a816121c5565b1561257a576040517f08c379a00000000000000000000000000000000000000000000000000000000081526004016125719061406e565b60405180910390fd5b612588600083836001612206565b612591816121c5565b156125d1576040517f08c379a00000000000000000000000000000000000000000000000000000000081526004016125c89061406e565b60405180910390fd5b6001600360008473ffffffffffffffffffffffffffffffffffffffff1673ffffffffffffffffffffffffffffffffffffffff16815260200190815260200160002060008282540192505081905550816002600083815260200190815260200160002060006101000a81548173ffffffffffffffffffffffffffffffffffffffff021916908373ffffffffffffffffffffffffffffffffffffffff160217905550808273ffffffffffffffffffffffffffffffffffffffff16600073ffffffffffffffffffffffffffffffffffffffff167fddf252ad1be2c89b69c2b068fc378daa952ba7f163c4a11628f55a4df523b3ef60405160405180910390a46126db60008383600161220c565b5050565b6000808273ffffffffffffffffffffffffffffffffffffffff163b119050919050565b600080600090507a184f03e93ff9f4daa797ed6e38ed64bf6a1f0100000000000000008310612760577a184f03e93ff9f4daa797ed6e38ed64bf6a1f010000000000000000838161275657612755613f87565b5b0492506040810190505b6d04ee2d6d415b85acef8100000000831061279d576d04ee2d6d415b85acef8100000000838161279357612792613f87565b5b0492506020810190505b662386f26fc1000083106127cc57662386f26fc1000083816127c2576127c1613f87565b5b0492506010810190505b6305f5e10083106127f5576305f5e10083816127eb576127ea613f87565b5b0492506008810190505b612710831061281a5761271083816128105761280f613f87565b5b0492506004810190505b6064831061283d576064838161283357612832613f87565b5b0492506002810190505b600a831061284c576001810190505b80915050919050565b6040518060c0016040528060008152602001600073ffffffffffffffffffffffffffffffffffffffff168152602001600073ffffffffffffffffffffffffffffffffffffffff16815260200160008152602001600015158152602001600081525090565b6000604051905090565b600080fd5b600080fd5b60007fffffffff0000000000000000000000000000000000000000000000000000000082169050919050565b612902816128cd565b811461290d57600080fd5b50565b60008135905061291f816128f9565b92915050565b60006020828403121561293b5761293a6128c3565b5b600061294984828501612910565b91505092915050565b60008115159050919050565b61296781612952565b82525050565b6000602082019050612982600083018461295e565b92915050565b600081519050919050565b600082825260208201905092915050565b60005b838110156129c25780820151818401526020810190506129a7565b60008484015250505050565b6000601f19601f8301169050919050565b60006129ea82612988565b6129f48185612993565b9350612a048185602086016129a4565b612a0d816129ce565b840191505092915050565b60006020820190508181036000830152612a3281846129df565b905092915050565b6000819050919050565b612a4d81612a3a565b8114612a5857600080fd5b50565b600081359050612a6a81612a44565b92915050565b600060208284031215612a8657612a856128c3565b5b6000612a9484828501612a5b565b91505092915050565b600073ffffffffffffffffffffffffffffffffffffffff82169050919050565b6000612ac882612a9d565b9050919050565b612ad881612abd565b82525050565b6000602082019050612af36000830184612acf565b92915050565b612b0281612abd565b8114612b0d57600080fd5b50565b600081359050612b1f81612af9565b92915050565b60008060408385031215612b3c57612b3b6128c3565b5b6000612b4a85828601612b10565b9250506020612b5b85828601612a5b565b9150509250929050565b600080600060608486031215612b7e57612b7d6128c3565b5b6000612b8c86828701612b10565b9350506020612b9d86828701612b10565b9250506040612bae86828701612a5b565b9150509250925092565b600080fd5b600080fd5b7f4e487b7100000000000000000000000000000000000000000000000000000000600052604160045260246000fd5b612bfa826129ce565b810181811067ffffffffffffffff82111715612c1957612c18612bc2565b5b80604052505050565b6000612c2c6128b9565b9050612c388282612bf1565b919050565b600067ffffffffffffffff821115612c5857612c57612bc2565b5b612c61826129ce565b9050602081019050919050565b82818337600083830152505050565b6000612c90612c8b84612c3d565b612c22565b905082815260208101848484011115612cac57612cab612bbd565b5b612cb7848285612c6e565b509392505050565b600082601f830112612cd457612cd3612bb8565b5b8135612ce4848260208601612c7d565b91505092915050565b600060208284031215612d0357612d026128c3565b5b600082013567ffffffffffffffff811115612d2157612d206128c8565b5b612d2d84828501612cbf565b91505092915050565b612d3f81612a3a565b82525050565b6000602082019050612d5a6000830184612d36565b92915050565b600081519050919050565b600082825260208201905092915050565b6000819050602082019050919050565b612d9581612a3a565b82525050565b6000612da682612a9d565b9050919050565b612db681612d9b565b82525050565b612dc581612952565b82525050565b60c082016000820151612de16000850182612d8c565b506020820151612df46020850182612dad565b506040820151612e076040850182612dad565b506060820151612e1a6060850182612d8c565b506080820151612e2d6080850182612dbc565b5060a0820151612e4060a0850182612d8c565b50505050565b6000612e528383612dcb565b60c08301905092915050565b6000602082019050919050565b6000612e7682612d60565b612e808185612d6b565b9350612e8b83612d7c565b8060005b83811015612ebc578151612ea38882612e46565b9750612eae83612e5e565b925050600181019050612e8f565b5085935050505092915050565b60006020820190508181036000830152612ee38184612e6b565b905092915050565b600060208284031215612f0157612f006128c3565b5b6000612f0f84828501612b10565b91505092915050565b60c082016000820151612f2e6000850182612d8c565b506020820151612f416020850182612dad565b506040820151612f546040850182612dad565b506060820151612f676060850182612d8c565b506080820151612f7a6080850182612dbc565b5060a0820151612f8d60a0850182612d8c565b50505050565b600060c082019050612fa86000830184612f18565b92915050565b612fb781612952565b8114612fc257600080fd5b50565b600081359050612fd481612fae565b92915050565b60008060408385031215612ff157612ff06128c3565b5b6000612fff85828601612b10565b925050602061301085828601612fc5565b9150509250929050565b600067ffffffffffffffff82111561303557613034612bc2565b5b61303e826129ce565b9050602081019050919050565b600061305e6130598461301a565b612c22565b90508281526020810184848401111561307a57613079612bbd565b5b613085848285612c6e565b509392505050565b600082601f8301126130a2576130a1612bb8565b5b81356130b284826020860161304b565b91505092915050565b600080600080608085870312156130d5576130d46128c3565b5b60006130e387828801612b10565b94505060206130f487828801612b10565b935050604061310587828801612a5b565b925050606085013567ffffffffffffffff811115613126576131256128c8565b5b6131328782880161308d565b91505092959194509250565b600080600060608486031215613157576131566128c3565b5b600061316586828701612a5b565b935050602061317686828701612a5b565b925050604061318786828701612a5b565b9150509250925092565b600080604083850312156131a8576131a76128c3565b5b60006131b685828601612b10565b92505060206131c785828601612b10565b9150509250929050565b7f4e487b7100000000000000000000000000000000000000000000000000000000600052602260045260246000fd5b6000600282049050600182168061321857607f821691505b60208210810361322b5761322a6131d1565b5b50919050565b7f4552433732313a20617070726f76616c20746f2063757272656e74206f776e6560008201527f7200000000000000000000000000000000000000000000000000000000000000602082015250565b600061328d602183612993565b915061329882613231565b604082019050919050565b600060208201905081810360008301526132bc81613280565b9050919050565b7f4552433732313a20617070726f76652063616c6c6572206973206e6f7420746f60008201527f6b656e206f776e6572206f7220617070726f76656420666f7220616c6c000000602082015250565b600061331f603d83612993565b915061332a826132c3565b604082019050919050565b6000602082019050818103600083015261334e81613312565b9050919050565b7f4552433732313a2063616c6c6572206973206e6f7420746f6b656e206f776e6560008201527f72206f7220617070726f76656400000000000000000000000000000000000000602082015250565b60006133b1602d83612993565b91506133bc82613355565b604082019050919050565b600060208201905081810360008301526133e0816133a4565b9050919050565b7f4e487b7100000000000000000000000000000000000000000000000000000000600052601160045260246000fd5b600061342182612a3a565b915061342c83612a3a565b9250828201905080821115613444576134436133e7565b5b92915050565b6000819050919050565b6000819050919050565b600061347961347461346f8461344a565b613454565b612a3a565b9050919050565b6134898161345e565b82525050565b60006080820190506134a46000830187612acf565b6134b16020830186612acf565b6134be6040830185613480565b6134cb606083018461295e565b95945050505050565b60006134df82612a3a565b91507fffffffffffffffffffffffffffffffffffffffffffffffffffffffffffffffff8203613511576135106133e7565b5b600182019050919050565b7f4e487b7100000000000000000000000000000000000000000000000000000000600052603260045260246000fd5b7f4552433732313a20696e76616c696420746f6b656e2049440000000000000000600082015250565b6000613581601883612993565b915061358c8261354b565b602082019050919050565b600060208201905081810360008301526135b081613574565b9050919050565b7f4552433732313a2061646472657373207a65726f206973206e6f74206120766160008201527f6c6964206f776e65720000000000000000000000000000000000000000000000602082015250565b6000613613602983612993565b915061361e826135b7565b604082019050919050565b6000602082019050818103600083015261364281613606565b9050919050565b7f53616c652074696d652077617320656e64656400000000000000000000000000600082015250565b600061367f601383612993565b915061368a82613649565b602082019050919050565b600060208201905081810360008301526136ae81613672565b9050919050565b7f506c65617365207375626d6974207468652061736b696e67207072696365206960008201527f6e206f7264657220746f20636f6d706c65746520746865207075726368617365602082015250565b6000613711604083612993565b915061371c826136b5565b604082019050919050565b6000602082019050818103600083015261374081613704565b9050919050565b600081905092915050565b600061375d82612988565b6137678185613747565b93506137778185602086016129a4565b80840191505092915050565b600061378f8285613752565b915061379b8284613752565b91508190509392505050565b7f4552433732313a207472616e736665722066726f6d20696e636f72726563742060008201527f6f776e6572000000000000000000000000000000000000000000000000000000602082015250565b6000613803602583612993565b915061380e826137a7565b604082019050919050565b60006020820190508181036000830152613832816137f6565b9050919050565b7f4552433732313a207472616e7366657220746f20746865207a65726f2061646460008201527f7265737300000000000000000000000000000000000000000000000000000000602082015250565b6000613895602483612993565b91506138a082613839565b604082019050919050565b600060208201905081810360008301526138c481613888565b9050919050565b7f45524337323155524953746f726167653a2055524920736574206f66206e6f6e60008201527f6578697374656e7420746f6b656e000000000000000000000000000000000000602082015250565b6000613927602e83612993565b9150613932826138cb565b604082019050919050565b600060208201905081810360008301526139568161391a565b9050919050565b60008190508160005260206000209050919050565b60006020601f8301049050919050565b600082821b905092915050565b6000600883026139bf7fffffffffffffffffffffffffffffffffffffffffffffffffffffffffffffffff82613982565b6139c98683613982565b95508019841693508086168417925050509392505050565b60006139fc6139f76139f284612a3a565b613454565b612a3a565b9050919050565b6000819050919050565b613a16836139e1565b613a2a613a2282613a03565b84845461398f565b825550505050565b600090565b613a3f613a32565b613a4a818484613a0d565b505050565b5b81811015613a6e57613a63600082613a37565b600181019050613a50565b5050565b601f821115613ab357613a848161395d565b613a8d84613972565b81016020851015613a9c578190505b613ab0613aa885613972565b830182613a4f565b50505b505050565b600082821c905092915050565b6000613ad660001984600802613ab8565b1980831691505092915050565b6000613aef8383613ac5565b9150826002028217905092915050565b613b0882612988565b67ffffffffffffffff811115613b2157613b20612bc2565b5b613b2b8254613200565b613b36828285613a72565b600060209050601f831160018114613b695760008415613b57578287015190505b613b618582613ae3565b865550613bc9565b601f198416613b778661395d565b60005b82811015613b9f57848901518255600182019150602085019450602081019050613b7a565b86831015613bbc5784890151613bb8601f891682613ac5565b8355505b6001600288020188555050505b505050505050565b7f4552433732313a20617070726f766520746f2063616c6c657200000000000000600082015250565b6000613c07601983612993565b9150613c1282613bd1565b602082019050919050565b60006020820190508181036000830152613c3681613bfa565b9050919050565b7f4552433732313a207472616e7366657220746f206e6f6e20455243373231526560008201527f63656976657220696d706c656d656e7465720000000000000000000000000000602082015250565b6000613c99603283612993565b9150613ca482613c3d565b604082019050919050565b60006020820190508181036000830152613cc881613c8c565b9050919050565b7f486f706566756c6c792073656e64696e672074686520636f727265637420707260008201527f6963650000000000000000000000000000000000000000000000000000000000602082015250565b6000613d2b602383612993565b9150613d3682613ccf565b604082019050919050565b60006020820190508181036000830152613d5a81613d1e565b9050919050565b7f4d616b652073757265207468652070726963652069736e2774206e656761746960008201527f7665000000000000000000000000000000000000000000000000000000000000602082015250565b6000613dbd602283612993565b9150613dc882613d61565b604082019050919050565b60006020820190508181036000830152613dec81613db0565b9050919050565b7f4e4654732068617665206c697374656400000000000000000000000000000000600082015250565b6000613e29601083612993565b9150613e3482613df3565b602082019050919050565b60006020820190508181036000830152613e5881613e1c565b9050919050565b6000608082019050613e746000830187612acf565b613e816020830186612acf565b613e8e6040830185612d36565b613e9b606083018461295e565b95945050505050565b600081519050919050565b600082825260208201905092915050565b6000613ecb82613ea4565b613ed58185613eaf565b9350613ee58185602086016129a4565b613eee816129ce565b840191505092915050565b6000608082019050613f0e6000830187612acf565b613f1b6020830186612acf565b613f286040830185612d36565b8181036060830152613f3a8184613ec0565b905095945050505050565b600081519050613f54816128f9565b92915050565b600060208284031215613f7057613f6f6128c3565b5b6000613f7e84828501613f45565b91505092915050565b7f4e487b7100000000000000000000000000000000000000000000000000000000600052601260045260246000fd5b7f4552433732313a206d696e7420746f20746865207a65726f2061646472657373600082015250565b6000613fec602083612993565b9150613ff782613fb6565b602082019050919050565b6000602082019050818103600083015261401b81613fdf565b9050919050565b7f4552433732313a20746f6b656e20616c7265616479206d696e74656400000000600082015250565b6000614058601c83612993565b915061406382614022565b602082019050919050565b600060208201905081810360008301526140878161404b565b905091905056fea2646970667358221220ac91256bad2c93e27613a91cc7c940cb915a37fd28e0df54324ce8cd183cc96e64736f6c63430008130033",
  "linkReferences": {},
  "deployedLinkReferences": {}
}