{
  "_format": "hh-sol-artifact-1",
  "contractName": "NFTMarketplace",
  "sourceName": "contracts/Marketplace.sol",
  "abi": [
    {
      "inputs": [],
      "stateMutability": "nonpayable",
      "type": "constructor"
    },
    {
      "anonymous": false,
      "inputs": [
        {
          "indexed": true,
          "internalType": "address",
          "name": "owner",
          "type": "address"
        },
        {
          "indexed": true,
          "internalType": "address",
          "name": "approved",
          "type": "address"
        },
        {
          "indexed": true,
          "internalType": "uint256",
          "name": "tokenId",
          "type": "uint256"
        }
      ],
      "name": "Approval",
      "type": "event"
    },
    {
      "anonymous": false,
      "inputs": [
        {
          "indexed": true,
          "internalType": "address",
          "name": "owner",
          "type": "address"
        },
        {
          "indexed": true,
          "internalType": "address",
          "name": "operator",
          "type": "address"
        },
        {
          "indexed": false,
          "internalType": "bool",
          "name": "approved",
          "type": "bool"
        }
      ],
      "name": "ApprovalForAll",
      "type": "event"
    },
    {
      "anonymous": false,
      "inputs": [
        {
          "indexed": false,
          "internalType": "uint256",
          "name": "_fromTokenId",
          "type": "uint256"
        },
        {
          "indexed": false,
          "internalType": "uint256",
          "name": "_toTokenId",
          "type": "uint256"
        }
      ],
      "name": "BatchMetadataUpdate",
      "type": "event"
    },
    {
      "anonymous": false,
      "inputs": [
        {
          "indexed": false,
          "internalType": "uint256",
          "name": "_tokenId",
          "type": "uint256"
        }
      ],
      "name": "MetadataUpdate",
      "type": "event"
    },
    {
      "anonymous": false,
      "inputs": [
        {
          "indexed": true,
          "internalType": "uint256",
          "name": "tokenId",
          "type": "uint256"
        },
        {
          "indexed": false,
          "internalType": "address",
          "name": "owner",
          "type": "address"
        },
        {
          "indexed": false,
          "internalType": "address",
          "name": "seller",
          "type": "address"
        },
        {
          "indexed": false,
          "internalType": "uint256",
          "name": "price",
          "type": "uint256"
        },
        {
          "indexed": false,
          "internalType": "bool",
          "name": "currentlyListed",
          "type": "bool"
        }
      ],
      "name": "TokenListedSuccess",
      "type": "event"
    },
    {
      "anonymous": false,
      "inputs": [
        {
          "indexed": true,
          "internalType": "address",
          "name": "from",
          "type": "address"
        },
        {
          "indexed": true,
          "internalType": "address",
          "name": "to",
          "type": "address"
        },
        {
          "indexed": true,
          "internalType": "uint256",
          "name": "tokenId",
          "type": "uint256"
        }
      ],
      "name": "Transfer",
      "type": "event"
    },
    {
      "stateMutability": "payable",
      "type": "fallback"
    },
    {
      "inputs": [
        {
          "internalType": "address",
          "name": "to",
          "type": "address"
        },
        {
          "internalType": "uint256",
          "name": "tokenId",
          "type": "uint256"
        }
      ],
      "name": "approve",
      "outputs": [],
      "stateMutability": "nonpayable",
      "type": "function"
    },
    {
      "inputs": [
        {
          "internalType": "address",
          "name": "owner",
          "type": "address"
        }
      ],
      "name": "balanceOf",
      "outputs": [
        {
          "internalType": "uint256",
          "name": "",
          "type": "uint256"
        }
      ],
      "stateMutability": "view",
      "type": "function"
    },
    {
      "inputs": [
        {
          "internalType": "string",
          "name": "tokenURI",
          "type": "string"
        }
      ],
      "name": "createToken",
      "outputs": [
        {
          "internalType": "uint256",
          "name": "",
          "type": "uint256"
        }
      ],
      "stateMutability": "nonpayable",
      "type": "function"
    },
    {
      "inputs": [
        {
          "internalType": "uint256",
          "name": "tokenId",
          "type": "uint256"
        }
      ],
      "name": "executeSale",
      "outputs": [],
      "stateMutability": "payable",
      "type": "function"
    },
    {
      "inputs": [],
      "name": "getAllNFTs",
      "outputs": [
        {
          "components": [
            {
              "internalType": "uint256",
              "name": "tokenId",
              "type": "uint256"
            },
            {
              "internalType": "address payable",
              "name": "owner",
              "type": "address"
            },
            {
              "internalType": "address payable",
              "name": "seller",
              "type": "address"
            },
            {
              "internalType": "uint256",
              "name": "price",
              "type": "uint256"
            },
            {
              "internalType": "bool",
              "name": "currentlyListed",
              "type": "bool"
            }
          ],
          "internalType": "struct NFTMarketplace.ListedToken[]",
          "name": "",
          "type": "tuple[]"
        }
      ],
      "stateMutability": "view",
      "type": "function"
    },
    {
      "inputs": [
        {
          "internalType": "uint256",
          "name": "tokenId",
          "type": "uint256"
        }
      ],
      "name": "getApproved",
      "outputs": [
        {
          "internalType": "address",
          "name": "",
          "type": "address"
        }
      ],
      "stateMutability": "view",
      "type": "function"
    },
    {
      "inputs": [],
      "name": "getMyNFTs",
      "outputs": [
        {
          "components": [
            {
              "internalType": "uint256",
              "name": "tokenId",
              "type": "uint256"
            },
            {
              "internalType": "address payable",
              "name": "owner",
              "type": "address"
            },
            {
              "internalType": "address payable",
              "name": "seller",
              "type": "address"
            },
            {
              "internalType": "uint256",
              "name": "price",
              "type": "uint256"
            },
            {
              "internalType": "bool",
              "name": "currentlyListed",
              "type": "bool"
            }
          ],
          "internalType": "struct NFTMarketplace.ListedToken[]",
          "name": "",
          "type": "tuple[]"
        }
      ],
      "stateMutability": "view",
      "type": "function"
    },
    {
      "inputs": [
        {
          "internalType": "address",
          "name": "owner",
          "type": "address"
        },
        {
          "internalType": "address",
          "name": "operator",
          "type": "address"
        }
      ],
      "name": "isApprovedForAll",
      "outputs": [
        {
          "internalType": "bool",
          "name": "",
          "type": "bool"
        }
      ],
      "stateMutability": "view",
      "type": "function"
    },
    {
      "inputs": [
        {
          "internalType": "uint256",
          "name": "tokenId",
          "type": "uint256"
        },
        {
          "internalType": "uint256",
          "name": "price",
          "type": "uint256"
        }
      ],
      "name": "listToken",
      "outputs": [],
      "stateMutability": "payable",
      "type": "function"
    },
    {
      "inputs": [],
      "name": "name",
      "outputs": [
        {
          "internalType": "string",
          "name": "",
          "type": "string"
        }
      ],
      "stateMutability": "view",
      "type": "function"
    },
    {
      "inputs": [
        {
          "internalType": "uint256",
          "name": "tokenId",
          "type": "uint256"
        }
      ],
      "name": "ownerOf",
      "outputs": [
        {
          "internalType": "address",
          "name": "",
          "type": "address"
        }
      ],
      "stateMutability": "view",
      "type": "function"
    },
    {
      "inputs": [
        {
          "internalType": "address",
          "name": "from",
          "type": "address"
        },
        {
          "internalType": "address",
          "name": "to",
          "type": "address"
        },
        {
          "internalType": "uint256",
          "name": "tokenId",
          "type": "uint256"
        }
      ],
      "name": "safeTransferFrom",
      "outputs": [],
      "stateMutability": "nonpayable",
      "type": "function"
    },
    {
      "inputs": [
        {
          "internalType": "address",
          "name": "from",
          "type": "address"
        },
        {
          "internalType": "address",
          "name": "to",
          "type": "address"
        },
        {
          "internalType": "uint256",
          "name": "tokenId",
          "type": "uint256"
        },
        {
          "internalType": "bytes",
          "name": "data",
          "type": "bytes"
        }
      ],
      "name": "safeTransferFrom",
      "outputs": [],
      "stateMutability": "nonpayable",
      "type": "function"
    },
    {
      "inputs": [
        {
          "internalType": "address",
          "name": "operator",
          "type": "address"
        },
        {
          "internalType": "bool",
          "name": "approved",
          "type": "bool"
        }
      ],
      "name": "setApprovalForAll",
      "outputs": [],
      "stateMutability": "nonpayable",
      "type": "function"
    },
    {
      "inputs": [
        {
          "internalType": "bytes4",
          "name": "interfaceId",
          "type": "bytes4"
        }
      ],
      "name": "supportsInterface",
      "outputs": [
        {
          "internalType": "bool",
          "name": "",
          "type": "bool"
        }
      ],
      "stateMutability": "view",
      "type": "function"
    },
    {
      "inputs": [],
      "name": "symbol",
      "outputs": [
        {
          "internalType": "string",
          "name": "",
          "type": "string"
        }
      ],
      "stateMutability": "view",
      "type": "function"
    },
    {
      "inputs": [
        {
          "internalType": "uint256",
          "name": "tokenId",
          "type": "uint256"
        }
      ],
      "name": "tokenURI",
      "outputs": [
        {
          "internalType": "string",
          "name": "",
          "type": "string"
        }
      ],
      "stateMutability": "view",
      "type": "function"
    },
    {
      "inputs": [
        {
          "internalType": "address",
          "name": "from",
          "type": "address"
        },
        {
          "internalType": "address",
          "name": "to",
          "type": "address"
        },
        {
          "internalType": "uint256",
          "name": "tokenId",
          "type": "uint256"
        }
      ],
      "name": "transferFrom",
      "outputs": [],
      "stateMutability": "nonpayable",
      "type": "function"
    },
    {
      "inputs": [
        {
          "internalType": "uint256",
          "name": "tokenId",
          "type": "uint256"
        }
      ],
      "name": "unListToken",
      "outputs": [],
      "stateMutability": "payable",
      "type": "function"
    },
    {
      "stateMutability": "payable",
      "type": "receive"
    }
  ],
  "bytecode": "0x6080604052662386f26fc10000600a553480156200001c57600080fd5b506040518060400160405280601281526020017f4b69636b6574204d61726b6574706c61636500000000000000000000000000008152506040518060400160405280600581526020017f4b45544d4b00000000000000000000000000000000000000000000000000000081525081600090816200009a919062000370565b508060019081620000ac919062000370565b50505033600960006101000a81548173ffffffffffffffffffffffffffffffffffffffff021916908373ffffffffffffffffffffffffffffffffffffffff16021790555062000457565b600081519050919050565b7f4e487b7100000000000000000000000000000000000000000000000000000000600052604160045260246000fd5b7f4e487b7100000000000000000000000000000000000000000000000000000000600052602260045260246000fd5b600060028204905060018216806200017857607f821691505b6020821081036200018e576200018d62000130565b5b50919050565b60008190508160005260206000209050919050565b60006020601f8301049050919050565b600082821b905092915050565b600060088302620001f87fffffffffffffffffffffffffffffffffffffffffffffffffffffffffffffffff82620001b9565b620002048683620001b9565b95508019841693508086168417925050509392505050565b6000819050919050565b6000819050919050565b6000620002516200024b62000245846200021c565b62000226565b6200021c565b9050919050565b6000819050919050565b6200026d8362000230565b620002856200027c8262000258565b848454620001c6565b825550505050565b600090565b6200029c6200028d565b620002a981848462000262565b505050565b5b81811015620002d157620002c560008262000292565b600181019050620002af565b5050565b601f8211156200032057620002ea8162000194565b620002f584620001a9565b8101602085101562000305578190505b6200031d6200031485620001a9565b830182620002ae565b50505b505050565b600082821c905092915050565b6000620003456000198460080262000325565b1980831691505092915050565b600062000360838362000332565b9150826002028217905092915050565b6200037b82620000f6565b67ffffffffffffffff81111562000397576200039662000101565b5b620003a382546200015f565b620003b0828285620002d5565b600060209050601f831160018114620003e85760008415620003d3578287015190505b620003df858262000352565b8655506200044f565b601f198416620003f88662000194565b60005b828110156200042257848901518255600182019150602085019450602081019050620003fb565b868310156200044257848901516200043e601f89168262000332565b8355505b6001600288020188555050505b505050505050565b613d2980620004676000396000f3fe6080604052600436106101185760003560e01c806370a08231116100a0578063b88d4fde11610064578063b88d4fde146103af578063c87b56dd146103d8578063e0391b0914610415578063e985e9c514610440578063f9a617841461047d5761011f565b806370a08231146102e657806375c1631d1461032357806395d89b411461033f5780639b1225c41461036a578063a22cb465146103865761011f565b806323b872dd116100e757806323b872dd146101ef57806342842e0e1461021857806345576f9414610241578063629cb2e41461027e5780636352211e146102a95761011f565b806301ffc9a71461012157806306fdde031461015e578063081812fc14610189578063095ea7b3146101c65761011f565b3661011f57005b005b34801561012d57600080fd5b506101486004803603810190610143919061271e565b610499565b6040516101559190612766565b60405180910390f35b34801561016a57600080fd5b506101736104fa565b6040516101809190612811565b60405180910390f35b34801561019557600080fd5b506101b060048036038101906101ab9190612869565b61058c565b6040516101bd91906128d7565b60405180910390f35b3480156101d257600080fd5b506101ed60048036038101906101e8919061291e565b6105d2565b005b3480156101fb57600080fd5b506102166004803603810190610211919061295e565b6106e9565b005b34801561022457600080fd5b5061023f600480360381019061023a919061295e565b610749565b005b34801561024d57600080fd5b5061026860048036038101906102639190612ae6565b610769565b6040516102759190612b3e565b60405180910390f35b34801561028a57600080fd5b50610293610917565b6040516102a09190612caf565b60405180910390f35b3480156102b557600080fd5b506102d060048036038101906102cb9190612869565b610cee565b6040516102dd91906128d7565b60405180910390f35b3480156102f257600080fd5b5061030d60048036038101906103089190612cd1565b610d74565b60405161031a9190612b3e565b60405180910390f35b61033d60048036038101906103389190612cfe565b610e2b565b005b34801561034b57600080fd5b50610354610e39565b6040516103619190612811565b60405180910390f35b610384600480360381019061037f9190612869565b610ecb565b005b34801561039257600080fd5b506103ad60048036038101906103a89190612d6a565b6110cd565b005b3480156103bb57600080fd5b506103d660048036038101906103d19190612e4b565b6110e3565b005b3480156103e457600080fd5b506103ff60048036038101906103fa9190612869565b611145565b60405161040c9190612811565b60405180910390f35b34801561042157600080fd5b5061042a611257565b6040516104379190612caf565b60405180910390f35b34801561044c57600080fd5b5061046760048036038101906104629190612ece565b611449565b6040516104749190612766565b60405180910390f35b61049760048036038101906104929190612869565b6114dd565b005b6000634906490660e01b7bffffffffffffffffffffffffffffffffffffffffffffffffffffffff1916827bffffffffffffffffffffffffffffffffffffffffffffffffffffffff191614806104f357506104f28261150f565b5b9050919050565b60606000805461050990612f3d565b80601f016020809104026020016040519081016040528092919081815260200182805461053590612f3d565b80156105825780601f1061055757610100808354040283529160200191610582565b820191906000526020600020905b81548152906001019060200180831161056557829003601f168201915b5050505050905090565b6000610597826115f1565b6004600083815260200190815260200160002060009054906101000a900473ffffffffffffffffffffffffffffffffffffffff169050919050565b60006105dd82610cee565b90508073ffffffffffffffffffffffffffffffffffffffff168373ffffffffffffffffffffffffffffffffffffffff160361064d576040517f08c379a000000000000000000000000000000000000000000000000000000000815260040161064490612fe0565b60405180910390fd5b8073ffffffffffffffffffffffffffffffffffffffff1661066c61163c565b73ffffffffffffffffffffffffffffffffffffffff16148061069b575061069a8161069561163c565b611449565b5b6106da576040517f08c379a00000000000000000000000000000000000000000000000000000000081526004016106d190613072565b60405180910390fd5b6106e48383611644565b505050565b6106fa6106f461163c565b826116fd565b610739576040517f08c379a000000000000000000000000000000000000000000000000000000000815260040161073090613104565b60405180910390fd5b610744838383611792565b505050565b610764838383604051806020016040528060008152506110e3565b505050565b600060016007600082825461077e9190613153565b92505081905550600060075490506107963382611a8b565b6107a08184611ca8565b6040518060a001604052808281526020013073ffffffffffffffffffffffffffffffffffffffff1681526020013373ffffffffffffffffffffffffffffffffffffffff1681526020016000815260200160001515815250600b60008381526020019081526020016000206000820151816000015560208201518160010160006101000a81548173ffffffffffffffffffffffffffffffffffffffff021916908373ffffffffffffffffffffffffffffffffffffffff16021790555060408201518160020160006101000a81548173ffffffffffffffffffffffffffffffffffffffff021916908373ffffffffffffffffffffffffffffffffffffffff1602179055506060820151816003015560808201518160040160006101000a81548160ff021916908315150217905550905050807f9339409317fd01fabff48b703019016f49159bacc801ae872d2ca637d226e4c0303360008060405161090694939291906131cc565b60405180910390a280915050919050565b60606000600754905060008060005b83811015610a3f573373ffffffffffffffffffffffffffffffffffffffff16600b60006001846109569190613153565b815260200190815260200160002060010160009054906101000a900473ffffffffffffffffffffffffffffffffffffffff1673ffffffffffffffffffffffffffffffffffffffff161480610a1757503373ffffffffffffffffffffffffffffffffffffffff16600b60006001846109cd9190613153565b815260200190815260200160002060020160009054906101000a900473ffffffffffffffffffffffffffffffffffffffff1673ffffffffffffffffffffffffffffffffffffffff16145b15610a2c57600183610a299190613153565b92505b8080610a3790613211565b915050610926565b5060008267ffffffffffffffff811115610a5c57610a5b6129bb565b5b604051908082528060200260200182016040528015610a9557816020015b610a82612655565b815260200190600190039081610a7a5790505b50905060005b84811015610ce3573373ffffffffffffffffffffffffffffffffffffffff16600b6000600184610acb9190613153565b815260200190815260200160002060010160009054906101000a900473ffffffffffffffffffffffffffffffffffffffff1673ffffffffffffffffffffffffffffffffffffffff161480610b8c57503373ffffffffffffffffffffffffffffffffffffffff16600b6000600184610b429190613153565b815260200190815260200160002060020160009054906101000a900473ffffffffffffffffffffffffffffffffffffffff1673ffffffffffffffffffffffffffffffffffffffff16145b15610cd0576000600182610ba09190613153565b90506000600b60008381526020019081526020016000209050806040518060a0016040529081600082015481526020016001820160009054906101000a900473ffffffffffffffffffffffffffffffffffffffff1673ffffffffffffffffffffffffffffffffffffffff1673ffffffffffffffffffffffffffffffffffffffff1681526020016002820160009054906101000a900473ffffffffffffffffffffffffffffffffffffffff1673ffffffffffffffffffffffffffffffffffffffff1673ffffffffffffffffffffffffffffffffffffffff168152602001600382015481526020016004820160009054906101000a900460ff161515151581525050848681518110610cb357610cb2613259565b5b6020026020010181905250600185610ccb9190613153565b945050505b8080610cdb90613211565b915050610a9b565b508094505050505090565b600080610cfa83611d4c565b9050600073ffffffffffffffffffffffffffffffffffffffff168173ffffffffffffffffffffffffffffffffffffffff1603610d6b576040517f08c379a0000000000000000000000000000000000000000000000000000000008152600401610d62906132d4565b60405180910390fd5b80915050919050565b60008073ffffffffffffffffffffffffffffffffffffffff168273ffffffffffffffffffffffffffffffffffffffff1603610de4576040517f08c379a0000000000000000000000000000000000000000000000000000000008152600401610ddb90613366565b60405180910390fd5b600360008373ffffffffffffffffffffffffffffffffffffffff1673ffffffffffffffffffffffffffffffffffffffff168152602001908152602001600020549050919050565b610e358282611d89565b5050565b606060018054610e4890612f3d565b80601f0160208091040260200160405190810160405280929190818152602001828054610e7490612f3d565b8015610ec15780601f10610e9657610100808354040283529160200191610ec1565b820191906000526020600020905b815481529060010190602001808311610ea457829003601f168201915b5050505050905090565b6000600b60008381526020019081526020016000206003015490506000600b600084815260200190815260200160002060020160009054906101000a900473ffffffffffffffffffffffffffffffffffffffff169050813414610f63576040517f08c379a0000000000000000000000000000000000000000000000000000000008152600401610f5a906133f8565b60405180910390fd5b6001600b600085815260200190815260200160002060040160006101000a81548160ff02191690831515021790555033600b600085815260200190815260200160002060020160006101000a81548173ffffffffffffffffffffffffffffffffffffffff021916908373ffffffffffffffffffffffffffffffffffffffff160217905550600160086000828254610ffa9190613153565b9250508190555061100c303385611792565b61101630846105d2565b600960009054906101000a900473ffffffffffffffffffffffffffffffffffffffff1673ffffffffffffffffffffffffffffffffffffffff166108fc600a549081150290604051600060405180830381858888f19350505050158015611080573d6000803e3d6000fd5b508073ffffffffffffffffffffffffffffffffffffffff166108fc349081150290604051600060405180830381858888f193505050501580156110c7573d6000803e3d6000fd5b50505050565b6110df6110d861163c565b8383611f8c565b5050565b6110f46110ee61163c565b836116fd565b611133576040517f08c379a000000000000000000000000000000000000000000000000000000000815260040161112a90613104565b60405180910390fd5b61113f848484846120f8565b50505050565b6060611150826115f1565b600060066000848152602001908152602001600020805461117090612f3d565b80601f016020809104026020016040519081016040528092919081815260200182805461119c90612f3d565b80156111e95780601f106111be576101008083540402835291602001916111e9565b820191906000526020600020905b8154815290600101906020018083116111cc57829003601f168201915b5050505050905060006111fa612154565b9050600081510361120f578192505050611252565b60008251111561124457808260405160200161122c929190613454565b60405160208183030381529060405292505050611252565b61124d8461216b565b925050505b919050565b60606000600754905060008167ffffffffffffffff81111561127c5761127b6129bb565b5b6040519080825280602002602001820160405280156112b557816020015b6112a2612655565b81526020019060019003908161129a5790505b5090506000805b8381101561143f5760006001826112d39190613153565b9050600b600082815260200190815260200160002060040160009054906101000a900460ff161561142b576000600b60008381526020019081526020016000209050806040518060a0016040529081600082015481526020016001820160009054906101000a900473ffffffffffffffffffffffffffffffffffffffff1673ffffffffffffffffffffffffffffffffffffffff1673ffffffffffffffffffffffffffffffffffffffff1681526020016002820160009054906101000a900473ffffffffffffffffffffffffffffffffffffffff1673ffffffffffffffffffffffffffffffffffffffff1673ffffffffffffffffffffffffffffffffffffffff168152602001600382015481526020016004820160009054906101000a900460ff16151515158152505085858151811061140f5761140e613259565b5b60200260200101819052506001846114279190613153565b9350505b50808061143790613211565b9150506112bc565b5081935050505090565b6000600560008473ffffffffffffffffffffffffffffffffffffffff1673ffffffffffffffffffffffffffffffffffffffff16815260200190815260200160002060008373ffffffffffffffffffffffffffffffffffffffff1673ffffffffffffffffffffffffffffffffffffffff16815260200190815260200160002060009054906101000a900460ff16905092915050565b6000600b600083815260200190815260200160002060040160006101000a81548160ff02191690831515021790555050565b60007f80ac58cd000000000000000000000000000000000000000000000000000000007bffffffffffffffffffffffffffffffffffffffffffffffffffffffff1916827bffffffffffffffffffffffffffffffffffffffffffffffffffffffff191614806115da57507f5b5e139f000000000000000000000000000000000000000000000000000000007bffffffffffffffffffffffffffffffffffffffffffffffffffffffff1916827bffffffffffffffffffffffffffffffffffffffffffffffffffffffff1916145b806115ea57506115e9826121d3565b5b9050919050565b6115fa8161223d565b611639576040517f08c379a0000000000000000000000000000000000000000000000000000000008152600401611630906132d4565b60405180910390fd5b50565b600033905090565b816004600083815260200190815260200160002060006101000a81548173ffffffffffffffffffffffffffffffffffffffff021916908373ffffffffffffffffffffffffffffffffffffffff160217905550808273ffffffffffffffffffffffffffffffffffffffff166116b783610cee565b73ffffffffffffffffffffffffffffffffffffffff167f8c5be1e5ebec7d5bd14f71427d1e84f3dd0314c0f7b2291e5b200ac8c7c3b92560405160405180910390a45050565b60008061170983610cee565b90508073ffffffffffffffffffffffffffffffffffffffff168473ffffffffffffffffffffffffffffffffffffffff16148061174b575061174a8185611449565b5b8061178957508373ffffffffffffffffffffffffffffffffffffffff166117718461058c565b73ffffffffffffffffffffffffffffffffffffffff16145b91505092915050565b8273ffffffffffffffffffffffffffffffffffffffff166117b282610cee565b73ffffffffffffffffffffffffffffffffffffffff1614611808576040517f08c379a00000000000000000000000000000000000000000000000000000000081526004016117ff906134ea565b60405180910390fd5b600073ffffffffffffffffffffffffffffffffffffffff168273ffffffffffffffffffffffffffffffffffffffff1603611877576040517f08c379a000000000000000000000000000000000000000000000000000000000815260040161186e9061357c565b60405180910390fd5b611884838383600161227e565b8273ffffffffffffffffffffffffffffffffffffffff166118a482610cee565b73ffffffffffffffffffffffffffffffffffffffff16146118fa576040517f08c379a00000000000000000000000000000000000000000000000000000000081526004016118f1906134ea565b60405180910390fd5b6004600082815260200190815260200160002060006101000a81549073ffffffffffffffffffffffffffffffffffffffff02191690556001600360008573ffffffffffffffffffffffffffffffffffffffff1673ffffffffffffffffffffffffffffffffffffffff168152602001908152602001600020600082825403925050819055506001600360008473ffffffffffffffffffffffffffffffffffffffff1673ffffffffffffffffffffffffffffffffffffffff16815260200190815260200160002060008282540192505081905550816002600083815260200190815260200160002060006101000a81548173ffffffffffffffffffffffffffffffffffffffff021916908373ffffffffffffffffffffffffffffffffffffffff160217905550808273ffffffffffffffffffffffffffffffffffffffff168473ffffffffffffffffffffffffffffffffffffffff167fddf252ad1be2c89b69c2b068fc378daa952ba7f163c4a11628f55a4df523b3ef60405160405180910390a4611a868383836001612284565b505050565b600073ffffffffffffffffffffffffffffffffffffffff168273ffffffffffffffffffffffffffffffffffffffff1603611afa576040517f08c379a0000000000000000000000000000000000000000000000000000000008152600401611af1906135e8565b60405180910390fd5b611b038161223d565b15611b43576040517f08c379a0000000000000000000000000000000000000000000000000000000008152600401611b3a90613654565b60405180910390fd5b611b5160008383600161227e565b611b5a8161223d565b15611b9a576040517f08c379a0000000000000000000000000000000000000000000000000000000008152600401611b9190613654565b60405180910390fd5b6001600360008473ffffffffffffffffffffffffffffffffffffffff1673ffffffffffffffffffffffffffffffffffffffff16815260200190815260200160002060008282540192505081905550816002600083815260200190815260200160002060006101000a81548173ffffffffffffffffffffffffffffffffffffffff021916908373ffffffffffffffffffffffffffffffffffffffff160217905550808273ffffffffffffffffffffffffffffffffffffffff16600073ffffffffffffffffffffffffffffffffffffffff167fddf252ad1be2c89b69c2b068fc378daa952ba7f163c4a11628f55a4df523b3ef60405160405180910390a4611ca4600083836001612284565b5050565b611cb18261223d565b611cf0576040517f08c379a0000000000000000000000000000000000000000000000000000000008152600401611ce7906136e6565b60405180910390fd5b80600660008481526020019081526020016000209081611d1091906138a8565b507ff8e1a15aba9398e019f0b49df1a4fde98ee17ae345cb5f6b5e2c27f5033e8ce782604051611d409190612b3e565b60405180910390a15050565b60006002600083815260200190815260200160002060009054906101000a900473ffffffffffffffffffffffffffffffffffffffff169050919050565b600a543414611dcd576040517f08c379a0000000000000000000000000000000000000000000000000000000008152600401611dc4906139ec565b60405180910390fd5b60008111611e10576040517f08c379a0000000000000000000000000000000000000000000000000000000008152600401611e0790613a7e565b60405180910390fd5b6040518060a001604052808381526020013073ffffffffffffffffffffffffffffffffffffffff1681526020013373ffffffffffffffffffffffffffffffffffffffff16815260200182815260200160011515815250600b60008481526020019081526020016000206000820151816000015560208201518160010160006101000a81548173ffffffffffffffffffffffffffffffffffffffff021916908373ffffffffffffffffffffffffffffffffffffffff16021790555060408201518160020160006101000a81548173ffffffffffffffffffffffffffffffffffffffff021916908373ffffffffffffffffffffffffffffffffffffffff1602179055506060820151816003015560808201518160040160006101000a81548160ff021916908315150217905550905050611f49333084611792565b817f9339409317fd01fabff48b703019016f49159bacc801ae872d2ca637d226e4c03033846001604051611f809493929190613a9e565b60405180910390a25050565b8173ffffffffffffffffffffffffffffffffffffffff168373ffffffffffffffffffffffffffffffffffffffff1603611ffa576040517f08c379a0000000000000000000000000000000000000000000000000000000008152600401611ff190613b2f565b60405180910390fd5b80600560008573ffffffffffffffffffffffffffffffffffffffff1673ffffffffffffffffffffffffffffffffffffffff16815260200190815260200160002060008473ffffffffffffffffffffffffffffffffffffffff1673ffffffffffffffffffffffffffffffffffffffff16815260200190815260200160002060006101000a81548160ff0219169083151502179055508173ffffffffffffffffffffffffffffffffffffffff168373ffffffffffffffffffffffffffffffffffffffff167f17307eab39ab6107e8899845ad3d59bd9653f200f220920489ca2b5937696c31836040516120eb9190612766565b60405180910390a3505050565b612103848484611792565b61210f8484848461228a565b61214e576040517f08c379a000000000000000000000000000000000000000000000000000000000815260040161214590613bc1565b60405180910390fd5b50505050565b606060405180602001604052806000815250905090565b6060612176826115f1565b6000612180612154565b905060008151116121a057604051806020016040528060008152506121cb565b806121aa84612411565b6040516020016121bb929190613454565b6040516020818303038152906040525b915050919050565b60007f01ffc9a7000000000000000000000000000000000000000000000000000000007bffffffffffffffffffffffffffffffffffffffffffffffffffffffff1916827bffffffffffffffffffffffffffffffffffffffffffffffffffffffff1916149050919050565b60008073ffffffffffffffffffffffffffffffffffffffff1661225f83611d4c565b73ffffffffffffffffffffffffffffffffffffffff1614159050919050565b50505050565b50505050565b60006122ab8473ffffffffffffffffffffffffffffffffffffffff166124df565b15612404578373ffffffffffffffffffffffffffffffffffffffff1663150b7a026122d461163c565b8786866040518563ffffffff1660e01b81526004016122f69493929190613c36565b6020604051808303816000875af192505050801561233257506040513d601f19601f8201168201806040525081019061232f9190613c97565b60015b6123b4573d8060008114612362576040519150601f19603f3d011682016040523d82523d6000602084013e612367565b606091505b5060008151036123ac576040517f08c379a00000000000000000000000000000000000000000000000000000000081526004016123a390613bc1565b60405180910390fd5b805181602001fd5b63150b7a0260e01b7bffffffffffffffffffffffffffffffffffffffffffffffffffffffff1916817bffffffffffffffffffffffffffffffffffffffffffffffffffffffff191614915050612409565b600190505b949350505050565b60606000600161242084612502565b01905060008167ffffffffffffffff81111561243f5761243e6129bb565b5b6040519080825280601f01601f1916602001820160405280156124715781602001600182028036833780820191505090505b509050600082602001820190505b6001156124d4578080600190039150507f3031323334353637383961626364656600000000000000000000000000000000600a86061a8153600a85816124c8576124c7613cc4565b5b0494506000850361247f575b819350505050919050565b6000808273ffffffffffffffffffffffffffffffffffffffff163b119050919050565b600080600090507a184f03e93ff9f4daa797ed6e38ed64bf6a1f0100000000000000008310612560577a184f03e93ff9f4daa797ed6e38ed64bf6a1f010000000000000000838161255657612555613cc4565b5b0492506040810190505b6d04ee2d6d415b85acef8100000000831061259d576d04ee2d6d415b85acef8100000000838161259357612592613cc4565b5b0492506020810190505b662386f26fc1000083106125cc57662386f26fc1000083816125c2576125c1613cc4565b5b0492506010810190505b6305f5e10083106125f5576305f5e10083816125eb576125ea613cc4565b5b0492506008810190505b612710831061261a5761271083816126105761260f613cc4565b5b0492506004810190505b6064831061263d576064838161263357612632613cc4565b5b0492506002810190505b600a831061264c576001810190505b80915050919050565b6040518060a0016040528060008152602001600073ffffffffffffffffffffffffffffffffffffffff168152602001600073ffffffffffffffffffffffffffffffffffffffff168152602001600081526020016000151581525090565b6000604051905090565b600080fd5b600080fd5b60007fffffffff0000000000000000000000000000000000000000000000000000000082169050919050565b6126fb816126c6565b811461270657600080fd5b50565b600081359050612718816126f2565b92915050565b600060208284031215612734576127336126bc565b5b600061274284828501612709565b91505092915050565b60008115159050919050565b6127608161274b565b82525050565b600060208201905061277b6000830184612757565b92915050565b600081519050919050565b600082825260208201905092915050565b60005b838110156127bb5780820151818401526020810190506127a0565b60008484015250505050565b6000601f19601f8301169050919050565b60006127e382612781565b6127ed818561278c565b93506127fd81856020860161279d565b612806816127c7565b840191505092915050565b6000602082019050818103600083015261282b81846127d8565b905092915050565b6000819050919050565b61284681612833565b811461285157600080fd5b50565b6000813590506128638161283d565b92915050565b60006020828403121561287f5761287e6126bc565b5b600061288d84828501612854565b91505092915050565b600073ffffffffffffffffffffffffffffffffffffffff82169050919050565b60006128c182612896565b9050919050565b6128d1816128b6565b82525050565b60006020820190506128ec60008301846128c8565b92915050565b6128fb816128b6565b811461290657600080fd5b50565b600081359050612918816128f2565b92915050565b60008060408385031215612935576129346126bc565b5b600061294385828601612909565b925050602061295485828601612854565b9150509250929050565b600080600060608486031215612977576129766126bc565b5b600061298586828701612909565b935050602061299686828701612909565b92505060406129a786828701612854565b9150509250925092565b600080fd5b600080fd5b7f4e487b7100000000000000000000000000000000000000000000000000000000600052604160045260246000fd5b6129f3826127c7565b810181811067ffffffffffffffff82111715612a1257612a116129bb565b5b80604052505050565b6000612a256126b2565b9050612a3182826129ea565b919050565b600067ffffffffffffffff821115612a5157612a506129bb565b5b612a5a826127c7565b9050602081019050919050565b82818337600083830152505050565b6000612a89612a8484612a36565b612a1b565b905082815260208101848484011115612aa557612aa46129b6565b5b612ab0848285612a67565b509392505050565b600082601f830112612acd57612acc6129b1565b5b8135612add848260208601612a76565b91505092915050565b600060208284031215612afc57612afb6126bc565b5b600082013567ffffffffffffffff811115612b1a57612b196126c1565b5b612b2684828501612ab8565b91505092915050565b612b3881612833565b82525050565b6000602082019050612b536000830184612b2f565b92915050565b600081519050919050565b600082825260208201905092915050565b6000819050602082019050919050565b612b8e81612833565b82525050565b6000612b9f82612896565b9050919050565b612baf81612b94565b82525050565b612bbe8161274b565b82525050565b60a082016000820151612bda6000850182612b85565b506020820151612bed6020850182612ba6565b506040820151612c006040850182612ba6565b506060820151612c136060850182612b85565b506080820151612c266080850182612bb5565b50505050565b6000612c388383612bc4565b60a08301905092915050565b6000602082019050919050565b6000612c5c82612b59565b612c668185612b64565b9350612c7183612b75565b8060005b83811015612ca2578151612c898882612c2c565b9750612c9483612c44565b925050600181019050612c75565b5085935050505092915050565b60006020820190508181036000830152612cc98184612c51565b905092915050565b600060208284031215612ce757612ce66126bc565b5b6000612cf584828501612909565b91505092915050565b60008060408385031215612d1557612d146126bc565b5b6000612d2385828601612854565b9250506020612d3485828601612854565b9150509250929050565b612d478161274b565b8114612d5257600080fd5b50565b600081359050612d6481612d3e565b92915050565b60008060408385031215612d8157612d806126bc565b5b6000612d8f85828601612909565b9250506020612da085828601612d55565b9150509250929050565b600067ffffffffffffffff821115612dc557612dc46129bb565b5b612dce826127c7565b9050602081019050919050565b6000612dee612de984612daa565b612a1b565b905082815260208101848484011115612e0a57612e096129b6565b5b612e15848285612a67565b509392505050565b600082601f830112612e3257612e316129b1565b5b8135612e42848260208601612ddb565b91505092915050565b60008060008060808587031215612e6557612e646126bc565b5b6000612e7387828801612909565b9450506020612e8487828801612909565b9350506040612e9587828801612854565b925050606085013567ffffffffffffffff811115612eb657612eb56126c1565b5b612ec287828801612e1d565b91505092959194509250565b60008060408385031215612ee557612ee46126bc565b5b6000612ef385828601612909565b9250506020612f0485828601612909565b9150509250929050565b7f4e487b7100000000000000000000000000000000000000000000000000000000600052602260045260246000fd5b60006002820490506001821680612f5557607f821691505b602082108103612f6857612f67612f0e565b5b50919050565b7f4552433732313a20617070726f76616c20746f2063757272656e74206f776e6560008201527f7200000000000000000000000000000000000000000000000000000000000000602082015250565b6000612fca60218361278c565b9150612fd582612f6e565b604082019050919050565b60006020820190508181036000830152612ff981612fbd565b9050919050565b7f4552433732313a20617070726f76652063616c6c6572206973206e6f7420746f60008201527f6b656e206f776e6572206f7220617070726f76656420666f7220616c6c000000602082015250565b600061305c603d8361278c565b915061306782613000565b604082019050919050565b6000602082019050818103600083015261308b8161304f565b9050919050565b7f4552433732313a2063616c6c6572206973206e6f7420746f6b656e206f776e6560008201527f72206f7220617070726f76656400000000000000000000000000000000000000602082015250565b60006130ee602d8361278c565b91506130f982613092565b604082019050919050565b6000602082019050818103600083015261311d816130e1565b9050919050565b7f4e487b7100000000000000000000000000000000000000000000000000000000600052601160045260246000fd5b600061315e82612833565b915061316983612833565b925082820190508082111561318157613180613124565b5b92915050565b6000819050919050565b6000819050919050565b60006131b66131b16131ac84613187565b613191565b612833565b9050919050565b6131c68161319b565b82525050565b60006080820190506131e160008301876128c8565b6131ee60208301866128c8565b6131fb60408301856131bd565b6132086060830184612757565b95945050505050565b600061321c82612833565b91507fffffffffffffffffffffffffffffffffffffffffffffffffffffffffffffffff820361324e5761324d613124565b5b600182019050919050565b7f4e487b7100000000000000000000000000000000000000000000000000000000600052603260045260246000fd5b7f4552433732313a20696e76616c696420746f6b656e2049440000000000000000600082015250565b60006132be60188361278c565b91506132c982613288565b602082019050919050565b600060208201905081810360008301526132ed816132b1565b9050919050565b7f4552433732313a2061646472657373207a65726f206973206e6f74206120766160008201527f6c6964206f776e65720000000000000000000000000000000000000000000000602082015250565b600061335060298361278c565b915061335b826132f4565b604082019050919050565b6000602082019050818103600083015261337f81613343565b9050919050565b7f506c65617365207375626d6974207468652061736b696e67207072696365206960008201527f6e206f7264657220746f20636f6d706c65746520746865207075726368617365602082015250565b60006133e260408361278c565b91506133ed82613386565b604082019050919050565b60006020820190508181036000830152613411816133d5565b9050919050565b600081905092915050565b600061342e82612781565b6134388185613418565b935061344881856020860161279d565b80840191505092915050565b60006134608285613423565b915061346c8284613423565b91508190509392505050565b7f4552433732313a207472616e736665722066726f6d20696e636f72726563742060008201527f6f776e6572000000000000000000000000000000000000000000000000000000602082015250565b60006134d460258361278c565b91506134df82613478565b604082019050919050565b60006020820190508181036000830152613503816134c7565b9050919050565b7f4552433732313a207472616e7366657220746f20746865207a65726f2061646460008201527f7265737300000000000000000000000000000000000000000000000000000000602082015250565b600061356660248361278c565b91506135718261350a565b604082019050919050565b6000602082019050818103600083015261359581613559565b9050919050565b7f4552433732313a206d696e7420746f20746865207a65726f2061646472657373600082015250565b60006135d260208361278c565b91506135dd8261359c565b602082019050919050565b60006020820190508181036000830152613601816135c5565b9050919050565b7f4552433732313a20746f6b656e20616c7265616479206d696e74656400000000600082015250565b600061363e601c8361278c565b915061364982613608565b602082019050919050565b6000602082019050818103600083015261366d81613631565b9050919050565b7f45524337323155524953746f726167653a2055524920736574206f66206e6f6e60008201527f6578697374656e7420746f6b656e000000000000000000000000000000000000602082015250565b60006136d0602e8361278c565b91506136db82613674565b604082019050919050565b600060208201905081810360008301526136ff816136c3565b9050919050565b60008190508160005260206000209050919050565b60006020601f8301049050919050565b600082821b905092915050565b6000600883026137687fffffffffffffffffffffffffffffffffffffffffffffffffffffffffffffffff8261372b565b613772868361372b565b95508019841693508086168417925050509392505050565b60006137a56137a061379b84612833565b613191565b612833565b9050919050565b6000819050919050565b6137bf8361378a565b6137d36137cb826137ac565b848454613738565b825550505050565b600090565b6137e86137db565b6137f38184846137b6565b505050565b5b818110156138175761380c6000826137e0565b6001810190506137f9565b5050565b601f82111561385c5761382d81613706565b6138368461371b565b81016020851015613845578190505b6138596138518561371b565b8301826137f8565b50505b505050565b600082821c905092915050565b600061387f60001984600802613861565b1980831691505092915050565b6000613898838361386e565b9150826002028217905092915050565b6138b182612781565b67ffffffffffffffff8111156138ca576138c96129bb565b5b6138d48254612f3d565b6138df82828561381b565b600060209050601f8311600181146139125760008415613900578287015190505b61390a858261388c565b865550613972565b601f19841661392086613706565b60005b8281101561394857848901518255600182019150602085019450602081019050613923565b868310156139655784890151613961601f89168261386e565b8355505b6001600288020188555050505b505050505050565b7f486f706566756c6c792073656e64696e672074686520636f727265637420707260008201527f6963650000000000000000000000000000000000000000000000000000000000602082015250565b60006139d660238361278c565b91506139e18261397a565b604082019050919050565b60006020820190508181036000830152613a05816139c9565b9050919050565b7f4d616b652073757265207468652070726963652069736e2774206e656761746960008201527f7665000000000000000000000000000000000000000000000000000000000000602082015250565b6000613a6860228361278c565b9150613a7382613a0c565b604082019050919050565b60006020820190508181036000830152613a9781613a5b565b9050919050565b6000608082019050613ab360008301876128c8565b613ac060208301866128c8565b613acd6040830185612b2f565b613ada6060830184612757565b95945050505050565b7f4552433732313a20617070726f766520746f2063616c6c657200000000000000600082015250565b6000613b1960198361278c565b9150613b2482613ae3565b602082019050919050565b60006020820190508181036000830152613b4881613b0c565b9050919050565b7f4552433732313a207472616e7366657220746f206e6f6e20455243373231526560008201527f63656976657220696d706c656d656e7465720000000000000000000000000000602082015250565b6000613bab60328361278c565b9150613bb682613b4f565b604082019050919050565b60006020820190508181036000830152613bda81613b9e565b9050919050565b600081519050919050565b600082825260208201905092915050565b6000613c0882613be1565b613c128185613bec565b9350613c2281856020860161279d565b613c2b816127c7565b840191505092915050565b6000608082019050613c4b60008301876128c8565b613c5860208301866128c8565b613c656040830185612b2f565b8181036060830152613c778184613bfd565b905095945050505050565b600081519050613c91816126f2565b92915050565b600060208284031215613cad57613cac6126bc565b5b6000613cbb84828501613c82565b91505092915050565b7f4e487b7100000000000000000000000000000000000000000000000000000000600052601260045260246000fdfea26469706673582212200fbf66a0e1841c8fa7c2e9ee63e63dfd53c85c1bf467cb8e5dd05f68dcce532864736f6c63430008130033",
  "linkReferences": {},
  "deployedLinkReferences": {}
}