{
  "_format": "hh-sol-artifact-1",
  "contractName": "NFTMarketplace",
  "sourceName": "contracts/Marketplace.sol",
  "abi": [
    {
      "inputs": [],
      "stateMutability": "nonpayable",
      "type": "constructor"
    },
    {
      "anonymous": false,
      "inputs": [
        {
          "indexed": true,
          "internalType": "address",
          "name": "owner",
          "type": "address"
        },
        {
          "indexed": true,
          "internalType": "address",
          "name": "approved",
          "type": "address"
        },
        {
          "indexed": true,
          "internalType": "uint256",
          "name": "tokenId",
          "type": "uint256"
        }
      ],
      "name": "Approval",
      "type": "event"
    },
    {
      "anonymous": false,
      "inputs": [
        {
          "indexed": true,
          "internalType": "address",
          "name": "owner",
          "type": "address"
        },
        {
          "indexed": true,
          "internalType": "address",
          "name": "operator",
          "type": "address"
        },
        {
          "indexed": false,
          "internalType": "bool",
          "name": "approved",
          "type": "bool"
        }
      ],
      "name": "ApprovalForAll",
      "type": "event"
    },
    {
      "anonymous": false,
      "inputs": [
        {
          "indexed": false,
          "internalType": "uint256",
          "name": "_fromTokenId",
          "type": "uint256"
        },
        {
          "indexed": false,
          "internalType": "uint256",
          "name": "_toTokenId",
          "type": "uint256"
        }
      ],
      "name": "BatchMetadataUpdate",
      "type": "event"
    },
    {
      "anonymous": false,
      "inputs": [
        {
          "indexed": false,
          "internalType": "uint256",
          "name": "_tokenId",
          "type": "uint256"
        }
      ],
      "name": "MetadataUpdate",
      "type": "event"
    },
    {
      "anonymous": false,
      "inputs": [
        {
          "indexed": true,
          "internalType": "uint256",
          "name": "tokenId",
          "type": "uint256"
        },
        {
          "indexed": false,
          "internalType": "address",
          "name": "owner",
          "type": "address"
        },
        {
          "indexed": false,
          "internalType": "address",
          "name": "seller",
          "type": "address"
        },
        {
          "indexed": false,
          "internalType": "uint256",
          "name": "price",
          "type": "uint256"
        },
        {
          "indexed": false,
          "internalType": "bool",
          "name": "currentlyListed",
          "type": "bool"
        }
      ],
      "name": "TokenListedSuccess",
      "type": "event"
    },
    {
      "anonymous": false,
      "inputs": [
        {
          "indexed": true,
          "internalType": "address",
          "name": "from",
          "type": "address"
        },
        {
          "indexed": true,
          "internalType": "address",
          "name": "to",
          "type": "address"
        },
        {
          "indexed": true,
          "internalType": "uint256",
          "name": "tokenId",
          "type": "uint256"
        }
      ],
      "name": "Transfer",
      "type": "event"
    },
    {
      "stateMutability": "payable",
      "type": "fallback"
    },
    {
      "inputs": [
        {
          "internalType": "address",
          "name": "to",
          "type": "address"
        },
        {
          "internalType": "uint256",
          "name": "tokenId",
          "type": "uint256"
        }
      ],
      "name": "approve",
      "outputs": [],
      "stateMutability": "nonpayable",
      "type": "function"
    },
    {
      "inputs": [
        {
          "internalType": "address",
          "name": "owner",
          "type": "address"
        }
      ],
      "name": "balanceOf",
      "outputs": [
        {
          "internalType": "uint256",
          "name": "",
          "type": "uint256"
        }
      ],
      "stateMutability": "view",
      "type": "function"
    },
    {
      "inputs": [
        {
          "internalType": "string",
          "name": "tokenURI",
          "type": "string"
        }
      ],
      "name": "createToken",
      "outputs": [
        {
          "internalType": "uint256",
          "name": "",
          "type": "uint256"
        }
      ],
      "stateMutability": "nonpayable",
      "type": "function"
    },
    {
      "inputs": [
        {
          "internalType": "uint256",
          "name": "tokenId",
          "type": "uint256"
        }
      ],
      "name": "executeSale",
      "outputs": [],
      "stateMutability": "payable",
      "type": "function"
    },
    {
      "inputs": [],
      "name": "getAllNFTs",
      "outputs": [
        {
          "components": [
            {
              "internalType": "uint256",
              "name": "tokenId",
              "type": "uint256"
            },
            {
              "internalType": "address payable",
              "name": "owner",
              "type": "address"
            },
            {
              "internalType": "address payable",
              "name": "seller",
              "type": "address"
            },
            {
              "internalType": "uint256",
              "name": "price",
              "type": "uint256"
            },
            {
              "internalType": "bool",
              "name": "currentlyListed",
              "type": "bool"
            }
          ],
          "internalType": "struct NFTMarketplace.ListedToken[]",
          "name": "",
          "type": "tuple[]"
        }
      ],
      "stateMutability": "view",
      "type": "function"
    },
    {
      "inputs": [
        {
          "internalType": "uint256",
          "name": "tokenId",
          "type": "uint256"
        }
      ],
      "name": "getApproved",
      "outputs": [
        {
          "internalType": "address",
          "name": "",
          "type": "address"
        }
      ],
      "stateMutability": "view",
      "type": "function"
    },
    {
      "inputs": [
        {
          "internalType": "uint256",
          "name": "tokenId",
          "type": "uint256"
        }
      ],
      "name": "getListedTokenForId",
      "outputs": [
        {
          "components": [
            {
              "internalType": "uint256",
              "name": "tokenId",
              "type": "uint256"
            },
            {
              "internalType": "address payable",
              "name": "owner",
              "type": "address"
            },
            {
              "internalType": "address payable",
              "name": "seller",
              "type": "address"
            },
            {
              "internalType": "uint256",
              "name": "price",
              "type": "uint256"
            },
            {
              "internalType": "bool",
              "name": "currentlyListed",
              "type": "bool"
            }
          ],
          "internalType": "struct NFTMarketplace.ListedToken",
          "name": "",
          "type": "tuple"
        }
      ],
      "stateMutability": "view",
      "type": "function"
    },
    {
      "inputs": [],
      "name": "getMyNFTs",
      "outputs": [
        {
          "components": [
            {
              "internalType": "uint256",
              "name": "tokenId",
              "type": "uint256"
            },
            {
              "internalType": "address payable",
              "name": "owner",
              "type": "address"
            },
            {
              "internalType": "address payable",
              "name": "seller",
              "type": "address"
            },
            {
              "internalType": "uint256",
              "name": "price",
              "type": "uint256"
            },
            {
              "internalType": "bool",
              "name": "currentlyListed",
              "type": "bool"
            }
          ],
          "internalType": "struct NFTMarketplace.ListedToken[]",
          "name": "",
          "type": "tuple[]"
        }
      ],
      "stateMutability": "view",
      "type": "function"
    },
    {
      "inputs": [
        {
          "internalType": "address",
          "name": "owner",
          "type": "address"
        },
        {
          "internalType": "address",
          "name": "operator",
          "type": "address"
        }
      ],
      "name": "isApprovedForAll",
      "outputs": [
        {
          "internalType": "bool",
          "name": "",
          "type": "bool"
        }
      ],
      "stateMutability": "view",
      "type": "function"
    },
    {
      "inputs": [
        {
          "internalType": "uint256",
          "name": "tokenId",
          "type": "uint256"
        },
        {
          "internalType": "uint256",
          "name": "price",
          "type": "uint256"
        }
      ],
      "name": "listToken",
      "outputs": [],
      "stateMutability": "payable",
      "type": "function"
    },
    {
      "inputs": [],
      "name": "name",
      "outputs": [
        {
          "internalType": "string",
          "name": "",
          "type": "string"
        }
      ],
      "stateMutability": "view",
      "type": "function"
    },
    {
      "inputs": [
        {
          "internalType": "uint256",
          "name": "tokenId",
          "type": "uint256"
        }
      ],
      "name": "ownerOf",
      "outputs": [
        {
          "internalType": "address",
          "name": "",
          "type": "address"
        }
      ],
      "stateMutability": "view",
      "type": "function"
    },
    {
      "inputs": [
        {
          "internalType": "address",
          "name": "from",
          "type": "address"
        },
        {
          "internalType": "address",
          "name": "to",
          "type": "address"
        },
        {
          "internalType": "uint256",
          "name": "tokenId",
          "type": "uint256"
        }
      ],
      "name": "safeTransferFrom",
      "outputs": [],
      "stateMutability": "nonpayable",
      "type": "function"
    },
    {
      "inputs": [
        {
          "internalType": "address",
          "name": "from",
          "type": "address"
        },
        {
          "internalType": "address",
          "name": "to",
          "type": "address"
        },
        {
          "internalType": "uint256",
          "name": "tokenId",
          "type": "uint256"
        },
        {
          "internalType": "bytes",
          "name": "data",
          "type": "bytes"
        }
      ],
      "name": "safeTransferFrom",
      "outputs": [],
      "stateMutability": "nonpayable",
      "type": "function"
    },
    {
      "inputs": [
        {
          "internalType": "address",
          "name": "operator",
          "type": "address"
        },
        {
          "internalType": "bool",
          "name": "approved",
          "type": "bool"
        }
      ],
      "name": "setApprovalForAll",
      "outputs": [],
      "stateMutability": "nonpayable",
      "type": "function"
    },
    {
      "inputs": [
        {
          "internalType": "bytes4",
          "name": "interfaceId",
          "type": "bytes4"
        }
      ],
      "name": "supportsInterface",
      "outputs": [
        {
          "internalType": "bool",
          "name": "",
          "type": "bool"
        }
      ],
      "stateMutability": "view",
      "type": "function"
    },
    {
      "inputs": [],
      "name": "symbol",
      "outputs": [
        {
          "internalType": "string",
          "name": "",
          "type": "string"
        }
      ],
      "stateMutability": "view",
      "type": "function"
    },
    {
      "inputs": [
        {
          "internalType": "uint256",
          "name": "tokenId",
          "type": "uint256"
        }
      ],
      "name": "tokenURI",
      "outputs": [
        {
          "internalType": "string",
          "name": "",
          "type": "string"
        }
      ],
      "stateMutability": "view",
      "type": "function"
    },
    {
      "inputs": [
        {
          "internalType": "address",
          "name": "from",
          "type": "address"
        },
        {
          "internalType": "address",
          "name": "to",
          "type": "address"
        },
        {
          "internalType": "uint256",
          "name": "tokenId",
          "type": "uint256"
        }
      ],
      "name": "transferFrom",
      "outputs": [],
      "stateMutability": "nonpayable",
      "type": "function"
    },
    {
      "inputs": [
        {
          "internalType": "uint256",
          "name": "tokenId",
          "type": "uint256"
        }
      ],
      "name": "unListToken",
      "outputs": [],
      "stateMutability": "nonpayable",
      "type": "function"
    },
    {
      "stateMutability": "payable",
      "type": "receive"
    }
  ],
  "bytecode": "0x6080604052662386f26fc10000600a553480156200001c57600080fd5b506040518060400160405280601281526020017f4b69636b6574204d61726b6574706c61636500000000000000000000000000008152506040518060400160405280600581526020017f4b45544d4b00000000000000000000000000000000000000000000000000000081525081600090816200009a919062000370565b508060019081620000ac919062000370565b50505033600960006101000a81548173ffffffffffffffffffffffffffffffffffffffff021916908373ffffffffffffffffffffffffffffffffffffffff16021790555062000457565b600081519050919050565b7f4e487b7100000000000000000000000000000000000000000000000000000000600052604160045260246000fd5b7f4e487b7100000000000000000000000000000000000000000000000000000000600052602260045260246000fd5b600060028204905060018216806200017857607f821691505b6020821081036200018e576200018d62000130565b5b50919050565b60008190508160005260206000209050919050565b60006020601f8301049050919050565b600082821b905092915050565b600060088302620001f87fffffffffffffffffffffffffffffffffffffffffffffffffffffffffffffffff82620001b9565b620002048683620001b9565b95508019841693508086168417925050509392505050565b6000819050919050565b6000819050919050565b6000620002516200024b62000245846200021c565b62000226565b6200021c565b9050919050565b6000819050919050565b6200026d8362000230565b620002856200027c8262000258565b848454620001c6565b825550505050565b600090565b6200029c6200028d565b620002a981848462000262565b505050565b5b81811015620002d157620002c560008262000292565b600181019050620002af565b5050565b601f8211156200032057620002ea8162000194565b620002f584620001a9565b8101602085101562000305578190505b6200031d6200031485620001a9565b830182620002ae565b50505b505050565b600082821c905092915050565b6000620003456000198460080262000325565b1980831691505092915050565b600062000360838362000332565b9150826002028217905092915050565b6200037b82620000f6565b67ffffffffffffffff81111562000397576200039662000101565b5b620003a382546200015f565b620003b0828285620002d5565b600060209050601f831160018114620003e85760008415620003d3578287015190505b620003df858262000352565b8655506200044f565b601f198416620003f88662000194565b60005b828110156200042257848901518255600182019150602085019450602081019050620003fb565b868310156200044257848901516200043e601f89168262000332565b8355505b6001600288020188555050505b505050505050565b613f7480620004676000396000f3fe6080604052600436106101235760003560e01c806375c1631d116100a0578063b88d4fde11610064578063b88d4fde146103f7578063c87b56dd14610420578063e0391b091461045d578063e985e9c514610488578063f9a61784146104c55761012a565b806375c1631d1461032e5780638e2645901461034a57806395d89b41146103875780639b1225c4146103b2578063a22cb465146103ce5761012a565b806342842e0e116100e757806342842e0e1461022357806345576f941461024c578063629cb2e4146102895780636352211e146102b457806370a08231146102f15761012a565b806301ffc9a71461012c57806306fdde0314610169578063081812fc14610194578063095ea7b3146101d157806323b872dd146101fa5761012a565b3661012a57005b005b34801561013857600080fd5b50610153600480360381019061014e919061287a565b6104ee565b60405161016091906128c2565b60405180910390f35b34801561017557600080fd5b5061017e61054f565b60405161018b919061296d565b60405180910390f35b3480156101a057600080fd5b506101bb60048036038101906101b691906129c5565b6105e1565b6040516101c89190612a33565b60405180910390f35b3480156101dd57600080fd5b506101f860048036038101906101f39190612a7a565b610627565b005b34801561020657600080fd5b50610221600480360381019061021c9190612aba565b61073e565b005b34801561022f57600080fd5b5061024a60048036038101906102459190612aba565b61079e565b005b34801561025857600080fd5b50610273600480360381019061026e9190612c42565b6107be565b6040516102809190612c9a565b60405180910390f35b34801561029557600080fd5b5061029e61096c565b6040516102ab9190612e0b565b60405180910390f35b3480156102c057600080fd5b506102db60048036038101906102d691906129c5565b610d43565b6040516102e89190612a33565b60405180910390f35b3480156102fd57600080fd5b5061031860048036038101906103139190612e2d565b610dc9565b6040516103259190612c9a565b60405180910390f35b61034860048036038101906103439190612e5a565b610e80565b005b34801561035657600080fd5b50610371600480360381019061036c91906129c5565b610e8e565b60405161037e9190612f02565b60405180910390f35b34801561039357600080fd5b5061039c610f96565b6040516103a9919061296d565b60405180910390f35b6103cc60048036038101906103c791906129c5565b611028565b005b3480156103da57600080fd5b506103f560048036038101906103f09190612f49565b61122a565b005b34801561040357600080fd5b5061041e6004803603810190610419919061302a565b611240565b005b34801561042c57600080fd5b50610447600480360381019061044291906129c5565b6112a2565b604051610454919061296d565b60405180910390f35b34801561046957600080fd5b506104726113b4565b60405161047f9190612e0b565b60405180910390f35b34801561049457600080fd5b506104af60048036038101906104aa91906130ad565b6115a6565b6040516104bc91906128c2565b60405180910390f35b3480156104d157600080fd5b506104ec60048036038101906104e791906129c5565b61163a565b005b6000634906490660e01b7bffffffffffffffffffffffffffffffffffffffffffffffffffffffff1916827bffffffffffffffffffffffffffffffffffffffffffffffffffffffff1916148061054857506105478261166c565b5b9050919050565b60606000805461055e9061311c565b80601f016020809104026020016040519081016040528092919081815260200182805461058a9061311c565b80156105d75780601f106105ac576101008083540402835291602001916105d7565b820191906000526020600020905b8154815290600101906020018083116105ba57829003601f168201915b5050505050905090565b60006105ec8261174e565b6004600083815260200190815260200160002060009054906101000a900473ffffffffffffffffffffffffffffffffffffffff169050919050565b600061063282610d43565b90508073ffffffffffffffffffffffffffffffffffffffff168373ffffffffffffffffffffffffffffffffffffffff16036106a2576040517f08c379a0000000000000000000000000000000000000000000000000000000008152600401610699906131bf565b60405180910390fd5b8073ffffffffffffffffffffffffffffffffffffffff166106c1611799565b73ffffffffffffffffffffffffffffffffffffffff1614806106f057506106ef816106ea611799565b6115a6565b5b61072f576040517f08c379a000000000000000000000000000000000000000000000000000000000815260040161072690613251565b60405180910390fd5b61073983836117a1565b505050565b61074f610749611799565b8261185a565b61078e576040517f08c379a0000000000000000000000000000000000000000000000000000000008152600401610785906132e3565b60405180910390fd5b6107998383836118ef565b505050565b6107b983838360405180602001604052806000815250611240565b505050565b60006001600760008282546107d39190613332565b92505081905550600060075490506107eb3382611be8565b6107f58184611c06565b6040518060a001604052808281526020013073ffffffffffffffffffffffffffffffffffffffff1681526020013373ffffffffffffffffffffffffffffffffffffffff1681526020016000815260200160001515815250600b60008381526020019081526020016000206000820151816000015560208201518160010160006101000a81548173ffffffffffffffffffffffffffffffffffffffff021916908373ffffffffffffffffffffffffffffffffffffffff16021790555060408201518160020160006101000a81548173ffffffffffffffffffffffffffffffffffffffff021916908373ffffffffffffffffffffffffffffffffffffffff1602179055506060820151816003015560808201518160040160006101000a81548160ff021916908315150217905550905050807f9339409317fd01fabff48b703019016f49159bacc801ae872d2ca637d226e4c0303360008060405161095b94939291906133ab565b60405180910390a280915050919050565b60606000600754905060008060005b83811015610a94573373ffffffffffffffffffffffffffffffffffffffff16600b60006001846109ab9190613332565b815260200190815260200160002060010160009054906101000a900473ffffffffffffffffffffffffffffffffffffffff1673ffffffffffffffffffffffffffffffffffffffff161480610a6c57503373ffffffffffffffffffffffffffffffffffffffff16600b6000600184610a229190613332565b815260200190815260200160002060020160009054906101000a900473ffffffffffffffffffffffffffffffffffffffff1673ffffffffffffffffffffffffffffffffffffffff16145b15610a8157600183610a7e9190613332565b92505b8080610a8c906133f0565b91505061097b565b5060008267ffffffffffffffff811115610ab157610ab0612b17565b5b604051908082528060200260200182016040528015610aea57816020015b610ad76127b1565b815260200190600190039081610acf5790505b50905060005b84811015610d38573373ffffffffffffffffffffffffffffffffffffffff16600b6000600184610b209190613332565b815260200190815260200160002060010160009054906101000a900473ffffffffffffffffffffffffffffffffffffffff1673ffffffffffffffffffffffffffffffffffffffff161480610be157503373ffffffffffffffffffffffffffffffffffffffff16600b6000600184610b979190613332565b815260200190815260200160002060020160009054906101000a900473ffffffffffffffffffffffffffffffffffffffff1673ffffffffffffffffffffffffffffffffffffffff16145b15610d25576000600182610bf59190613332565b90506000600b60008381526020019081526020016000209050806040518060a0016040529081600082015481526020016001820160009054906101000a900473ffffffffffffffffffffffffffffffffffffffff1673ffffffffffffffffffffffffffffffffffffffff1673ffffffffffffffffffffffffffffffffffffffff1681526020016002820160009054906101000a900473ffffffffffffffffffffffffffffffffffffffff1673ffffffffffffffffffffffffffffffffffffffff1673ffffffffffffffffffffffffffffffffffffffff168152602001600382015481526020016004820160009054906101000a900460ff161515151581525050848681518110610d0857610d07613438565b5b6020026020010181905250600185610d209190613332565b945050505b8080610d30906133f0565b915050610af0565b508094505050505090565b600080610d4f83611caa565b9050600073ffffffffffffffffffffffffffffffffffffffff168173ffffffffffffffffffffffffffffffffffffffff1603610dc0576040517f08c379a0000000000000000000000000000000000000000000000000000000008152600401610db7906134b3565b60405180910390fd5b80915050919050565b60008073ffffffffffffffffffffffffffffffffffffffff168273ffffffffffffffffffffffffffffffffffffffff1603610e39576040517f08c379a0000000000000000000000000000000000000000000000000000000008152600401610e3090613545565b60405180910390fd5b600360008373ffffffffffffffffffffffffffffffffffffffff1673ffffffffffffffffffffffffffffffffffffffff168152602001908152602001600020549050919050565b610e8a8282611ce7565b5050565b610e966127b1565b600b60008381526020019081526020016000206040518060a0016040529081600082015481526020016001820160009054906101000a900473ffffffffffffffffffffffffffffffffffffffff1673ffffffffffffffffffffffffffffffffffffffff1673ffffffffffffffffffffffffffffffffffffffff1681526020016002820160009054906101000a900473ffffffffffffffffffffffffffffffffffffffff1673ffffffffffffffffffffffffffffffffffffffff1673ffffffffffffffffffffffffffffffffffffffff168152602001600382015481526020016004820160009054906101000a900460ff1615151515815250509050919050565b606060018054610fa59061311c565b80601f0160208091040260200160405190810160405280929190818152602001828054610fd19061311c565b801561101e5780601f10610ff35761010080835404028352916020019161101e565b820191906000526020600020905b81548152906001019060200180831161100157829003601f168201915b5050505050905090565b6000600b60008381526020019081526020016000206003015490506000600b600084815260200190815260200160002060020160009054906101000a900473ffffffffffffffffffffffffffffffffffffffff1690508134146110c0576040517f08c379a00000000000000000000000000000000000000000000000000000000081526004016110b7906135d7565b60405180910390fd5b6001600b600085815260200190815260200160002060040160006101000a81548160ff02191690831515021790555033600b600085815260200190815260200160002060020160006101000a81548173ffffffffffffffffffffffffffffffffffffffff021916908373ffffffffffffffffffffffffffffffffffffffff1602179055506001600860008282546111579190613332565b925050819055506111693033856118ef565b6111733084610627565b600960009054906101000a900473ffffffffffffffffffffffffffffffffffffffff1673ffffffffffffffffffffffffffffffffffffffff166108fc600a549081150290604051600060405180830381858888f193505050501580156111dd573d6000803e3d6000fd5b508073ffffffffffffffffffffffffffffffffffffffff166108fc349081150290604051600060405180830381858888f19350505050158015611224573d6000803e3d6000fd5b50505050565b61123c611235611799565b8383611e70565b5050565b61125161124b611799565b8361185a565b611290576040517f08c379a0000000000000000000000000000000000000000000000000000000008152600401611287906132e3565b60405180910390fd5b61129c84848484611fdc565b50505050565b60606112ad8261174e565b60006006600084815260200190815260200160002080546112cd9061311c565b80601f01602080910402602001604051908101604052809291908181526020018280546112f99061311c565b80156113465780601f1061131b57610100808354040283529160200191611346565b820191906000526020600020905b81548152906001019060200180831161132957829003601f168201915b505050505090506000611357612038565b9050600081510361136c5781925050506113af565b6000825111156113a1578082604051602001611389929190613633565b604051602081830303815290604052925050506113af565b6113aa8461204f565b925050505b919050565b60606000600754905060008167ffffffffffffffff8111156113d9576113d8612b17565b5b60405190808252806020026020018201604052801561141257816020015b6113ff6127b1565b8152602001906001900390816113f75790505b5090506000805b8381101561159c5760006001826114309190613332565b9050600b600082815260200190815260200160002060040160009054906101000a900460ff1615611588576000600b60008381526020019081526020016000209050806040518060a0016040529081600082015481526020016001820160009054906101000a900473ffffffffffffffffffffffffffffffffffffffff1673ffffffffffffffffffffffffffffffffffffffff1673ffffffffffffffffffffffffffffffffffffffff1681526020016002820160009054906101000a900473ffffffffffffffffffffffffffffffffffffffff1673ffffffffffffffffffffffffffffffffffffffff1673ffffffffffffffffffffffffffffffffffffffff168152602001600382015481526020016004820160009054906101000a900460ff16151515158152505085858151811061156c5761156b613438565b5b60200260200101819052506001846115849190613332565b9350505b508080611594906133f0565b915050611419565b5081935050505090565b6000600560008473ffffffffffffffffffffffffffffffffffffffff1673ffffffffffffffffffffffffffffffffffffffff16815260200190815260200160002060008373ffffffffffffffffffffffffffffffffffffffff1673ffffffffffffffffffffffffffffffffffffffff16815260200190815260200160002060009054906101000a900460ff16905092915050565b6000600b600083815260200190815260200160002060040160006101000a81548160ff02191690831515021790555050565b60007f80ac58cd000000000000000000000000000000000000000000000000000000007bffffffffffffffffffffffffffffffffffffffffffffffffffffffff1916827bffffffffffffffffffffffffffffffffffffffffffffffffffffffff1916148061173757507f5b5e139f000000000000000000000000000000000000000000000000000000007bffffffffffffffffffffffffffffffffffffffffffffffffffffffff1916827bffffffffffffffffffffffffffffffffffffffffffffffffffffffff1916145b806117475750611746826120b7565b5b9050919050565b61175781612121565b611796576040517f08c379a000000000000000000000000000000000000000000000000000000000815260040161178d906134b3565b60405180910390fd5b50565b600033905090565b816004600083815260200190815260200160002060006101000a81548173ffffffffffffffffffffffffffffffffffffffff021916908373ffffffffffffffffffffffffffffffffffffffff160217905550808273ffffffffffffffffffffffffffffffffffffffff1661181483610d43565b73ffffffffffffffffffffffffffffffffffffffff167f8c5be1e5ebec7d5bd14f71427d1e84f3dd0314c0f7b2291e5b200ac8c7c3b92560405160405180910390a45050565b60008061186683610d43565b90508073ffffffffffffffffffffffffffffffffffffffff168473ffffffffffffffffffffffffffffffffffffffff1614806118a857506118a781856115a6565b5b806118e657508373ffffffffffffffffffffffffffffffffffffffff166118ce846105e1565b73ffffffffffffffffffffffffffffffffffffffff16145b91505092915050565b8273ffffffffffffffffffffffffffffffffffffffff1661190f82610d43565b73ffffffffffffffffffffffffffffffffffffffff1614611965576040517f08c379a000000000000000000000000000000000000000000000000000000000815260040161195c906136c9565b60405180910390fd5b600073ffffffffffffffffffffffffffffffffffffffff168273ffffffffffffffffffffffffffffffffffffffff16036119d4576040517f08c379a00000000000000000000000000000000000000000000000000000000081526004016119cb9061375b565b60405180910390fd5b6119e18383836001612162565b8273ffffffffffffffffffffffffffffffffffffffff16611a0182610d43565b73ffffffffffffffffffffffffffffffffffffffff1614611a57576040517f08c379a0000000000000000000000000000000000000000000000000000000008152600401611a4e906136c9565b60405180910390fd5b6004600082815260200190815260200160002060006101000a81549073ffffffffffffffffffffffffffffffffffffffff02191690556001600360008573ffffffffffffffffffffffffffffffffffffffff1673ffffffffffffffffffffffffffffffffffffffff168152602001908152602001600020600082825403925050819055506001600360008473ffffffffffffffffffffffffffffffffffffffff1673ffffffffffffffffffffffffffffffffffffffff16815260200190815260200160002060008282540192505081905550816002600083815260200190815260200160002060006101000a81548173ffffffffffffffffffffffffffffffffffffffff021916908373ffffffffffffffffffffffffffffffffffffffff160217905550808273ffffffffffffffffffffffffffffffffffffffff168473ffffffffffffffffffffffffffffffffffffffff167fddf252ad1be2c89b69c2b068fc378daa952ba7f163c4a11628f55a4df523b3ef60405160405180910390a4611be38383836001612168565b505050565b611c0282826040518060200160405280600081525061216e565b5050565b611c0f82612121565b611c4e576040517f08c379a0000000000000000000000000000000000000000000000000000000008152600401611c45906137ed565b60405180910390fd5b80600660008481526020019081526020016000209081611c6e91906139af565b507ff8e1a15aba9398e019f0b49df1a4fde98ee17ae345cb5f6b5e2c27f5033e8ce782604051611c9e9190612c9a565b60405180910390a15050565b60006002600083815260200190815260200160002060009054906101000a900473ffffffffffffffffffffffffffffffffffffffff169050919050565b600a543414611d2b576040517f08c379a0000000000000000000000000000000000000000000000000000000008152600401611d2290613af3565b60405180910390fd5b60008111611d6e576040517f08c379a0000000000000000000000000000000000000000000000000000000008152600401611d6590613b85565b60405180910390fd5b60001515600b600084815260200190815260200160002060040160009054906101000a900460ff16151514611dd8576040517f08c379a0000000000000000000000000000000000000000000000000000000008152600401611dcf90613bf1565b60405180910390fd5b6001600b600084815260200190815260200160002060040160006101000a81548160ff02191690831515021790555080600b600084815260200190815260200160002060030181905550611e2d3330846118ef565b817f9339409317fd01fabff48b703019016f49159bacc801ae872d2ca637d226e4c03033846001604051611e649493929190613c11565b60405180910390a25050565b8173ffffffffffffffffffffffffffffffffffffffff168373ffffffffffffffffffffffffffffffffffffffff1603611ede576040517f08c379a0000000000000000000000000000000000000000000000000000000008152600401611ed590613ca2565b60405180910390fd5b80600560008573ffffffffffffffffffffffffffffffffffffffff1673ffffffffffffffffffffffffffffffffffffffff16815260200190815260200160002060008473ffffffffffffffffffffffffffffffffffffffff1673ffffffffffffffffffffffffffffffffffffffff16815260200190815260200160002060006101000a81548160ff0219169083151502179055508173ffffffffffffffffffffffffffffffffffffffff168373ffffffffffffffffffffffffffffffffffffffff167f17307eab39ab6107e8899845ad3d59bd9653f200f220920489ca2b5937696c3183604051611fcf91906128c2565b60405180910390a3505050565b611fe78484846118ef565b611ff3848484846121c9565b612032576040517f08c379a000000000000000000000000000000000000000000000000000000000815260040161202990613d34565b60405180910390fd5b50505050565b606060405180602001604052806000815250905090565b606061205a8261174e565b6000612064612038565b9050600081511161208457604051806020016040528060008152506120af565b8061208e84612350565b60405160200161209f929190613633565b6040516020818303038152906040525b915050919050565b60007f01ffc9a7000000000000000000000000000000000000000000000000000000007bffffffffffffffffffffffffffffffffffffffffffffffffffffffff1916827bffffffffffffffffffffffffffffffffffffffffffffffffffffffff1916149050919050565b60008073ffffffffffffffffffffffffffffffffffffffff1661214383611caa565b73ffffffffffffffffffffffffffffffffffffffff1614159050919050565b50505050565b50505050565b612178838361241e565b61218560008484846121c9565b6121c4576040517f08c379a00000000000000000000000000000000000000000000000000000000081526004016121bb90613d34565b60405180910390fd5b505050565b60006121ea8473ffffffffffffffffffffffffffffffffffffffff1661263b565b15612343578373ffffffffffffffffffffffffffffffffffffffff1663150b7a02612213611799565b8786866040518563ffffffff1660e01b81526004016122359493929190613da9565b6020604051808303816000875af192505050801561227157506040513d601f19601f8201168201806040525081019061226e9190613e0a565b60015b6122f3573d80600081146122a1576040519150601f19603f3d011682016040523d82523d6000602084013e6122a6565b606091505b5060008151036122eb576040517f08c379a00000000000000000000000000000000000000000000000000000000081526004016122e290613d34565b60405180910390fd5b805181602001fd5b63150b7a0260e01b7bffffffffffffffffffffffffffffffffffffffffffffffffffffffff1916817bffffffffffffffffffffffffffffffffffffffffffffffffffffffff191614915050612348565b600190505b949350505050565b60606000600161235f8461265e565b01905060008167ffffffffffffffff81111561237e5761237d612b17565b5b6040519080825280601f01601f1916602001820160405280156123b05781602001600182028036833780820191505090505b509050600082602001820190505b600115612413578080600190039150507f3031323334353637383961626364656600000000000000000000000000000000600a86061a8153600a858161240757612406613e37565b5b049450600085036123be575b819350505050919050565b600073ffffffffffffffffffffffffffffffffffffffff168273ffffffffffffffffffffffffffffffffffffffff160361248d576040517f08c379a000000000000000000000000000000000000000000000000000000000815260040161248490613eb2565b60405180910390fd5b61249681612121565b156124d6576040517f08c379a00000000000000000000000000000000000000000000000000000000081526004016124cd90613f1e565b60405180910390fd5b6124e4600083836001612162565b6124ed81612121565b1561252d576040517f08c379a000000000000000000000000000000000000000000000000000000000815260040161252490613f1e565b60405180910390fd5b6001600360008473ffffffffffffffffffffffffffffffffffffffff1673ffffffffffffffffffffffffffffffffffffffff16815260200190815260200160002060008282540192505081905550816002600083815260200190815260200160002060006101000a81548173ffffffffffffffffffffffffffffffffffffffff021916908373ffffffffffffffffffffffffffffffffffffffff160217905550808273ffffffffffffffffffffffffffffffffffffffff16600073ffffffffffffffffffffffffffffffffffffffff167fddf252ad1be2c89b69c2b068fc378daa952ba7f163c4a11628f55a4df523b3ef60405160405180910390a4612637600083836001612168565b5050565b6000808273ffffffffffffffffffffffffffffffffffffffff163b119050919050565b600080600090507a184f03e93ff9f4daa797ed6e38ed64bf6a1f01000000000000000083106126bc577a184f03e93ff9f4daa797ed6e38ed64bf6a1f01000000000000000083816126b2576126b1613e37565b5b0492506040810190505b6d04ee2d6d415b85acef810000000083106126f9576d04ee2d6d415b85acef810000000083816126ef576126ee613e37565b5b0492506020810190505b662386f26fc10000831061272857662386f26fc10000838161271e5761271d613e37565b5b0492506010810190505b6305f5e1008310612751576305f5e100838161274757612746613e37565b5b0492506008810190505b612710831061277657612710838161276c5761276b613e37565b5b0492506004810190505b60648310612799576064838161278f5761278e613e37565b5b0492506002810190505b600a83106127a8576001810190505b80915050919050565b6040518060a0016040528060008152602001600073ffffffffffffffffffffffffffffffffffffffff168152602001600073ffffffffffffffffffffffffffffffffffffffff168152602001600081526020016000151581525090565b6000604051905090565b600080fd5b600080fd5b60007fffffffff0000000000000000000000000000000000000000000000000000000082169050919050565b61285781612822565b811461286257600080fd5b50565b6000813590506128748161284e565b92915050565b6000602082840312156128905761288f612818565b5b600061289e84828501612865565b91505092915050565b60008115159050919050565b6128bc816128a7565b82525050565b60006020820190506128d760008301846128b3565b92915050565b600081519050919050565b600082825260208201905092915050565b60005b838110156129175780820151818401526020810190506128fc565b60008484015250505050565b6000601f19601f8301169050919050565b600061293f826128dd565b61294981856128e8565b93506129598185602086016128f9565b61296281612923565b840191505092915050565b600060208201905081810360008301526129878184612934565b905092915050565b6000819050919050565b6129a28161298f565b81146129ad57600080fd5b50565b6000813590506129bf81612999565b92915050565b6000602082840312156129db576129da612818565b5b60006129e9848285016129b0565b91505092915050565b600073ffffffffffffffffffffffffffffffffffffffff82169050919050565b6000612a1d826129f2565b9050919050565b612a2d81612a12565b82525050565b6000602082019050612a486000830184612a24565b92915050565b612a5781612a12565b8114612a6257600080fd5b50565b600081359050612a7481612a4e565b92915050565b60008060408385031215612a9157612a90612818565b5b6000612a9f85828601612a65565b9250506020612ab0858286016129b0565b9150509250929050565b600080600060608486031215612ad357612ad2612818565b5b6000612ae186828701612a65565b9350506020612af286828701612a65565b9250506040612b03868287016129b0565b9150509250925092565b600080fd5b600080fd5b7f4e487b7100000000000000000000000000000000000000000000000000000000600052604160045260246000fd5b612b4f82612923565b810181811067ffffffffffffffff82111715612b6e57612b6d612b17565b5b80604052505050565b6000612b8161280e565b9050612b8d8282612b46565b919050565b600067ffffffffffffffff821115612bad57612bac612b17565b5b612bb682612923565b9050602081019050919050565b82818337600083830152505050565b6000612be5612be084612b92565b612b77565b905082815260208101848484011115612c0157612c00612b12565b5b612c0c848285612bc3565b509392505050565b600082601f830112612c2957612c28612b0d565b5b8135612c39848260208601612bd2565b91505092915050565b600060208284031215612c5857612c57612818565b5b600082013567ffffffffffffffff811115612c7657612c7561281d565b5b612c8284828501612c14565b91505092915050565b612c948161298f565b82525050565b6000602082019050612caf6000830184612c8b565b92915050565b600081519050919050565b600082825260208201905092915050565b6000819050602082019050919050565b612cea8161298f565b82525050565b6000612cfb826129f2565b9050919050565b612d0b81612cf0565b82525050565b612d1a816128a7565b82525050565b60a082016000820151612d366000850182612ce1565b506020820151612d496020850182612d02565b506040820151612d5c6040850182612d02565b506060820151612d6f6060850182612ce1565b506080820151612d826080850182612d11565b50505050565b6000612d948383612d20565b60a08301905092915050565b6000602082019050919050565b6000612db882612cb5565b612dc28185612cc0565b9350612dcd83612cd1565b8060005b83811015612dfe578151612de58882612d88565b9750612df083612da0565b925050600181019050612dd1565b5085935050505092915050565b60006020820190508181036000830152612e258184612dad565b905092915050565b600060208284031215612e4357612e42612818565b5b6000612e5184828501612a65565b91505092915050565b60008060408385031215612e7157612e70612818565b5b6000612e7f858286016129b0565b9250506020612e90858286016129b0565b9150509250929050565b60a082016000820151612eb06000850182612ce1565b506020820151612ec36020850182612d02565b506040820151612ed66040850182612d02565b506060820151612ee96060850182612ce1565b506080820151612efc6080850182612d11565b50505050565b600060a082019050612f176000830184612e9a565b92915050565b612f26816128a7565b8114612f3157600080fd5b50565b600081359050612f4381612f1d565b92915050565b60008060408385031215612f6057612f5f612818565b5b6000612f6e85828601612a65565b9250506020612f7f85828601612f34565b9150509250929050565b600067ffffffffffffffff821115612fa457612fa3612b17565b5b612fad82612923565b9050602081019050919050565b6000612fcd612fc884612f89565b612b77565b905082815260208101848484011115612fe957612fe8612b12565b5b612ff4848285612bc3565b509392505050565b600082601f83011261301157613010612b0d565b5b8135613021848260208601612fba565b91505092915050565b6000806000806080858703121561304457613043612818565b5b600061305287828801612a65565b945050602061306387828801612a65565b9350506040613074878288016129b0565b925050606085013567ffffffffffffffff8111156130955761309461281d565b5b6130a187828801612ffc565b91505092959194509250565b600080604083850312156130c4576130c3612818565b5b60006130d285828601612a65565b92505060206130e385828601612a65565b9150509250929050565b7f4e487b7100000000000000000000000000000000000000000000000000000000600052602260045260246000fd5b6000600282049050600182168061313457607f821691505b602082108103613147576131466130ed565b5b50919050565b7f4552433732313a20617070726f76616c20746f2063757272656e74206f776e6560008201527f7200000000000000000000000000000000000000000000000000000000000000602082015250565b60006131a96021836128e8565b91506131b48261314d565b604082019050919050565b600060208201905081810360008301526131d88161319c565b9050919050565b7f4552433732313a20617070726f76652063616c6c6572206973206e6f7420746f60008201527f6b656e206f776e6572206f7220617070726f76656420666f7220616c6c000000602082015250565b600061323b603d836128e8565b9150613246826131df565b604082019050919050565b6000602082019050818103600083015261326a8161322e565b9050919050565b7f4552433732313a2063616c6c6572206973206e6f7420746f6b656e206f776e6560008201527f72206f7220617070726f76656400000000000000000000000000000000000000602082015250565b60006132cd602d836128e8565b91506132d882613271565b604082019050919050565b600060208201905081810360008301526132fc816132c0565b9050919050565b7f4e487b7100000000000000000000000000000000000000000000000000000000600052601160045260246000fd5b600061333d8261298f565b91506133488361298f565b92508282019050808211156133605761335f613303565b5b92915050565b6000819050919050565b6000819050919050565b600061339561339061338b84613366565b613370565b61298f565b9050919050565b6133a58161337a565b82525050565b60006080820190506133c06000830187612a24565b6133cd6020830186612a24565b6133da604083018561339c565b6133e760608301846128b3565b95945050505050565b60006133fb8261298f565b91507fffffffffffffffffffffffffffffffffffffffffffffffffffffffffffffffff820361342d5761342c613303565b5b600182019050919050565b7f4e487b7100000000000000000000000000000000000000000000000000000000600052603260045260246000fd5b7f4552433732313a20696e76616c696420746f6b656e2049440000000000000000600082015250565b600061349d6018836128e8565b91506134a882613467565b602082019050919050565b600060208201905081810360008301526134cc81613490565b9050919050565b7f4552433732313a2061646472657373207a65726f206973206e6f74206120766160008201527f6c6964206f776e65720000000000000000000000000000000000000000000000602082015250565b600061352f6029836128e8565b915061353a826134d3565b604082019050919050565b6000602082019050818103600083015261355e81613522565b9050919050565b7f506c65617365207375626d6974207468652061736b696e67207072696365206960008201527f6e206f7264657220746f20636f6d706c65746520746865207075726368617365602082015250565b60006135c16040836128e8565b91506135cc82613565565b604082019050919050565b600060208201905081810360008301526135f0816135b4565b9050919050565b600081905092915050565b600061360d826128dd565b61361781856135f7565b93506136278185602086016128f9565b80840191505092915050565b600061363f8285613602565b915061364b8284613602565b91508190509392505050565b7f4552433732313a207472616e736665722066726f6d20696e636f72726563742060008201527f6f776e6572000000000000000000000000000000000000000000000000000000602082015250565b60006136b36025836128e8565b91506136be82613657565b604082019050919050565b600060208201905081810360008301526136e2816136a6565b9050919050565b7f4552433732313a207472616e7366657220746f20746865207a65726f2061646460008201527f7265737300000000000000000000000000000000000000000000000000000000602082015250565b60006137456024836128e8565b9150613750826136e9565b604082019050919050565b6000602082019050818103600083015261377481613738565b9050919050565b7f45524337323155524953746f726167653a2055524920736574206f66206e6f6e60008201527f6578697374656e7420746f6b656e000000000000000000000000000000000000602082015250565b60006137d7602e836128e8565b91506137e28261377b565b604082019050919050565b60006020820190508181036000830152613806816137ca565b9050919050565b60008190508160005260206000209050919050565b60006020601f8301049050919050565b600082821b905092915050565b60006008830261386f7fffffffffffffffffffffffffffffffffffffffffffffffffffffffffffffffff82613832565b6138798683613832565b95508019841693508086168417925050509392505050565b60006138ac6138a76138a28461298f565b613370565b61298f565b9050919050565b6000819050919050565b6138c683613891565b6138da6138d2826138b3565b84845461383f565b825550505050565b600090565b6138ef6138e2565b6138fa8184846138bd565b505050565b5b8181101561391e576139136000826138e7565b600181019050613900565b5050565b601f821115613963576139348161380d565b61393d84613822565b8101602085101561394c578190505b61396061395885613822565b8301826138ff565b50505b505050565b600082821c905092915050565b600061398660001984600802613968565b1980831691505092915050565b600061399f8383613975565b9150826002028217905092915050565b6139b8826128dd565b67ffffffffffffffff8111156139d1576139d0612b17565b5b6139db825461311c565b6139e6828285613922565b600060209050601f831160018114613a195760008415613a07578287015190505b613a118582613993565b865550613a79565b601f198416613a278661380d565b60005b82811015613a4f57848901518255600182019150602085019450602081019050613a2a565b86831015613a6c5784890151613a68601f891682613975565b8355505b6001600288020188555050505b505050505050565b7f486f706566756c6c792073656e64696e672074686520636f727265637420707260008201527f6963650000000000000000000000000000000000000000000000000000000000602082015250565b6000613add6023836128e8565b9150613ae882613a81565b604082019050919050565b60006020820190508181036000830152613b0c81613ad0565b9050919050565b7f4d616b652073757265207468652070726963652069736e2774206e656761746960008201527f7665000000000000000000000000000000000000000000000000000000000000602082015250565b6000613b6f6022836128e8565b9150613b7a82613b13565b604082019050919050565b60006020820190508181036000830152613b9e81613b62565b9050919050565b7f4e4654732068617665206c697374656400000000000000000000000000000000600082015250565b6000613bdb6010836128e8565b9150613be682613ba5565b602082019050919050565b60006020820190508181036000830152613c0a81613bce565b9050919050565b6000608082019050613c266000830187612a24565b613c336020830186612a24565b613c406040830185612c8b565b613c4d60608301846128b3565b95945050505050565b7f4552433732313a20617070726f766520746f2063616c6c657200000000000000600082015250565b6000613c8c6019836128e8565b9150613c9782613c56565b602082019050919050565b60006020820190508181036000830152613cbb81613c7f565b9050919050565b7f4552433732313a207472616e7366657220746f206e6f6e20455243373231526560008201527f63656976657220696d706c656d656e7465720000000000000000000000000000602082015250565b6000613d1e6032836128e8565b9150613d2982613cc2565b604082019050919050565b60006020820190508181036000830152613d4d81613d11565b9050919050565b600081519050919050565b600082825260208201905092915050565b6000613d7b82613d54565b613d858185613d5f565b9350613d958185602086016128f9565b613d9e81612923565b840191505092915050565b6000608082019050613dbe6000830187612a24565b613dcb6020830186612a24565b613dd86040830185612c8b565b8181036060830152613dea8184613d70565b905095945050505050565b600081519050613e048161284e565b92915050565b600060208284031215613e2057613e1f612818565b5b6000613e2e84828501613df5565b91505092915050565b7f4e487b7100000000000000000000000000000000000000000000000000000000600052601260045260246000fd5b7f4552433732313a206d696e7420746f20746865207a65726f2061646472657373600082015250565b6000613e9c6020836128e8565b9150613ea782613e66565b602082019050919050565b60006020820190508181036000830152613ecb81613e8f565b9050919050565b7f4552433732313a20746f6b656e20616c7265616479206d696e74656400000000600082015250565b6000613f08601c836128e8565b9150613f1382613ed2565b602082019050919050565b60006020820190508181036000830152613f3781613efb565b905091905056fea2646970667358221220f3541aa5a93f6c9ae345e645044f930951f6e83e807256b7b6c06eeebf34f4ff64736f6c63430008130033",
  "linkReferences": {},
  "deployedLinkReferences": {}
}