{
  "_format": "hh-sol-artifact-1",
  "contractName": "NFTMarketplace",
  "sourceName": "contracts/Marketplace.sol",
  "abi": [
    {
      "inputs": [],
      "stateMutability": "nonpayable",
      "type": "constructor"
    },
    {
      "anonymous": false,
      "inputs": [
        {
          "indexed": true,
          "internalType": "address",
          "name": "owner",
          "type": "address"
        },
        {
          "indexed": true,
          "internalType": "address",
          "name": "approved",
          "type": "address"
        },
        {
          "indexed": true,
          "internalType": "uint256",
          "name": "tokenId",
          "type": "uint256"
        }
      ],
      "name": "Approval",
      "type": "event"
    },
    {
      "anonymous": false,
      "inputs": [
        {
          "indexed": true,
          "internalType": "address",
          "name": "owner",
          "type": "address"
        },
        {
          "indexed": true,
          "internalType": "address",
          "name": "operator",
          "type": "address"
        },
        {
          "indexed": false,
          "internalType": "bool",
          "name": "approved",
          "type": "bool"
        }
      ],
      "name": "ApprovalForAll",
      "type": "event"
    },
    {
      "anonymous": false,
      "inputs": [
        {
          "indexed": false,
          "internalType": "uint256",
          "name": "_fromTokenId",
          "type": "uint256"
        },
        {
          "indexed": false,
          "internalType": "uint256",
          "name": "_toTokenId",
          "type": "uint256"
        }
      ],
      "name": "BatchMetadataUpdate",
      "type": "event"
    },
    {
      "anonymous": false,
      "inputs": [
        {
          "indexed": false,
          "internalType": "uint256",
          "name": "_tokenId",
          "type": "uint256"
        }
      ],
      "name": "MetadataUpdate",
      "type": "event"
    },
    {
      "anonymous": false,
      "inputs": [
        {
          "indexed": true,
          "internalType": "uint256",
          "name": "tokenId",
          "type": "uint256"
        },
        {
          "indexed": false,
          "internalType": "address",
          "name": "owner",
          "type": "address"
        },
        {
          "indexed": false,
          "internalType": "address",
          "name": "seller",
          "type": "address"
        },
        {
          "indexed": false,
          "internalType": "uint256",
          "name": "price",
          "type": "uint256"
        },
        {
          "indexed": false,
          "internalType": "bool",
          "name": "currentlyListed",
          "type": "bool"
        }
      ],
      "name": "TokenListedSuccess",
      "type": "event"
    },
    {
      "anonymous": false,
      "inputs": [
        {
          "indexed": true,
          "internalType": "address",
          "name": "from",
          "type": "address"
        },
        {
          "indexed": true,
          "internalType": "address",
          "name": "to",
          "type": "address"
        },
        {
          "indexed": true,
          "internalType": "uint256",
          "name": "tokenId",
          "type": "uint256"
        }
      ],
      "name": "Transfer",
      "type": "event"
    },
    {
      "inputs": [
        {
          "internalType": "address",
          "name": "to",
          "type": "address"
        },
        {
          "internalType": "uint256",
          "name": "tokenId",
          "type": "uint256"
        }
      ],
      "name": "approve",
      "outputs": [],
      "stateMutability": "nonpayable",
      "type": "function"
    },
    {
      "inputs": [
        {
          "internalType": "address",
          "name": "owner",
          "type": "address"
        }
      ],
      "name": "balanceOf",
      "outputs": [
        {
          "internalType": "uint256",
          "name": "",
          "type": "uint256"
        }
      ],
      "stateMutability": "view",
      "type": "function"
    },
    {
      "inputs": [
        {
          "internalType": "string",
          "name": "tokenURI",
          "type": "string"
        },
        {
          "internalType": "uint256",
          "name": "price",
          "type": "uint256"
        }
      ],
      "name": "createToken",
      "outputs": [
        {
          "internalType": "uint256",
          "name": "",
          "type": "uint256"
        }
      ],
      "stateMutability": "payable",
      "type": "function"
    },
    {
      "inputs": [
        {
          "internalType": "uint256",
          "name": "tokenId",
          "type": "uint256"
        }
      ],
      "name": "executeSale",
      "outputs": [],
      "stateMutability": "payable",
      "type": "function"
    },
    {
      "inputs": [],
      "name": "getAllNFTs",
      "outputs": [
        {
          "components": [
            {
              "internalType": "uint256",
              "name": "tokenId",
              "type": "uint256"
            },
            {
              "internalType": "address payable",
              "name": "owner",
              "type": "address"
            },
            {
              "internalType": "address payable",
              "name": "seller",
              "type": "address"
            },
            {
              "internalType": "uint256",
              "name": "price",
              "type": "uint256"
            },
            {
              "internalType": "bool",
              "name": "currentlyListed",
              "type": "bool"
            }
          ],
          "internalType": "struct NFTMarketplace.ListedToken[]",
          "name": "",
          "type": "tuple[]"
        }
      ],
      "stateMutability": "view",
      "type": "function"
    },
    {
      "inputs": [
        {
          "internalType": "uint256",
          "name": "tokenId",
          "type": "uint256"
        }
      ],
      "name": "getApproved",
      "outputs": [
        {
          "internalType": "address",
          "name": "",
          "type": "address"
        }
      ],
      "stateMutability": "view",
      "type": "function"
    },
    {
      "inputs": [],
      "name": "getMyNFTs",
      "outputs": [
        {
          "components": [
            {
              "internalType": "uint256",
              "name": "tokenId",
              "type": "uint256"
            },
            {
              "internalType": "address payable",
              "name": "owner",
              "type": "address"
            },
            {
              "internalType": "address payable",
              "name": "seller",
              "type": "address"
            },
            {
              "internalType": "uint256",
              "name": "price",
              "type": "uint256"
            },
            {
              "internalType": "bool",
              "name": "currentlyListed",
              "type": "bool"
            }
          ],
          "internalType": "struct NFTMarketplace.ListedToken[]",
          "name": "",
          "type": "tuple[]"
        }
      ],
      "stateMutability": "view",
      "type": "function"
    },
    {
      "inputs": [
        {
          "internalType": "address",
          "name": "owner",
          "type": "address"
        },
        {
          "internalType": "address",
          "name": "operator",
          "type": "address"
        }
      ],
      "name": "isApprovedForAll",
      "outputs": [
        {
          "internalType": "bool",
          "name": "",
          "type": "bool"
        }
      ],
      "stateMutability": "view",
      "type": "function"
    },
    {
      "inputs": [],
      "name": "name",
      "outputs": [
        {
          "internalType": "string",
          "name": "",
          "type": "string"
        }
      ],
      "stateMutability": "view",
      "type": "function"
    },
    {
      "inputs": [
        {
          "internalType": "uint256",
          "name": "tokenId",
          "type": "uint256"
        }
      ],
      "name": "ownerOf",
      "outputs": [
        {
          "internalType": "address",
          "name": "",
          "type": "address"
        }
      ],
      "stateMutability": "view",
      "type": "function"
    },
    {
      "inputs": [
        {
          "internalType": "address",
          "name": "from",
          "type": "address"
        },
        {
          "internalType": "address",
          "name": "to",
          "type": "address"
        },
        {
          "internalType": "uint256",
          "name": "tokenId",
          "type": "uint256"
        }
      ],
      "name": "safeTransferFrom",
      "outputs": [],
      "stateMutability": "nonpayable",
      "type": "function"
    },
    {
      "inputs": [
        {
          "internalType": "address",
          "name": "from",
          "type": "address"
        },
        {
          "internalType": "address",
          "name": "to",
          "type": "address"
        },
        {
          "internalType": "uint256",
          "name": "tokenId",
          "type": "uint256"
        },
        {
          "internalType": "bytes",
          "name": "data",
          "type": "bytes"
        }
      ],
      "name": "safeTransferFrom",
      "outputs": [],
      "stateMutability": "nonpayable",
      "type": "function"
    },
    {
      "inputs": [
        {
          "internalType": "address",
          "name": "operator",
          "type": "address"
        },
        {
          "internalType": "bool",
          "name": "approved",
          "type": "bool"
        }
      ],
      "name": "setApprovalForAll",
      "outputs": [],
      "stateMutability": "nonpayable",
      "type": "function"
    },
    {
      "inputs": [
        {
          "internalType": "bytes4",
          "name": "interfaceId",
          "type": "bytes4"
        }
      ],
      "name": "supportsInterface",
      "outputs": [
        {
          "internalType": "bool",
          "name": "",
          "type": "bool"
        }
      ],
      "stateMutability": "view",
      "type": "function"
    },
    {
      "inputs": [],
      "name": "symbol",
      "outputs": [
        {
          "internalType": "string",
          "name": "",
          "type": "string"
        }
      ],
      "stateMutability": "view",
      "type": "function"
    },
    {
      "inputs": [
        {
          "internalType": "uint256",
          "name": "tokenId",
          "type": "uint256"
        }
      ],
      "name": "tokenURI",
      "outputs": [
        {
          "internalType": "string",
          "name": "",
          "type": "string"
        }
      ],
      "stateMutability": "view",
      "type": "function"
    },
    {
      "inputs": [
        {
          "internalType": "address",
          "name": "from",
          "type": "address"
        },
        {
          "internalType": "address",
          "name": "to",
          "type": "address"
        },
        {
          "internalType": "uint256",
          "name": "tokenId",
          "type": "uint256"
        }
      ],
      "name": "transferFrom",
      "outputs": [],
      "stateMutability": "nonpayable",
      "type": "function"
    }
  ],
  "bytecode": "0x6080604052662386f26fc10000600a553480156200001c57600080fd5b506040518060400160405280601281526020017f4b69636b6574204d61726b6574706c61636500000000000000000000000000008152506040518060400160405280600581526020017f4b45544d4b00000000000000000000000000000000000000000000000000000081525081600090816200009a919062000370565b508060019081620000ac919062000370565b50505033600960006101000a81548173ffffffffffffffffffffffffffffffffffffffff021916908373ffffffffffffffffffffffffffffffffffffffff16021790555062000457565b600081519050919050565b7f4e487b7100000000000000000000000000000000000000000000000000000000600052604160045260246000fd5b7f4e487b7100000000000000000000000000000000000000000000000000000000600052602260045260246000fd5b600060028204905060018216806200017857607f821691505b6020821081036200018e576200018d62000130565b5b50919050565b60008190508160005260206000209050919050565b60006020601f8301049050919050565b600082821b905092915050565b600060088302620001f87fffffffffffffffffffffffffffffffffffffffffffffffffffffffffffffffff82620001b9565b620002048683620001b9565b95508019841693508086168417925050509392505050565b6000819050919050565b6000819050919050565b6000620002516200024b62000245846200021c565b62000226565b6200021c565b9050919050565b6000819050919050565b6200026d8362000230565b620002856200027c8262000258565b848454620001c6565b825550505050565b600090565b6200029c6200028d565b620002a981848462000262565b505050565b5b81811015620002d157620002c560008262000292565b600181019050620002af565b5050565b601f8211156200032057620002ea8162000194565b620002f584620001a9565b8101602085101562000305578190505b6200031d6200031485620001a9565b830182620002ae565b50505b505050565b600082821c905092915050565b6000620003456000198460080262000325565b1980831691505092915050565b600062000360838362000332565b9150826002028217905092915050565b6200037b82620000f6565b67ffffffffffffffff81111562000397576200039662000101565b5b620003a382546200015f565b620003b0828285620002d5565b600060209050601f831160018114620003e85760008415620003d3578287015190505b620003df858262000352565b8655506200044f565b601f198416620003f88662000194565b60005b828110156200042257848901518255600182019150602085019450602081019050620003fb565b868310156200044257848901516200043e601f89168262000332565b8355505b6001600288020188555050505b505050505050565b613ac580620004676000396000f3fe6080604052600436106100fe5760003560e01c806370a0823111610095578063a22cb46511610064578063a22cb4651461033f578063b88d4fde14610368578063c87b56dd14610391578063e0391b09146103ce578063e985e9c5146103f9576100fe565b806370a082311461028b57806372b3b620146102c857806395d89b41146102f85780639b1225c414610323576100fe565b806323b872dd116100d157806323b872dd146101d157806342842e0e146101fa578063629cb2e4146102235780636352211e1461024e576100fe565b806301ffc9a71461010357806306fdde0314610140578063081812fc1461016b578063095ea7b3146101a8575b600080fd5b34801561010f57600080fd5b5061012a60048036038101906101259190612567565b610436565b60405161013791906125af565b60405180910390f35b34801561014c57600080fd5b50610155610497565b604051610162919061265a565b60405180910390f35b34801561017757600080fd5b50610192600480360381019061018d91906126b2565b610529565b60405161019f9190612720565b60405180910390f35b3480156101b457600080fd5b506101cf60048036038101906101ca9190612767565b61056f565b005b3480156101dd57600080fd5b506101f860048036038101906101f391906127a7565b610686565b005b34801561020657600080fd5b50610221600480360381019061021c91906127a7565b6106e6565b005b34801561022f57600080fd5b50610238610706565b6040516102459190612950565b60405180910390f35b34801561025a57600080fd5b50610275600480360381019061027091906126b2565b610add565b6040516102829190612720565b60405180910390f35b34801561029757600080fd5b506102b260048036038101906102ad9190612972565b610b63565b6040516102bf91906129ae565b60405180910390f35b6102e260048036038101906102dd9190612afe565b610c1a565b6040516102ef91906129ae565b60405180910390f35b34801561030457600080fd5b5061030d610c65565b60405161031a919061265a565b60405180910390f35b61033d600480360381019061033891906126b2565b610cf7565b005b34801561034b57600080fd5b5061036660048036038101906103619190612b86565b610ef9565b005b34801561037457600080fd5b5061038f600480360381019061038a9190612c67565b610f0f565b005b34801561039d57600080fd5b506103b860048036038101906103b391906126b2565b610f71565b6040516103c5919061265a565b60405180910390f35b3480156103da57600080fd5b506103e3611083565b6040516103f09190612950565b60405180910390f35b34801561040557600080fd5b50610420600480360381019061041b9190612cea565b61124b565b60405161042d91906125af565b60405180910390f35b6000634906490660e01b7bffffffffffffffffffffffffffffffffffffffffffffffffffffffff1916827bffffffffffffffffffffffffffffffffffffffffffffffffffffffff19161480610490575061048f826112df565b5b9050919050565b6060600080546104a690612d59565b80601f01602080910402602001604051908101604052809291908181526020018280546104d290612d59565b801561051f5780601f106104f45761010080835404028352916020019161051f565b820191906000526020600020905b81548152906001019060200180831161050257829003601f168201915b5050505050905090565b6000610534826113c1565b6004600083815260200190815260200160002060009054906101000a900473ffffffffffffffffffffffffffffffffffffffff169050919050565b600061057a82610add565b90508073ffffffffffffffffffffffffffffffffffffffff168373ffffffffffffffffffffffffffffffffffffffff16036105ea576040517f08c379a00000000000000000000000000000000000000000000000000000000081526004016105e190612dfc565b60405180910390fd5b8073ffffffffffffffffffffffffffffffffffffffff1661060961140c565b73ffffffffffffffffffffffffffffffffffffffff16148061063857506106378161063261140c565b61124b565b5b610677576040517f08c379a000000000000000000000000000000000000000000000000000000000815260040161066e90612e8e565b60405180910390fd5b6106818383611414565b505050565b61069761069161140c565b826114cd565b6106d6576040517f08c379a00000000000000000000000000000000000000000000000000000000081526004016106cd90612f20565b60405180910390fd5b6106e1838383611562565b505050565b61070183838360405180602001604052806000815250610f0f565b505050565b60606000600754905060008060005b8381101561082e573373ffffffffffffffffffffffffffffffffffffffff16600b60006001846107459190612f6f565b815260200190815260200160002060010160009054906101000a900473ffffffffffffffffffffffffffffffffffffffff1673ffffffffffffffffffffffffffffffffffffffff16148061080657503373ffffffffffffffffffffffffffffffffffffffff16600b60006001846107bc9190612f6f565b815260200190815260200160002060020160009054906101000a900473ffffffffffffffffffffffffffffffffffffffff1673ffffffffffffffffffffffffffffffffffffffff16145b1561081b576001836108189190612f6f565b92505b808061082690612fa3565b915050610715565b5060008267ffffffffffffffff81111561084b5761084a6129d3565b5b60405190808252806020026020018201604052801561088457816020015b61087161249e565b8152602001906001900390816108695790505b50905060005b84811015610ad2573373ffffffffffffffffffffffffffffffffffffffff16600b60006001846108ba9190612f6f565b815260200190815260200160002060010160009054906101000a900473ffffffffffffffffffffffffffffffffffffffff1673ffffffffffffffffffffffffffffffffffffffff16148061097b57503373ffffffffffffffffffffffffffffffffffffffff16600b60006001846109319190612f6f565b815260200190815260200160002060020160009054906101000a900473ffffffffffffffffffffffffffffffffffffffff1673ffffffffffffffffffffffffffffffffffffffff16145b15610abf57600060018261098f9190612f6f565b90506000600b60008381526020019081526020016000209050806040518060a0016040529081600082015481526020016001820160009054906101000a900473ffffffffffffffffffffffffffffffffffffffff1673ffffffffffffffffffffffffffffffffffffffff1673ffffffffffffffffffffffffffffffffffffffff1681526020016002820160009054906101000a900473ffffffffffffffffffffffffffffffffffffffff1673ffffffffffffffffffffffffffffffffffffffff1673ffffffffffffffffffffffffffffffffffffffff168152602001600382015481526020016004820160009054906101000a900460ff161515151581525050848681518110610aa257610aa1612feb565b5b6020026020010181905250600185610aba9190612f6f565b945050505b8080610aca90612fa3565b91505061088a565b508094505050505090565b600080610ae98361185b565b9050600073ffffffffffffffffffffffffffffffffffffffff168173ffffffffffffffffffffffffffffffffffffffff1603610b5a576040517f08c379a0000000000000000000000000000000000000000000000000000000008152600401610b5190613066565b60405180910390fd5b80915050919050565b60008073ffffffffffffffffffffffffffffffffffffffff168273ffffffffffffffffffffffffffffffffffffffff1603610bd3576040517f08c379a0000000000000000000000000000000000000000000000000000000008152600401610bca906130f8565b60405180910390fd5b600360008373ffffffffffffffffffffffffffffffffffffffff1673ffffffffffffffffffffffffffffffffffffffff168152602001908152602001600020549050919050565b6000600160076000828254610c2f9190612f6f565b9250508190555060006007549050610c473382611898565b610c5181856118b6565b610c5b818461195a565b8091505092915050565b606060018054610c7490612d59565b80601f0160208091040260200160405190810160405280929190818152602001828054610ca090612d59565b8015610ced5780601f10610cc257610100808354040283529160200191610ced565b820191906000526020600020905b815481529060010190602001808311610cd057829003601f168201915b5050505050905090565b6000600b60008381526020019081526020016000206003015490506000600b600084815260200190815260200160002060020160009054906101000a900473ffffffffffffffffffffffffffffffffffffffff169050813414610d8f576040517f08c379a0000000000000000000000000000000000000000000000000000000008152600401610d869061318a565b60405180910390fd5b6001600b600085815260200190815260200160002060040160006101000a81548160ff02191690831515021790555033600b600085815260200190815260200160002060020160006101000a81548173ffffffffffffffffffffffffffffffffffffffff021916908373ffffffffffffffffffffffffffffffffffffffff160217905550600160086000828254610e269190612f6f565b92505081905550610e38303385611562565b610e42308461056f565b600960009054906101000a900473ffffffffffffffffffffffffffffffffffffffff1673ffffffffffffffffffffffffffffffffffffffff166108fc600a549081150290604051600060405180830381858888f19350505050158015610eac573d6000803e3d6000fd5b508073ffffffffffffffffffffffffffffffffffffffff166108fc349081150290604051600060405180830381858888f19350505050158015610ef3573d6000803e3d6000fd5b50505050565b610f0b610f0461140c565b8383611b5d565b5050565b610f20610f1a61140c565b836114cd565b610f5f576040517f08c379a0000000000000000000000000000000000000000000000000000000008152600401610f5690612f20565b60405180910390fd5b610f6b84848484611cc9565b50505050565b6060610f7c826113c1565b6000600660008481526020019081526020016000208054610f9c90612d59565b80601f0160208091040260200160405190810160405280929190818152602001828054610fc890612d59565b80156110155780601f10610fea57610100808354040283529160200191611015565b820191906000526020600020905b815481529060010190602001808311610ff857829003601f168201915b505050505090506000611026611d25565b9050600081510361103b57819250505061107e565b6000825111156110705780826040516020016110589291906131e6565b6040516020818303038152906040529250505061107e565b61107984611d3c565b925050505b919050565b60606000600754905060008167ffffffffffffffff8111156110a8576110a76129d3565b5b6040519080825280602002602001820160405280156110e157816020015b6110ce61249e565b8152602001906001900390816110c65790505b5090506000805b838110156112415760006001826110ff9190612f6f565b90506000600b60008381526020019081526020016000209050806040518060a0016040529081600082015481526020016001820160009054906101000a900473ffffffffffffffffffffffffffffffffffffffff1673ffffffffffffffffffffffffffffffffffffffff1673ffffffffffffffffffffffffffffffffffffffff1681526020016002820160009054906101000a900473ffffffffffffffffffffffffffffffffffffffff1673ffffffffffffffffffffffffffffffffffffffff1673ffffffffffffffffffffffffffffffffffffffff168152602001600382015481526020016004820160009054906101000a900460ff16151515158152505085858151811061121257611211612feb565b5b602002602001018190525060018461122a9190612f6f565b93505050808061123990612fa3565b9150506110e8565b5081935050505090565b6000600560008473ffffffffffffffffffffffffffffffffffffffff1673ffffffffffffffffffffffffffffffffffffffff16815260200190815260200160002060008373ffffffffffffffffffffffffffffffffffffffff1673ffffffffffffffffffffffffffffffffffffffff16815260200190815260200160002060009054906101000a900460ff16905092915050565b60007f80ac58cd000000000000000000000000000000000000000000000000000000007bffffffffffffffffffffffffffffffffffffffffffffffffffffffff1916827bffffffffffffffffffffffffffffffffffffffffffffffffffffffff191614806113aa57507f5b5e139f000000000000000000000000000000000000000000000000000000007bffffffffffffffffffffffffffffffffffffffffffffffffffffffff1916827bffffffffffffffffffffffffffffffffffffffffffffffffffffffff1916145b806113ba57506113b982611da4565b5b9050919050565b6113ca81611e0e565b611409576040517f08c379a000000000000000000000000000000000000000000000000000000000815260040161140090613066565b60405180910390fd5b50565b600033905090565b816004600083815260200190815260200160002060006101000a81548173ffffffffffffffffffffffffffffffffffffffff021916908373ffffffffffffffffffffffffffffffffffffffff160217905550808273ffffffffffffffffffffffffffffffffffffffff1661148783610add565b73ffffffffffffffffffffffffffffffffffffffff167f8c5be1e5ebec7d5bd14f71427d1e84f3dd0314c0f7b2291e5b200ac8c7c3b92560405160405180910390a45050565b6000806114d983610add565b90508073ffffffffffffffffffffffffffffffffffffffff168473ffffffffffffffffffffffffffffffffffffffff16148061151b575061151a818561124b565b5b8061155957508373ffffffffffffffffffffffffffffffffffffffff1661154184610529565b73ffffffffffffffffffffffffffffffffffffffff16145b91505092915050565b8273ffffffffffffffffffffffffffffffffffffffff1661158282610add565b73ffffffffffffffffffffffffffffffffffffffff16146115d8576040517f08c379a00000000000000000000000000000000000000000000000000000000081526004016115cf9061327c565b60405180910390fd5b600073ffffffffffffffffffffffffffffffffffffffff168273ffffffffffffffffffffffffffffffffffffffff1603611647576040517f08c379a000000000000000000000000000000000000000000000000000000000815260040161163e9061330e565b60405180910390fd5b6116548383836001611e4f565b8273ffffffffffffffffffffffffffffffffffffffff1661167482610add565b73ffffffffffffffffffffffffffffffffffffffff16146116ca576040517f08c379a00000000000000000000000000000000000000000000000000000000081526004016116c19061327c565b60405180910390fd5b6004600082815260200190815260200160002060006101000a81549073ffffffffffffffffffffffffffffffffffffffff02191690556001600360008573ffffffffffffffffffffffffffffffffffffffff1673ffffffffffffffffffffffffffffffffffffffff168152602001908152602001600020600082825403925050819055506001600360008473ffffffffffffffffffffffffffffffffffffffff1673ffffffffffffffffffffffffffffffffffffffff16815260200190815260200160002060008282540192505081905550816002600083815260200190815260200160002060006101000a81548173ffffffffffffffffffffffffffffffffffffffff021916908373ffffffffffffffffffffffffffffffffffffffff160217905550808273ffffffffffffffffffffffffffffffffffffffff168473ffffffffffffffffffffffffffffffffffffffff167fddf252ad1be2c89b69c2b068fc378daa952ba7f163c4a11628f55a4df523b3ef60405160405180910390a46118568383836001611e55565b505050565b60006002600083815260200190815260200160002060009054906101000a900473ffffffffffffffffffffffffffffffffffffffff169050919050565b6118b2828260405180602001604052806000815250611e5b565b5050565b6118bf82611e0e565b6118fe576040517f08c379a00000000000000000000000000000000000000000000000000000000081526004016118f5906133a0565b60405180910390fd5b8060066000848152602001908152602001600020908161191e919061356c565b507ff8e1a15aba9398e019f0b49df1a4fde98ee17ae345cb5f6b5e2c27f5033e8ce78260405161194e91906129ae565b60405180910390a15050565b600a54341461199e576040517f08c379a0000000000000000000000000000000000000000000000000000000008152600401611995906136b0565b60405180910390fd5b600081116119e1576040517f08c379a00000000000000000000000000000000000000000000000000000000081526004016119d890613742565b60405180910390fd5b6040518060a001604052808381526020013073ffffffffffffffffffffffffffffffffffffffff1681526020013373ffffffffffffffffffffffffffffffffffffffff16815260200182815260200160011515815250600b60008481526020019081526020016000206000820151816000015560208201518160010160006101000a81548173ffffffffffffffffffffffffffffffffffffffff021916908373ffffffffffffffffffffffffffffffffffffffff16021790555060408201518160020160006101000a81548173ffffffffffffffffffffffffffffffffffffffff021916908373ffffffffffffffffffffffffffffffffffffffff1602179055506060820151816003015560808201518160040160006101000a81548160ff021916908315150217905550905050611b1a333084611562565b817f9339409317fd01fabff48b703019016f49159bacc801ae872d2ca637d226e4c03033846001604051611b519493929190613762565b60405180910390a25050565b8173ffffffffffffffffffffffffffffffffffffffff168373ffffffffffffffffffffffffffffffffffffffff1603611bcb576040517f08c379a0000000000000000000000000000000000000000000000000000000008152600401611bc2906137f3565b60405180910390fd5b80600560008573ffffffffffffffffffffffffffffffffffffffff1673ffffffffffffffffffffffffffffffffffffffff16815260200190815260200160002060008473ffffffffffffffffffffffffffffffffffffffff1673ffffffffffffffffffffffffffffffffffffffff16815260200190815260200160002060006101000a81548160ff0219169083151502179055508173ffffffffffffffffffffffffffffffffffffffff168373ffffffffffffffffffffffffffffffffffffffff167f17307eab39ab6107e8899845ad3d59bd9653f200f220920489ca2b5937696c3183604051611cbc91906125af565b60405180910390a3505050565b611cd4848484611562565b611ce084848484611eb6565b611d1f576040517f08c379a0000000000000000000000000000000000000000000000000000000008152600401611d1690613885565b60405180910390fd5b50505050565b606060405180602001604052806000815250905090565b6060611d47826113c1565b6000611d51611d25565b90506000815111611d715760405180602001604052806000815250611d9c565b80611d7b8461203d565b604051602001611d8c9291906131e6565b6040516020818303038152906040525b915050919050565b60007f01ffc9a7000000000000000000000000000000000000000000000000000000007bffffffffffffffffffffffffffffffffffffffffffffffffffffffff1916827bffffffffffffffffffffffffffffffffffffffffffffffffffffffff1916149050919050565b60008073ffffffffffffffffffffffffffffffffffffffff16611e308361185b565b73ffffffffffffffffffffffffffffffffffffffff1614159050919050565b50505050565b50505050565b611e65838361210b565b611e726000848484611eb6565b611eb1576040517f08c379a0000000000000000000000000000000000000000000000000000000008152600401611ea890613885565b60405180910390fd5b505050565b6000611ed78473ffffffffffffffffffffffffffffffffffffffff16612328565b15612030578373ffffffffffffffffffffffffffffffffffffffff1663150b7a02611f0061140c565b8786866040518563ffffffff1660e01b8152600401611f2294939291906138fa565b6020604051808303816000875af1925050508015611f5e57506040513d601f19601f82011682018060405250810190611f5b919061395b565b60015b611fe0573d8060008114611f8e576040519150601f19603f3d011682016040523d82523d6000602084013e611f93565b606091505b506000815103611fd8576040517f08c379a0000000000000000000000000000000000000000000000000000000008152600401611fcf90613885565b60405180910390fd5b805181602001fd5b63150b7a0260e01b7bffffffffffffffffffffffffffffffffffffffffffffffffffffffff1916817bffffffffffffffffffffffffffffffffffffffffffffffffffffffff191614915050612035565b600190505b949350505050565b60606000600161204c8461234b565b01905060008167ffffffffffffffff81111561206b5761206a6129d3565b5b6040519080825280601f01601f19166020018201604052801561209d5781602001600182028036833780820191505090505b509050600082602001820190505b600115612100578080600190039150507f3031323334353637383961626364656600000000000000000000000000000000600a86061a8153600a85816120f4576120f3613988565b5b049450600085036120ab575b819350505050919050565b600073ffffffffffffffffffffffffffffffffffffffff168273ffffffffffffffffffffffffffffffffffffffff160361217a576040517f08c379a000000000000000000000000000000000000000000000000000000000815260040161217190613a03565b60405180910390fd5b61218381611e0e565b156121c3576040517f08c379a00000000000000000000000000000000000000000000000000000000081526004016121ba90613a6f565b60405180910390fd5b6121d1600083836001611e4f565b6121da81611e0e565b1561221a576040517f08c379a000000000000000000000000000000000000000000000000000000000815260040161221190613a6f565b60405180910390fd5b6001600360008473ffffffffffffffffffffffffffffffffffffffff1673ffffffffffffffffffffffffffffffffffffffff16815260200190815260200160002060008282540192505081905550816002600083815260200190815260200160002060006101000a81548173ffffffffffffffffffffffffffffffffffffffff021916908373ffffffffffffffffffffffffffffffffffffffff160217905550808273ffffffffffffffffffffffffffffffffffffffff16600073ffffffffffffffffffffffffffffffffffffffff167fddf252ad1be2c89b69c2b068fc378daa952ba7f163c4a11628f55a4df523b3ef60405160405180910390a4612324600083836001611e55565b5050565b6000808273ffffffffffffffffffffffffffffffffffffffff163b119050919050565b600080600090507a184f03e93ff9f4daa797ed6e38ed64bf6a1f01000000000000000083106123a9577a184f03e93ff9f4daa797ed6e38ed64bf6a1f010000000000000000838161239f5761239e613988565b5b0492506040810190505b6d04ee2d6d415b85acef810000000083106123e6576d04ee2d6d415b85acef810000000083816123dc576123db613988565b5b0492506020810190505b662386f26fc10000831061241557662386f26fc10000838161240b5761240a613988565b5b0492506010810190505b6305f5e100831061243e576305f5e100838161243457612433613988565b5b0492506008810190505b612710831061246357612710838161245957612458613988565b5b0492506004810190505b60648310612486576064838161247c5761247b613988565b5b0492506002810190505b600a8310612495576001810190505b80915050919050565b6040518060a0016040528060008152602001600073ffffffffffffffffffffffffffffffffffffffff168152602001600073ffffffffffffffffffffffffffffffffffffffff168152602001600081526020016000151581525090565b6000604051905090565b600080fd5b600080fd5b60007fffffffff0000000000000000000000000000000000000000000000000000000082169050919050565b6125448161250f565b811461254f57600080fd5b50565b6000813590506125618161253b565b92915050565b60006020828403121561257d5761257c612505565b5b600061258b84828501612552565b91505092915050565b60008115159050919050565b6125a981612594565b82525050565b60006020820190506125c460008301846125a0565b92915050565b600081519050919050565b600082825260208201905092915050565b60005b838110156126045780820151818401526020810190506125e9565b60008484015250505050565b6000601f19601f8301169050919050565b600061262c826125ca565b61263681856125d5565b93506126468185602086016125e6565b61264f81612610565b840191505092915050565b600060208201905081810360008301526126748184612621565b905092915050565b6000819050919050565b61268f8161267c565b811461269a57600080fd5b50565b6000813590506126ac81612686565b92915050565b6000602082840312156126c8576126c7612505565b5b60006126d68482850161269d565b91505092915050565b600073ffffffffffffffffffffffffffffffffffffffff82169050919050565b600061270a826126df565b9050919050565b61271a816126ff565b82525050565b60006020820190506127356000830184612711565b92915050565b612744816126ff565b811461274f57600080fd5b50565b6000813590506127618161273b565b92915050565b6000806040838503121561277e5761277d612505565b5b600061278c85828601612752565b925050602061279d8582860161269d565b9150509250929050565b6000806000606084860312156127c0576127bf612505565b5b60006127ce86828701612752565b93505060206127df86828701612752565b92505060406127f08682870161269d565b9150509250925092565b600081519050919050565b600082825260208201905092915050565b6000819050602082019050919050565b61282f8161267c565b82525050565b6000612840826126df565b9050919050565b61285081612835565b82525050565b61285f81612594565b82525050565b60a08201600082015161287b6000850182612826565b50602082015161288e6020850182612847565b5060408201516128a16040850182612847565b5060608201516128b46060850182612826565b5060808201516128c76080850182612856565b50505050565b60006128d98383612865565b60a08301905092915050565b6000602082019050919050565b60006128fd826127fa565b6129078185612805565b935061291283612816565b8060005b8381101561294357815161292a88826128cd565b9750612935836128e5565b925050600181019050612916565b5085935050505092915050565b6000602082019050818103600083015261296a81846128f2565b905092915050565b60006020828403121561298857612987612505565b5b600061299684828501612752565b91505092915050565b6129a88161267c565b82525050565b60006020820190506129c3600083018461299f565b92915050565b600080fd5b600080fd5b7f4e487b7100000000000000000000000000000000000000000000000000000000600052604160045260246000fd5b612a0b82612610565b810181811067ffffffffffffffff82111715612a2a57612a296129d3565b5b80604052505050565b6000612a3d6124fb565b9050612a498282612a02565b919050565b600067ffffffffffffffff821115612a6957612a686129d3565b5b612a7282612610565b9050602081019050919050565b82818337600083830152505050565b6000612aa1612a9c84612a4e565b612a33565b905082815260208101848484011115612abd57612abc6129ce565b5b612ac8848285612a7f565b509392505050565b600082601f830112612ae557612ae46129c9565b5b8135612af5848260208601612a8e565b91505092915050565b60008060408385031215612b1557612b14612505565b5b600083013567ffffffffffffffff811115612b3357612b3261250a565b5b612b3f85828601612ad0565b9250506020612b508582860161269d565b9150509250929050565b612b6381612594565b8114612b6e57600080fd5b50565b600081359050612b8081612b5a565b92915050565b60008060408385031215612b9d57612b9c612505565b5b6000612bab85828601612752565b9250506020612bbc85828601612b71565b9150509250929050565b600067ffffffffffffffff821115612be157612be06129d3565b5b612bea82612610565b9050602081019050919050565b6000612c0a612c0584612bc6565b612a33565b905082815260208101848484011115612c2657612c256129ce565b5b612c31848285612a7f565b509392505050565b600082601f830112612c4e57612c4d6129c9565b5b8135612c5e848260208601612bf7565b91505092915050565b60008060008060808587031215612c8157612c80612505565b5b6000612c8f87828801612752565b9450506020612ca087828801612752565b9350506040612cb18782880161269d565b925050606085013567ffffffffffffffff811115612cd257612cd161250a565b5b612cde87828801612c39565b91505092959194509250565b60008060408385031215612d0157612d00612505565b5b6000612d0f85828601612752565b9250506020612d2085828601612752565b9150509250929050565b7f4e487b7100000000000000000000000000000000000000000000000000000000600052602260045260246000fd5b60006002820490506001821680612d7157607f821691505b602082108103612d8457612d83612d2a565b5b50919050565b7f4552433732313a20617070726f76616c20746f2063757272656e74206f776e6560008201527f7200000000000000000000000000000000000000000000000000000000000000602082015250565b6000612de66021836125d5565b9150612df182612d8a565b604082019050919050565b60006020820190508181036000830152612e1581612dd9565b9050919050565b7f4552433732313a20617070726f76652063616c6c6572206973206e6f7420746f60008201527f6b656e206f776e6572206f7220617070726f76656420666f7220616c6c000000602082015250565b6000612e78603d836125d5565b9150612e8382612e1c565b604082019050919050565b60006020820190508181036000830152612ea781612e6b565b9050919050565b7f4552433732313a2063616c6c6572206973206e6f7420746f6b656e206f776e6560008201527f72206f7220617070726f76656400000000000000000000000000000000000000602082015250565b6000612f0a602d836125d5565b9150612f1582612eae565b604082019050919050565b60006020820190508181036000830152612f3981612efd565b9050919050565b7f4e487b7100000000000000000000000000000000000000000000000000000000600052601160045260246000fd5b6000612f7a8261267c565b9150612f858361267c565b9250828201905080821115612f9d57612f9c612f40565b5b92915050565b6000612fae8261267c565b91507fffffffffffffffffffffffffffffffffffffffffffffffffffffffffffffffff8203612fe057612fdf612f40565b5b600182019050919050565b7f4e487b7100000000000000000000000000000000000000000000000000000000600052603260045260246000fd5b7f4552433732313a20696e76616c696420746f6b656e2049440000000000000000600082015250565b60006130506018836125d5565b915061305b8261301a565b602082019050919050565b6000602082019050818103600083015261307f81613043565b9050919050565b7f4552433732313a2061646472657373207a65726f206973206e6f74206120766160008201527f6c6964206f776e65720000000000000000000000000000000000000000000000602082015250565b60006130e26029836125d5565b91506130ed82613086565b604082019050919050565b60006020820190508181036000830152613111816130d5565b9050919050565b7f506c65617365207375626d6974207468652061736b696e67207072696365206960008201527f6e206f7264657220746f20636f6d706c65746520746865207075726368617365602082015250565b60006131746040836125d5565b915061317f82613118565b604082019050919050565b600060208201905081810360008301526131a381613167565b9050919050565b600081905092915050565b60006131c0826125ca565b6131ca81856131aa565b93506131da8185602086016125e6565b80840191505092915050565b60006131f282856131b5565b91506131fe82846131b5565b91508190509392505050565b7f4552433732313a207472616e736665722066726f6d20696e636f72726563742060008201527f6f776e6572000000000000000000000000000000000000000000000000000000602082015250565b60006132666025836125d5565b91506132718261320a565b604082019050919050565b6000602082019050818103600083015261329581613259565b9050919050565b7f4552433732313a207472616e7366657220746f20746865207a65726f2061646460008201527f7265737300000000000000000000000000000000000000000000000000000000602082015250565b60006132f86024836125d5565b91506133038261329c565b604082019050919050565b60006020820190508181036000830152613327816132eb565b9050919050565b7f45524337323155524953746f726167653a2055524920736574206f66206e6f6e60008201527f6578697374656e7420746f6b656e000000000000000000000000000000000000602082015250565b600061338a602e836125d5565b91506133958261332e565b604082019050919050565b600060208201905081810360008301526133b98161337d565b9050919050565b60008190508160005260206000209050919050565b60006020601f8301049050919050565b600082821b905092915050565b6000600883026134227fffffffffffffffffffffffffffffffffffffffffffffffffffffffffffffffff826133e5565b61342c86836133e5565b95508019841693508086168417925050509392505050565b6000819050919050565b600061346961346461345f8461267c565b613444565b61267c565b9050919050565b6000819050919050565b6134838361344e565b61349761348f82613470565b8484546133f2565b825550505050565b600090565b6134ac61349f565b6134b781848461347a565b505050565b5b818110156134db576134d06000826134a4565b6001810190506134bd565b5050565b601f821115613520576134f1816133c0565b6134fa846133d5565b81016020851015613509578190505b61351d613515856133d5565b8301826134bc565b50505b505050565b600082821c905092915050565b600061354360001984600802613525565b1980831691505092915050565b600061355c8383613532565b9150826002028217905092915050565b613575826125ca565b67ffffffffffffffff81111561358e5761358d6129d3565b5b6135988254612d59565b6135a38282856134df565b600060209050601f8311600181146135d657600084156135c4578287015190505b6135ce8582613550565b865550613636565b601f1984166135e4866133c0565b60005b8281101561360c578489015182556001820191506020850194506020810190506135e7565b868310156136295784890151613625601f891682613532565b8355505b6001600288020188555050505b505050505050565b7f486f706566756c6c792073656e64696e672074686520636f727265637420707260008201527f6963650000000000000000000000000000000000000000000000000000000000602082015250565b600061369a6023836125d5565b91506136a58261363e565b604082019050919050565b600060208201905081810360008301526136c98161368d565b9050919050565b7f4d616b652073757265207468652070726963652069736e2774206e656761746960008201527f7665000000000000000000000000000000000000000000000000000000000000602082015250565b600061372c6022836125d5565b9150613737826136d0565b604082019050919050565b6000602082019050818103600083015261375b8161371f565b9050919050565b60006080820190506137776000830187612711565b6137846020830186612711565b613791604083018561299f565b61379e60608301846125a0565b95945050505050565b7f4552433732313a20617070726f766520746f2063616c6c657200000000000000600082015250565b60006137dd6019836125d5565b91506137e8826137a7565b602082019050919050565b6000602082019050818103600083015261380c816137d0565b9050919050565b7f4552433732313a207472616e7366657220746f206e6f6e20455243373231526560008201527f63656976657220696d706c656d656e7465720000000000000000000000000000602082015250565b600061386f6032836125d5565b915061387a82613813565b604082019050919050565b6000602082019050818103600083015261389e81613862565b9050919050565b600081519050919050565b600082825260208201905092915050565b60006138cc826138a5565b6138d681856138b0565b93506138e68185602086016125e6565b6138ef81612610565b840191505092915050565b600060808201905061390f6000830187612711565b61391c6020830186612711565b613929604083018561299f565b818103606083015261393b81846138c1565b905095945050505050565b6000815190506139558161253b565b92915050565b60006020828403121561397157613970612505565b5b600061397f84828501613946565b91505092915050565b7f4e487b7100000000000000000000000000000000000000000000000000000000600052601260045260246000fd5b7f4552433732313a206d696e7420746f20746865207a65726f2061646472657373600082015250565b60006139ed6020836125d5565b91506139f8826139b7565b602082019050919050565b60006020820190508181036000830152613a1c816139e0565b9050919050565b7f4552433732313a20746f6b656e20616c7265616479206d696e74656400000000600082015250565b6000613a59601c836125d5565b9150613a6482613a23565b602082019050919050565b60006020820190508181036000830152613a8881613a4c565b905091905056fea2646970667358221220a61bc6203d648c53f1d4fc8a4e0638447968ba12f8a9050df4fce82314e3a26e64736f6c63430008130033",
  "linkReferences": {},
  "deployedLinkReferences": {}
}