{
  "_format": "hh-sol-artifact-1",
  "contractName": "NFTMarketplace",
  "sourceName": "contracts/Marketplace.sol",
  "abi": [
    {
      "inputs": [],
      "stateMutability": "nonpayable",
      "type": "constructor"
    },
    {
      "anonymous": false,
      "inputs": [
        {
          "indexed": true,
          "internalType": "address",
          "name": "owner",
          "type": "address"
        },
        {
          "indexed": true,
          "internalType": "address",
          "name": "approved",
          "type": "address"
        },
        {
          "indexed": true,
          "internalType": "uint256",
          "name": "tokenId",
          "type": "uint256"
        }
      ],
      "name": "Approval",
      "type": "event"
    },
    {
      "anonymous": false,
      "inputs": [
        {
          "indexed": true,
          "internalType": "address",
          "name": "owner",
          "type": "address"
        },
        {
          "indexed": true,
          "internalType": "address",
          "name": "operator",
          "type": "address"
        },
        {
          "indexed": false,
          "internalType": "bool",
          "name": "approved",
          "type": "bool"
        }
      ],
      "name": "ApprovalForAll",
      "type": "event"
    },
    {
      "anonymous": false,
      "inputs": [
        {
          "indexed": false,
          "internalType": "uint256",
          "name": "_fromTokenId",
          "type": "uint256"
        },
        {
          "indexed": false,
          "internalType": "uint256",
          "name": "_toTokenId",
          "type": "uint256"
        }
      ],
      "name": "BatchMetadataUpdate",
      "type": "event"
    },
    {
      "anonymous": false,
      "inputs": [
        {
          "indexed": false,
          "internalType": "uint256",
          "name": "_tokenId",
          "type": "uint256"
        }
      ],
      "name": "MetadataUpdate",
      "type": "event"
    },
    {
      "anonymous": false,
      "inputs": [
        {
          "indexed": true,
          "internalType": "uint256",
          "name": "tokenId",
          "type": "uint256"
        },
        {
          "indexed": false,
          "internalType": "address",
          "name": "owner",
          "type": "address"
        },
        {
          "indexed": false,
          "internalType": "address",
          "name": "seller",
          "type": "address"
        },
        {
          "indexed": false,
          "internalType": "uint256",
          "name": "price",
          "type": "uint256"
        },
        {
          "indexed": false,
          "internalType": "bool",
          "name": "currentlyListed",
          "type": "bool"
        }
      ],
      "name": "TokenListedSuccess",
      "type": "event"
    },
    {
      "anonymous": false,
      "inputs": [
        {
          "indexed": true,
          "internalType": "address",
          "name": "from",
          "type": "address"
        },
        {
          "indexed": true,
          "internalType": "address",
          "name": "to",
          "type": "address"
        },
        {
          "indexed": true,
          "internalType": "uint256",
          "name": "tokenId",
          "type": "uint256"
        }
      ],
      "name": "Transfer",
      "type": "event"
    },
    {
      "inputs": [
        {
          "internalType": "address",
          "name": "to",
          "type": "address"
        },
        {
          "internalType": "uint256",
          "name": "tokenId",
          "type": "uint256"
        }
      ],
      "name": "approve",
      "outputs": [],
      "stateMutability": "nonpayable",
      "type": "function"
    },
    {
      "inputs": [
        {
          "internalType": "address",
          "name": "owner",
          "type": "address"
        }
      ],
      "name": "balanceOf",
      "outputs": [
        {
          "internalType": "uint256",
          "name": "",
          "type": "uint256"
        }
      ],
      "stateMutability": "view",
      "type": "function"
    },
    {
      "inputs": [
        {
          "internalType": "string",
          "name": "tokenURI",
          "type": "string"
        }
      ],
      "name": "createToken",
      "outputs": [
        {
          "internalType": "uint256",
          "name": "",
          "type": "uint256"
        }
      ],
      "stateMutability": "nonpayable",
      "type": "function"
    },
    {
      "inputs": [
        {
          "internalType": "uint256",
          "name": "tokenId",
          "type": "uint256"
        }
      ],
      "name": "executeSale",
      "outputs": [],
      "stateMutability": "payable",
      "type": "function"
    },
    {
      "inputs": [],
      "name": "getAllNFTs",
      "outputs": [
        {
          "components": [
            {
              "internalType": "uint256",
              "name": "tokenId",
              "type": "uint256"
            },
            {
              "internalType": "address payable",
              "name": "owner",
              "type": "address"
            },
            {
              "internalType": "address payable",
              "name": "seller",
              "type": "address"
            },
            {
              "internalType": "uint256",
              "name": "price",
              "type": "uint256"
            },
            {
              "internalType": "bool",
              "name": "currentlyListed",
              "type": "bool"
            }
          ],
          "internalType": "struct NFTMarketplace.ListedToken[]",
          "name": "",
          "type": "tuple[]"
        }
      ],
      "stateMutability": "view",
      "type": "function"
    },
    {
      "inputs": [
        {
          "internalType": "uint256",
          "name": "tokenId",
          "type": "uint256"
        }
      ],
      "name": "getApproved",
      "outputs": [
        {
          "internalType": "address",
          "name": "",
          "type": "address"
        }
      ],
      "stateMutability": "view",
      "type": "function"
    },
    {
      "inputs": [],
      "name": "getMyNFTs",
      "outputs": [
        {
          "components": [
            {
              "internalType": "uint256",
              "name": "tokenId",
              "type": "uint256"
            },
            {
              "internalType": "address payable",
              "name": "owner",
              "type": "address"
            },
            {
              "internalType": "address payable",
              "name": "seller",
              "type": "address"
            },
            {
              "internalType": "uint256",
              "name": "price",
              "type": "uint256"
            },
            {
              "internalType": "bool",
              "name": "currentlyListed",
              "type": "bool"
            }
          ],
          "internalType": "struct NFTMarketplace.ListedToken[]",
          "name": "",
          "type": "tuple[]"
        }
      ],
      "stateMutability": "view",
      "type": "function"
    },
    {
      "inputs": [
        {
          "internalType": "address",
          "name": "owner",
          "type": "address"
        },
        {
          "internalType": "address",
          "name": "operator",
          "type": "address"
        }
      ],
      "name": "isApprovedForAll",
      "outputs": [
        {
          "internalType": "bool",
          "name": "",
          "type": "bool"
        }
      ],
      "stateMutability": "view",
      "type": "function"
    },
    {
      "inputs": [
        {
          "internalType": "uint256",
          "name": "tokenId",
          "type": "uint256"
        },
        {
          "internalType": "uint256",
          "name": "price",
          "type": "uint256"
        }
      ],
      "name": "listToken",
      "outputs": [],
      "stateMutability": "payable",
      "type": "function"
    },
    {
      "inputs": [],
      "name": "name",
      "outputs": [
        {
          "internalType": "string",
          "name": "",
          "type": "string"
        }
      ],
      "stateMutability": "view",
      "type": "function"
    },
    {
      "inputs": [
        {
          "internalType": "uint256",
          "name": "tokenId",
          "type": "uint256"
        }
      ],
      "name": "ownerOf",
      "outputs": [
        {
          "internalType": "address",
          "name": "",
          "type": "address"
        }
      ],
      "stateMutability": "view",
      "type": "function"
    },
    {
      "inputs": [
        {
          "internalType": "address",
          "name": "from",
          "type": "address"
        },
        {
          "internalType": "address",
          "name": "to",
          "type": "address"
        },
        {
          "internalType": "uint256",
          "name": "tokenId",
          "type": "uint256"
        }
      ],
      "name": "safeTransferFrom",
      "outputs": [],
      "stateMutability": "nonpayable",
      "type": "function"
    },
    {
      "inputs": [
        {
          "internalType": "address",
          "name": "from",
          "type": "address"
        },
        {
          "internalType": "address",
          "name": "to",
          "type": "address"
        },
        {
          "internalType": "uint256",
          "name": "tokenId",
          "type": "uint256"
        },
        {
          "internalType": "bytes",
          "name": "data",
          "type": "bytes"
        }
      ],
      "name": "safeTransferFrom",
      "outputs": [],
      "stateMutability": "nonpayable",
      "type": "function"
    },
    {
      "inputs": [
        {
          "internalType": "address",
          "name": "operator",
          "type": "address"
        },
        {
          "internalType": "bool",
          "name": "approved",
          "type": "bool"
        }
      ],
      "name": "setApprovalForAll",
      "outputs": [],
      "stateMutability": "nonpayable",
      "type": "function"
    },
    {
      "inputs": [
        {
          "internalType": "bytes4",
          "name": "interfaceId",
          "type": "bytes4"
        }
      ],
      "name": "supportsInterface",
      "outputs": [
        {
          "internalType": "bool",
          "name": "",
          "type": "bool"
        }
      ],
      "stateMutability": "view",
      "type": "function"
    },
    {
      "inputs": [],
      "name": "symbol",
      "outputs": [
        {
          "internalType": "string",
          "name": "",
          "type": "string"
        }
      ],
      "stateMutability": "view",
      "type": "function"
    },
    {
      "inputs": [
        {
          "internalType": "uint256",
          "name": "tokenId",
          "type": "uint256"
        }
      ],
      "name": "tokenURI",
      "outputs": [
        {
          "internalType": "string",
          "name": "",
          "type": "string"
        }
      ],
      "stateMutability": "view",
      "type": "function"
    },
    {
      "inputs": [
        {
          "internalType": "address",
          "name": "from",
          "type": "address"
        },
        {
          "internalType": "address",
          "name": "to",
          "type": "address"
        },
        {
          "internalType": "uint256",
          "name": "tokenId",
          "type": "uint256"
        }
      ],
      "name": "transferFrom",
      "outputs": [],
      "stateMutability": "nonpayable",
      "type": "function"
    },
    {
      "inputs": [
        {
          "internalType": "uint256",
          "name": "tokenId",
          "type": "uint256"
        }
      ],
      "name": "unListToken",
      "outputs": [],
      "stateMutability": "payable",
      "type": "function"
    }
  ],
  "bytecode": "0x6080604052662386f26fc10000600a553480156200001c57600080fd5b506040518060400160405280601281526020017f4b69636b6574204d61726b6574706c61636500000000000000000000000000008152506040518060400160405280600581526020017f4b45544d4b00000000000000000000000000000000000000000000000000000081525081600090816200009a919062000370565b508060019081620000ac919062000370565b50505033600960006101000a81548173ffffffffffffffffffffffffffffffffffffffff021916908373ffffffffffffffffffffffffffffffffffffffff16021790555062000457565b600081519050919050565b7f4e487b7100000000000000000000000000000000000000000000000000000000600052604160045260246000fd5b7f4e487b7100000000000000000000000000000000000000000000000000000000600052602260045260246000fd5b600060028204905060018216806200017857607f821691505b6020821081036200018e576200018d62000130565b5b50919050565b60008190508160005260206000209050919050565b60006020601f8301049050919050565b600082821b905092915050565b600060088302620001f87fffffffffffffffffffffffffffffffffffffffffffffffffffffffffffffffff82620001b9565b620002048683620001b9565b95508019841693508086168417925050509392505050565b6000819050919050565b6000819050919050565b6000620002516200024b62000245846200021c565b62000226565b6200021c565b9050919050565b6000819050919050565b6200026d8362000230565b620002856200027c8262000258565b848454620001c6565b825550505050565b600090565b6200029c6200028d565b620002a981848462000262565b505050565b5b81811015620002d157620002c560008262000292565b600181019050620002af565b5050565b601f8211156200032057620002ea8162000194565b620002f584620001a9565b8101602085101562000305578190505b6200031d6200031485620001a9565b830182620002ae565b50505b505050565b600082821c905092915050565b6000620003456000198460080262000325565b1980831691505092915050565b600062000360838362000332565b9150826002028217905092915050565b6200037b82620000f6565b67ffffffffffffffff81111562000397576200039662000101565b5b620003a382546200015f565b620003b0828285620002d5565b600060209050601f831160018114620003e85760008415620003d3578287015190505b620003df858262000352565b8655506200044f565b601f198416620003f88662000194565b60005b828110156200042257848901518255600182019150602085019450602081019050620003fb565b868310156200044257848901516200043e601f89168262000332565b8355505b6001600288020188555050505b505050505050565b613bf080620004676000396000f3fe6080604052600436106101145760003560e01c806370a08231116100a0578063b88d4fde11610064578063b88d4fde146103a7578063c87b56dd146103d0578063e0391b091461040d578063e985e9c514610438578063f9a617841461047557610114565b806370a08231146102de57806375c1631d1461031b57806395d89b41146103375780639b1225c414610362578063a22cb4651461037e57610114565b806323b872dd116100e757806323b872dd146101e757806342842e0e1461021057806345576f9414610239578063629cb2e4146102765780636352211e146102a157610114565b806301ffc9a71461011957806306fdde0314610156578063081812fc14610181578063095ea7b3146101be575b600080fd5b34801561012557600080fd5b50610140600480360381019061013b9190612665565b610491565b60405161014d91906126ad565b60405180910390f35b34801561016257600080fd5b5061016b6104f2565b6040516101789190612758565b60405180910390f35b34801561018d57600080fd5b506101a860048036038101906101a391906127b0565b610584565b6040516101b5919061281e565b60405180910390f35b3480156101ca57600080fd5b506101e560048036038101906101e09190612865565b6105ca565b005b3480156101f357600080fd5b5061020e600480360381019061020991906128a5565b6106e1565b005b34801561021c57600080fd5b50610237600480360381019061023291906128a5565b610741565b005b34801561024557600080fd5b50610260600480360381019061025b9190612a2d565b610761565b60405161026d9190612a85565b60405180910390f35b34801561028257600080fd5b5061028b6107a1565b6040516102989190612bf6565b60405180910390f35b3480156102ad57600080fd5b506102c860048036038101906102c391906127b0565b610b78565b6040516102d5919061281e565b60405180910390f35b3480156102ea57600080fd5b5061030560048036038101906103009190612c18565b610bfe565b6040516103129190612a85565b60405180910390f35b61033560048036038101906103309190612c45565b610cb5565b005b34801561034357600080fd5b5061034c610cc3565b6040516103599190612758565b60405180910390f35b61037c600480360381019061037791906127b0565b610d55565b005b34801561038a57600080fd5b506103a560048036038101906103a09190612cb1565b610f57565b005b3480156103b357600080fd5b506103ce60048036038101906103c99190612d92565b610f6d565b005b3480156103dc57600080fd5b506103f760048036038101906103f291906127b0565b610fcf565b6040516104049190612758565b60405180910390f35b34801561041957600080fd5b506104226110e1565b60405161042f9190612bf6565b60405180910390f35b34801561044457600080fd5b5061045f600480360381019061045a9190612e15565b6112d3565b60405161046c91906126ad565b60405180910390f35b61048f600480360381019061048a91906127b0565b611367565b005b6000634906490660e01b7bffffffffffffffffffffffffffffffffffffffffffffffffffffffff1916827bffffffffffffffffffffffffffffffffffffffffffffffffffffffff191614806104eb57506104ea826113dd565b5b9050919050565b60606000805461050190612e84565b80601f016020809104026020016040519081016040528092919081815260200182805461052d90612e84565b801561057a5780601f1061054f5761010080835404028352916020019161057a565b820191906000526020600020905b81548152906001019060200180831161055d57829003601f168201915b5050505050905090565b600061058f826114bf565b6004600083815260200190815260200160002060009054906101000a900473ffffffffffffffffffffffffffffffffffffffff169050919050565b60006105d582610b78565b90508073ffffffffffffffffffffffffffffffffffffffff168373ffffffffffffffffffffffffffffffffffffffff1603610645576040517f08c379a000000000000000000000000000000000000000000000000000000000815260040161063c90612f27565b60405180910390fd5b8073ffffffffffffffffffffffffffffffffffffffff1661066461150a565b73ffffffffffffffffffffffffffffffffffffffff16148061069357506106928161068d61150a565b6112d3565b5b6106d2576040517f08c379a00000000000000000000000000000000000000000000000000000000081526004016106c990612fb9565b60405180910390fd5b6106dc8383611512565b505050565b6106f26106ec61150a565b826115cb565b610731576040517f08c379a00000000000000000000000000000000000000000000000000000000081526004016107289061304b565b60405180910390fd5b61073c838383611660565b505050565b61075c83838360405180602001604052806000815250610f6d565b505050565b6000600160076000828254610776919061309a565b925050819055506000600754905061078e3382611959565b6107988184611977565b80915050919050565b60606000600754905060008060005b838110156108c9573373ffffffffffffffffffffffffffffffffffffffff16600b60006001846107e0919061309a565b815260200190815260200160002060010160009054906101000a900473ffffffffffffffffffffffffffffffffffffffff1673ffffffffffffffffffffffffffffffffffffffff1614806108a157503373ffffffffffffffffffffffffffffffffffffffff16600b6000600184610857919061309a565b815260200190815260200160002060020160009054906101000a900473ffffffffffffffffffffffffffffffffffffffff1673ffffffffffffffffffffffffffffffffffffffff16145b156108b6576001836108b3919061309a565b92505b80806108c1906130ce565b9150506107b0565b5060008267ffffffffffffffff8111156108e6576108e5612902565b5b60405190808252806020026020018201604052801561091f57816020015b61090c61259c565b8152602001906001900390816109045790505b50905060005b84811015610b6d573373ffffffffffffffffffffffffffffffffffffffff16600b6000600184610955919061309a565b815260200190815260200160002060010160009054906101000a900473ffffffffffffffffffffffffffffffffffffffff1673ffffffffffffffffffffffffffffffffffffffff161480610a1657503373ffffffffffffffffffffffffffffffffffffffff16600b60006001846109cc919061309a565b815260200190815260200160002060020160009054906101000a900473ffffffffffffffffffffffffffffffffffffffff1673ffffffffffffffffffffffffffffffffffffffff16145b15610b5a576000600182610a2a919061309a565b90506000600b60008381526020019081526020016000209050806040518060a0016040529081600082015481526020016001820160009054906101000a900473ffffffffffffffffffffffffffffffffffffffff1673ffffffffffffffffffffffffffffffffffffffff1673ffffffffffffffffffffffffffffffffffffffff1681526020016002820160009054906101000a900473ffffffffffffffffffffffffffffffffffffffff1673ffffffffffffffffffffffffffffffffffffffff1673ffffffffffffffffffffffffffffffffffffffff168152602001600382015481526020016004820160009054906101000a900460ff161515151581525050848681518110610b3d57610b3c613116565b5b6020026020010181905250600185610b55919061309a565b945050505b8080610b65906130ce565b915050610925565b508094505050505090565b600080610b8483611a1b565b9050600073ffffffffffffffffffffffffffffffffffffffff168173ffffffffffffffffffffffffffffffffffffffff1603610bf5576040517f08c379a0000000000000000000000000000000000000000000000000000000008152600401610bec90613191565b60405180910390fd5b80915050919050565b60008073ffffffffffffffffffffffffffffffffffffffff168273ffffffffffffffffffffffffffffffffffffffff1603610c6e576040517f08c379a0000000000000000000000000000000000000000000000000000000008152600401610c6590613223565b60405180910390fd5b600360008373ffffffffffffffffffffffffffffffffffffffff1673ffffffffffffffffffffffffffffffffffffffff168152602001908152602001600020549050919050565b610cbf8282611a58565b5050565b606060018054610cd290612e84565b80601f0160208091040260200160405190810160405280929190818152602001828054610cfe90612e84565b8015610d4b5780601f10610d2057610100808354040283529160200191610d4b565b820191906000526020600020905b815481529060010190602001808311610d2e57829003601f168201915b5050505050905090565b6000600b60008381526020019081526020016000206003015490506000600b600084815260200190815260200160002060020160009054906101000a900473ffffffffffffffffffffffffffffffffffffffff169050813414610ded576040517f08c379a0000000000000000000000000000000000000000000000000000000008152600401610de4906132b5565b60405180910390fd5b6001600b600085815260200190815260200160002060040160006101000a81548160ff02191690831515021790555033600b600085815260200190815260200160002060020160006101000a81548173ffffffffffffffffffffffffffffffffffffffff021916908373ffffffffffffffffffffffffffffffffffffffff160217905550600160086000828254610e84919061309a565b92505081905550610e96303385611660565b610ea030846105ca565b600960009054906101000a900473ffffffffffffffffffffffffffffffffffffffff1673ffffffffffffffffffffffffffffffffffffffff166108fc600a549081150290604051600060405180830381858888f19350505050158015610f0a573d6000803e3d6000fd5b508073ffffffffffffffffffffffffffffffffffffffff166108fc349081150290604051600060405180830381858888f19350505050158015610f51573d6000803e3d6000fd5b50505050565b610f69610f6261150a565b8383611c5b565b5050565b610f7e610f7861150a565b836115cb565b610fbd576040517f08c379a0000000000000000000000000000000000000000000000000000000008152600401610fb49061304b565b60405180910390fd5b610fc984848484611dc7565b50505050565b6060610fda826114bf565b6000600660008481526020019081526020016000208054610ffa90612e84565b80601f016020809104026020016040519081016040528092919081815260200182805461102690612e84565b80156110735780601f1061104857610100808354040283529160200191611073565b820191906000526020600020905b81548152906001019060200180831161105657829003601f168201915b505050505090506000611084611e23565b905060008151036110995781925050506110dc565b6000825111156110ce5780826040516020016110b6929190613311565b604051602081830303815290604052925050506110dc565b6110d784611e3a565b925050505b919050565b60606000600754905060008167ffffffffffffffff81111561110657611105612902565b5b60405190808252806020026020018201604052801561113f57816020015b61112c61259c565b8152602001906001900390816111245790505b5090506000805b838110156112c957600060018261115d919061309a565b90506000600b60008381526020019081526020016000209050600b600083815260200190815260200160002060040160009054906101000a900460ff16156112b457806040518060a0016040529081600082015481526020016001820160009054906101000a900473ffffffffffffffffffffffffffffffffffffffff1673ffffffffffffffffffffffffffffffffffffffff1673ffffffffffffffffffffffffffffffffffffffff1681526020016002820160009054906101000a900473ffffffffffffffffffffffffffffffffffffffff1673ffffffffffffffffffffffffffffffffffffffff1673ffffffffffffffffffffffffffffffffffffffff168152602001600382015481526020016004820160009054906101000a900460ff16151515158152505085858151811061129957611298613116565b5b60200260200101819052506001846112b1919061309a565b93505b505080806112c1906130ce565b915050611146565b5081935050505090565b6000600560008473ffffffffffffffffffffffffffffffffffffffff1673ffffffffffffffffffffffffffffffffffffffff16815260200190815260200160002060008373ffffffffffffffffffffffffffffffffffffffff1673ffffffffffffffffffffffffffffffffffffffff16815260200190815260200160002060009054906101000a900460ff16905092915050565b600a5434146113ab576040517f08c379a00000000000000000000000000000000000000000000000000000000081526004016113a2906133a7565b60405180910390fd5b6000600b600083815260200190815260200160002060040160006101000a81548160ff02191690831515021790555050565b60007f80ac58cd000000000000000000000000000000000000000000000000000000007bffffffffffffffffffffffffffffffffffffffffffffffffffffffff1916827bffffffffffffffffffffffffffffffffffffffffffffffffffffffff191614806114a857507f5b5e139f000000000000000000000000000000000000000000000000000000007bffffffffffffffffffffffffffffffffffffffffffffffffffffffff1916827bffffffffffffffffffffffffffffffffffffffffffffffffffffffff1916145b806114b857506114b782611ea2565b5b9050919050565b6114c881611f0c565b611507576040517f08c379a00000000000000000000000000000000000000000000000000000000081526004016114fe90613191565b60405180910390fd5b50565b600033905090565b816004600083815260200190815260200160002060006101000a81548173ffffffffffffffffffffffffffffffffffffffff021916908373ffffffffffffffffffffffffffffffffffffffff160217905550808273ffffffffffffffffffffffffffffffffffffffff1661158583610b78565b73ffffffffffffffffffffffffffffffffffffffff167f8c5be1e5ebec7d5bd14f71427d1e84f3dd0314c0f7b2291e5b200ac8c7c3b92560405160405180910390a45050565b6000806115d783610b78565b90508073ffffffffffffffffffffffffffffffffffffffff168473ffffffffffffffffffffffffffffffffffffffff161480611619575061161881856112d3565b5b8061165757508373ffffffffffffffffffffffffffffffffffffffff1661163f84610584565b73ffffffffffffffffffffffffffffffffffffffff16145b91505092915050565b8273ffffffffffffffffffffffffffffffffffffffff1661168082610b78565b73ffffffffffffffffffffffffffffffffffffffff16146116d6576040517f08c379a00000000000000000000000000000000000000000000000000000000081526004016116cd90613439565b60405180910390fd5b600073ffffffffffffffffffffffffffffffffffffffff168273ffffffffffffffffffffffffffffffffffffffff1603611745576040517f08c379a000000000000000000000000000000000000000000000000000000000815260040161173c906134cb565b60405180910390fd5b6117528383836001611f4d565b8273ffffffffffffffffffffffffffffffffffffffff1661177282610b78565b73ffffffffffffffffffffffffffffffffffffffff16146117c8576040517f08c379a00000000000000000000000000000000000000000000000000000000081526004016117bf90613439565b60405180910390fd5b6004600082815260200190815260200160002060006101000a81549073ffffffffffffffffffffffffffffffffffffffff02191690556001600360008573ffffffffffffffffffffffffffffffffffffffff1673ffffffffffffffffffffffffffffffffffffffff168152602001908152602001600020600082825403925050819055506001600360008473ffffffffffffffffffffffffffffffffffffffff1673ffffffffffffffffffffffffffffffffffffffff16815260200190815260200160002060008282540192505081905550816002600083815260200190815260200160002060006101000a81548173ffffffffffffffffffffffffffffffffffffffff021916908373ffffffffffffffffffffffffffffffffffffffff160217905550808273ffffffffffffffffffffffffffffffffffffffff168473ffffffffffffffffffffffffffffffffffffffff167fddf252ad1be2c89b69c2b068fc378daa952ba7f163c4a11628f55a4df523b3ef60405160405180910390a46119548383836001611f53565b505050565b611973828260405180602001604052806000815250611f59565b5050565b61198082611f0c565b6119bf576040517f08c379a00000000000000000000000000000000000000000000000000000000081526004016119b69061355d565b60405180910390fd5b806006600084815260200190815260200160002090816119df9190613729565b507ff8e1a15aba9398e019f0b49df1a4fde98ee17ae345cb5f6b5e2c27f5033e8ce782604051611a0f9190612a85565b60405180910390a15050565b60006002600083815260200190815260200160002060009054906101000a900473ffffffffffffffffffffffffffffffffffffffff169050919050565b600a543414611a9c576040517f08c379a0000000000000000000000000000000000000000000000000000000008152600401611a93906133a7565b60405180910390fd5b60008111611adf576040517f08c379a0000000000000000000000000000000000000000000000000000000008152600401611ad69061386d565b60405180910390fd5b6040518060a001604052808381526020013073ffffffffffffffffffffffffffffffffffffffff1681526020013373ffffffffffffffffffffffffffffffffffffffff16815260200182815260200160011515815250600b60008481526020019081526020016000206000820151816000015560208201518160010160006101000a81548173ffffffffffffffffffffffffffffffffffffffff021916908373ffffffffffffffffffffffffffffffffffffffff16021790555060408201518160020160006101000a81548173ffffffffffffffffffffffffffffffffffffffff021916908373ffffffffffffffffffffffffffffffffffffffff1602179055506060820151816003015560808201518160040160006101000a81548160ff021916908315150217905550905050611c18333084611660565b817f9339409317fd01fabff48b703019016f49159bacc801ae872d2ca637d226e4c03033846001604051611c4f949392919061388d565b60405180910390a25050565b8173ffffffffffffffffffffffffffffffffffffffff168373ffffffffffffffffffffffffffffffffffffffff1603611cc9576040517f08c379a0000000000000000000000000000000000000000000000000000000008152600401611cc09061391e565b60405180910390fd5b80600560008573ffffffffffffffffffffffffffffffffffffffff1673ffffffffffffffffffffffffffffffffffffffff16815260200190815260200160002060008473ffffffffffffffffffffffffffffffffffffffff1673ffffffffffffffffffffffffffffffffffffffff16815260200190815260200160002060006101000a81548160ff0219169083151502179055508173ffffffffffffffffffffffffffffffffffffffff168373ffffffffffffffffffffffffffffffffffffffff167f17307eab39ab6107e8899845ad3d59bd9653f200f220920489ca2b5937696c3183604051611dba91906126ad565b60405180910390a3505050565b611dd2848484611660565b611dde84848484611fb4565b611e1d576040517f08c379a0000000000000000000000000000000000000000000000000000000008152600401611e14906139b0565b60405180910390fd5b50505050565b606060405180602001604052806000815250905090565b6060611e45826114bf565b6000611e4f611e23565b90506000815111611e6f5760405180602001604052806000815250611e9a565b80611e798461213b565b604051602001611e8a929190613311565b6040516020818303038152906040525b915050919050565b60007f01ffc9a7000000000000000000000000000000000000000000000000000000007bffffffffffffffffffffffffffffffffffffffffffffffffffffffff1916827bffffffffffffffffffffffffffffffffffffffffffffffffffffffff1916149050919050565b60008073ffffffffffffffffffffffffffffffffffffffff16611f2e83611a1b565b73ffffffffffffffffffffffffffffffffffffffff1614159050919050565b50505050565b50505050565b611f638383612209565b611f706000848484611fb4565b611faf576040517f08c379a0000000000000000000000000000000000000000000000000000000008152600401611fa6906139b0565b60405180910390fd5b505050565b6000611fd58473ffffffffffffffffffffffffffffffffffffffff16612426565b1561212e578373ffffffffffffffffffffffffffffffffffffffff1663150b7a02611ffe61150a565b8786866040518563ffffffff1660e01b81526004016120209493929190613a25565b6020604051808303816000875af192505050801561205c57506040513d601f19601f820116820180604052508101906120599190613a86565b60015b6120de573d806000811461208c576040519150601f19603f3d011682016040523d82523d6000602084013e612091565b606091505b5060008151036120d6576040517f08c379a00000000000000000000000000000000000000000000000000000000081526004016120cd906139b0565b60405180910390fd5b805181602001fd5b63150b7a0260e01b7bffffffffffffffffffffffffffffffffffffffffffffffffffffffff1916817bffffffffffffffffffffffffffffffffffffffffffffffffffffffff191614915050612133565b600190505b949350505050565b60606000600161214a84612449565b01905060008167ffffffffffffffff81111561216957612168612902565b5b6040519080825280601f01601f19166020018201604052801561219b5781602001600182028036833780820191505090505b509050600082602001820190505b6001156121fe578080600190039150507f3031323334353637383961626364656600000000000000000000000000000000600a86061a8153600a85816121f2576121f1613ab3565b5b049450600085036121a9575b819350505050919050565b600073ffffffffffffffffffffffffffffffffffffffff168273ffffffffffffffffffffffffffffffffffffffff1603612278576040517f08c379a000000000000000000000000000000000000000000000000000000000815260040161226f90613b2e565b60405180910390fd5b61228181611f0c565b156122c1576040517f08c379a00000000000000000000000000000000000000000000000000000000081526004016122b890613b9a565b60405180910390fd5b6122cf600083836001611f4d565b6122d881611f0c565b15612318576040517f08c379a000000000000000000000000000000000000000000000000000000000815260040161230f90613b9a565b60405180910390fd5b6001600360008473ffffffffffffffffffffffffffffffffffffffff1673ffffffffffffffffffffffffffffffffffffffff16815260200190815260200160002060008282540192505081905550816002600083815260200190815260200160002060006101000a81548173ffffffffffffffffffffffffffffffffffffffff021916908373ffffffffffffffffffffffffffffffffffffffff160217905550808273ffffffffffffffffffffffffffffffffffffffff16600073ffffffffffffffffffffffffffffffffffffffff167fddf252ad1be2c89b69c2b068fc378daa952ba7f163c4a11628f55a4df523b3ef60405160405180910390a4612422600083836001611f53565b5050565b6000808273ffffffffffffffffffffffffffffffffffffffff163b119050919050565b600080600090507a184f03e93ff9f4daa797ed6e38ed64bf6a1f01000000000000000083106124a7577a184f03e93ff9f4daa797ed6e38ed64bf6a1f010000000000000000838161249d5761249c613ab3565b5b0492506040810190505b6d04ee2d6d415b85acef810000000083106124e4576d04ee2d6d415b85acef810000000083816124da576124d9613ab3565b5b0492506020810190505b662386f26fc10000831061251357662386f26fc10000838161250957612508613ab3565b5b0492506010810190505b6305f5e100831061253c576305f5e100838161253257612531613ab3565b5b0492506008810190505b612710831061256157612710838161255757612556613ab3565b5b0492506004810190505b60648310612584576064838161257a57612579613ab3565b5b0492506002810190505b600a8310612593576001810190505b80915050919050565b6040518060a0016040528060008152602001600073ffffffffffffffffffffffffffffffffffffffff168152602001600073ffffffffffffffffffffffffffffffffffffffff168152602001600081526020016000151581525090565b6000604051905090565b600080fd5b600080fd5b60007fffffffff0000000000000000000000000000000000000000000000000000000082169050919050565b6126428161260d565b811461264d57600080fd5b50565b60008135905061265f81612639565b92915050565b60006020828403121561267b5761267a612603565b5b600061268984828501612650565b91505092915050565b60008115159050919050565b6126a781612692565b82525050565b60006020820190506126c2600083018461269e565b92915050565b600081519050919050565b600082825260208201905092915050565b60005b838110156127025780820151818401526020810190506126e7565b60008484015250505050565b6000601f19601f8301169050919050565b600061272a826126c8565b61273481856126d3565b93506127448185602086016126e4565b61274d8161270e565b840191505092915050565b60006020820190508181036000830152612772818461271f565b905092915050565b6000819050919050565b61278d8161277a565b811461279857600080fd5b50565b6000813590506127aa81612784565b92915050565b6000602082840312156127c6576127c5612603565b5b60006127d48482850161279b565b91505092915050565b600073ffffffffffffffffffffffffffffffffffffffff82169050919050565b6000612808826127dd565b9050919050565b612818816127fd565b82525050565b6000602082019050612833600083018461280f565b92915050565b612842816127fd565b811461284d57600080fd5b50565b60008135905061285f81612839565b92915050565b6000806040838503121561287c5761287b612603565b5b600061288a85828601612850565b925050602061289b8582860161279b565b9150509250929050565b6000806000606084860312156128be576128bd612603565b5b60006128cc86828701612850565b93505060206128dd86828701612850565b92505060406128ee8682870161279b565b9150509250925092565b600080fd5b600080fd5b7f4e487b7100000000000000000000000000000000000000000000000000000000600052604160045260246000fd5b61293a8261270e565b810181811067ffffffffffffffff8211171561295957612958612902565b5b80604052505050565b600061296c6125f9565b90506129788282612931565b919050565b600067ffffffffffffffff82111561299857612997612902565b5b6129a18261270e565b9050602081019050919050565b82818337600083830152505050565b60006129d06129cb8461297d565b612962565b9050828152602081018484840111156129ec576129eb6128fd565b5b6129f78482856129ae565b509392505050565b600082601f830112612a1457612a136128f8565b5b8135612a248482602086016129bd565b91505092915050565b600060208284031215612a4357612a42612603565b5b600082013567ffffffffffffffff811115612a6157612a60612608565b5b612a6d848285016129ff565b91505092915050565b612a7f8161277a565b82525050565b6000602082019050612a9a6000830184612a76565b92915050565b600081519050919050565b600082825260208201905092915050565b6000819050602082019050919050565b612ad58161277a565b82525050565b6000612ae6826127dd565b9050919050565b612af681612adb565b82525050565b612b0581612692565b82525050565b60a082016000820151612b216000850182612acc565b506020820151612b346020850182612aed565b506040820151612b476040850182612aed565b506060820151612b5a6060850182612acc565b506080820151612b6d6080850182612afc565b50505050565b6000612b7f8383612b0b565b60a08301905092915050565b6000602082019050919050565b6000612ba382612aa0565b612bad8185612aab565b9350612bb883612abc565b8060005b83811015612be9578151612bd08882612b73565b9750612bdb83612b8b565b925050600181019050612bbc565b5085935050505092915050565b60006020820190508181036000830152612c108184612b98565b905092915050565b600060208284031215612c2e57612c2d612603565b5b6000612c3c84828501612850565b91505092915050565b60008060408385031215612c5c57612c5b612603565b5b6000612c6a8582860161279b565b9250506020612c7b8582860161279b565b9150509250929050565b612c8e81612692565b8114612c9957600080fd5b50565b600081359050612cab81612c85565b92915050565b60008060408385031215612cc857612cc7612603565b5b6000612cd685828601612850565b9250506020612ce785828601612c9c565b9150509250929050565b600067ffffffffffffffff821115612d0c57612d0b612902565b5b612d158261270e565b9050602081019050919050565b6000612d35612d3084612cf1565b612962565b905082815260208101848484011115612d5157612d506128fd565b5b612d5c8482856129ae565b509392505050565b600082601f830112612d7957612d786128f8565b5b8135612d89848260208601612d22565b91505092915050565b60008060008060808587031215612dac57612dab612603565b5b6000612dba87828801612850565b9450506020612dcb87828801612850565b9350506040612ddc8782880161279b565b925050606085013567ffffffffffffffff811115612dfd57612dfc612608565b5b612e0987828801612d64565b91505092959194509250565b60008060408385031215612e2c57612e2b612603565b5b6000612e3a85828601612850565b9250506020612e4b85828601612850565b9150509250929050565b7f4e487b7100000000000000000000000000000000000000000000000000000000600052602260045260246000fd5b60006002820490506001821680612e9c57607f821691505b602082108103612eaf57612eae612e55565b5b50919050565b7f4552433732313a20617070726f76616c20746f2063757272656e74206f776e6560008201527f7200000000000000000000000000000000000000000000000000000000000000602082015250565b6000612f116021836126d3565b9150612f1c82612eb5565b604082019050919050565b60006020820190508181036000830152612f4081612f04565b9050919050565b7f4552433732313a20617070726f76652063616c6c6572206973206e6f7420746f60008201527f6b656e206f776e6572206f7220617070726f76656420666f7220616c6c000000602082015250565b6000612fa3603d836126d3565b9150612fae82612f47565b604082019050919050565b60006020820190508181036000830152612fd281612f96565b9050919050565b7f4552433732313a2063616c6c6572206973206e6f7420746f6b656e206f776e6560008201527f72206f7220617070726f76656400000000000000000000000000000000000000602082015250565b6000613035602d836126d3565b915061304082612fd9565b604082019050919050565b6000602082019050818103600083015261306481613028565b9050919050565b7f4e487b7100000000000000000000000000000000000000000000000000000000600052601160045260246000fd5b60006130a58261277a565b91506130b08361277a565b92508282019050808211156130c8576130c761306b565b5b92915050565b60006130d98261277a565b91507fffffffffffffffffffffffffffffffffffffffffffffffffffffffffffffffff820361310b5761310a61306b565b5b600182019050919050565b7f4e487b7100000000000000000000000000000000000000000000000000000000600052603260045260246000fd5b7f4552433732313a20696e76616c696420746f6b656e2049440000000000000000600082015250565b600061317b6018836126d3565b915061318682613145565b602082019050919050565b600060208201905081810360008301526131aa8161316e565b9050919050565b7f4552433732313a2061646472657373207a65726f206973206e6f74206120766160008201527f6c6964206f776e65720000000000000000000000000000000000000000000000602082015250565b600061320d6029836126d3565b9150613218826131b1565b604082019050919050565b6000602082019050818103600083015261323c81613200565b9050919050565b7f506c65617365207375626d6974207468652061736b696e67207072696365206960008201527f6e206f7264657220746f20636f6d706c65746520746865207075726368617365602082015250565b600061329f6040836126d3565b91506132aa82613243565b604082019050919050565b600060208201905081810360008301526132ce81613292565b9050919050565b600081905092915050565b60006132eb826126c8565b6132f581856132d5565b93506133058185602086016126e4565b80840191505092915050565b600061331d82856132e0565b915061332982846132e0565b91508190509392505050565b7f486f706566756c6c792073656e64696e672074686520636f727265637420707260008201527f6963650000000000000000000000000000000000000000000000000000000000602082015250565b60006133916023836126d3565b915061339c82613335565b604082019050919050565b600060208201905081810360008301526133c081613384565b9050919050565b7f4552433732313a207472616e736665722066726f6d20696e636f72726563742060008201527f6f776e6572000000000000000000000000000000000000000000000000000000602082015250565b60006134236025836126d3565b915061342e826133c7565b604082019050919050565b6000602082019050818103600083015261345281613416565b9050919050565b7f4552433732313a207472616e7366657220746f20746865207a65726f2061646460008201527f7265737300000000000000000000000000000000000000000000000000000000602082015250565b60006134b56024836126d3565b91506134c082613459565b604082019050919050565b600060208201905081810360008301526134e4816134a8565b9050919050565b7f45524337323155524953746f726167653a2055524920736574206f66206e6f6e60008201527f6578697374656e7420746f6b656e000000000000000000000000000000000000602082015250565b6000613547602e836126d3565b9150613552826134eb565b604082019050919050565b600060208201905081810360008301526135768161353a565b9050919050565b60008190508160005260206000209050919050565b60006020601f8301049050919050565b600082821b905092915050565b6000600883026135df7fffffffffffffffffffffffffffffffffffffffffffffffffffffffffffffffff826135a2565b6135e986836135a2565b95508019841693508086168417925050509392505050565b6000819050919050565b600061362661362161361c8461277a565b613601565b61277a565b9050919050565b6000819050919050565b6136408361360b565b61365461364c8261362d565b8484546135af565b825550505050565b600090565b61366961365c565b613674818484613637565b505050565b5b818110156136985761368d600082613661565b60018101905061367a565b5050565b601f8211156136dd576136ae8161357d565b6136b784613592565b810160208510156136c6578190505b6136da6136d285613592565b830182613679565b50505b505050565b600082821c905092915050565b6000613700600019846008026136e2565b1980831691505092915050565b600061371983836136ef565b9150826002028217905092915050565b613732826126c8565b67ffffffffffffffff81111561374b5761374a612902565b5b6137558254612e84565b61376082828561369c565b600060209050601f8311600181146137935760008415613781578287015190505b61378b858261370d565b8655506137f3565b601f1984166137a18661357d565b60005b828110156137c9578489015182556001820191506020850194506020810190506137a4565b868310156137e657848901516137e2601f8916826136ef565b8355505b6001600288020188555050505b505050505050565b7f4d616b652073757265207468652070726963652069736e2774206e656761746960008201527f7665000000000000000000000000000000000000000000000000000000000000602082015250565b60006138576022836126d3565b9150613862826137fb565b604082019050919050565b600060208201905081810360008301526138868161384a565b9050919050565b60006080820190506138a2600083018761280f565b6138af602083018661280f565b6138bc6040830185612a76565b6138c9606083018461269e565b95945050505050565b7f4552433732313a20617070726f766520746f2063616c6c657200000000000000600082015250565b60006139086019836126d3565b9150613913826138d2565b602082019050919050565b60006020820190508181036000830152613937816138fb565b9050919050565b7f4552433732313a207472616e7366657220746f206e6f6e20455243373231526560008201527f63656976657220696d706c656d656e7465720000000000000000000000000000602082015250565b600061399a6032836126d3565b91506139a58261393e565b604082019050919050565b600060208201905081810360008301526139c98161398d565b9050919050565b600081519050919050565b600082825260208201905092915050565b60006139f7826139d0565b613a0181856139db565b9350613a118185602086016126e4565b613a1a8161270e565b840191505092915050565b6000608082019050613a3a600083018761280f565b613a47602083018661280f565b613a546040830185612a76565b8181036060830152613a6681846139ec565b905095945050505050565b600081519050613a8081612639565b92915050565b600060208284031215613a9c57613a9b612603565b5b6000613aaa84828501613a71565b91505092915050565b7f4e487b7100000000000000000000000000000000000000000000000000000000600052601260045260246000fd5b7f4552433732313a206d696e7420746f20746865207a65726f2061646472657373600082015250565b6000613b186020836126d3565b9150613b2382613ae2565b602082019050919050565b60006020820190508181036000830152613b4781613b0b565b9050919050565b7f4552433732313a20746f6b656e20616c7265616479206d696e74656400000000600082015250565b6000613b84601c836126d3565b9150613b8f82613b4e565b602082019050919050565b60006020820190508181036000830152613bb381613b77565b905091905056fea264697066735822122018ff44d7cfdcc5fa1bd5e9f733bb774289ea23983c4cc2564c70a8563fd925f964736f6c63430008130033",
  "linkReferences": {},
  "deployedLinkReferences": {}
}